:020000040800F2
:100000002808002075040008D1040008D104000865
:10001000D1040008D1040008D10400080000000049
:10002000000000000000000000000000D1040008F3
:10003000D104000800000000D1040008D104000829
:10004000D1040008D1040008D1040008D10400083C
:10005000D1040008D1040008D1040008D10400082C
:10006000D1040008D1040008D1040008D10400081C
:10007000D1040008D1040008D1040008D10400080C
:10008000D1040008D1040008D104000800000000D9
:10009000000000000000000000000000D104000883
:1000A000D1040008D1040008D1040008D1040008DC
:1000B000D50600081D020008D1040008D10400087C
:1000C000D1040008D1040008D1040008D1040008BC
:1000D000D104000889060008D1040008D1040008F2
:1000E000D1040008D1040008D10400080000000079
:1000F0000000000000000000000000000000000000
:1001000000000000000000000000000000000000EF
:100110000000000000000000D1040008D104000825
:100120005FF808F180B584B000AF0121022001F032
:1001300021FD0021022001F059FD0523BB80002391
:10014000FB8000233B8100237B8100233B733B1D0D
:100150001946104800F078F801210E4800F07AF9AD
:10016000012201210B4800F00BF91D233B700023F5
:100170007B700123BB700123FB703B46184602F0E5
:1001800097FB0021034800F0DBF800BF1037BD46A5
:1001900080BD00BF0004004080B582B000AF0346C0
:1001A0000A46FB8013467B710021104800F0C8F816
:1001B000FB8819460D4800F015F900210B4800F0A6
:1001C00003F90121094800F0BBF8094B00221A701D
:1001D00000BF074B1B78DBB2002BFAD0002103488D
:1001E00000F0AEF800BF0837BD4680BD00040040F7
:1001F000C402002080B582B000AF786004E0002126
:100200004FF47A70FFF7C8FF7B685A1E7A60002BA4
:10021000F5D100BF0837BD4680BD00BF80B500AF37
:100220000121074800F0ECF80346002B06D001211D
:10023000034800F00FF9034B01221A7000BF80BD84
:1002400000040040C402002080B485B000AF786094
:1002500039600023FB817B681B88FB817B682E4A09
:10026000934213D07B682D4A93420FD07B68B3F141
:10027000804F0BD07B682A4A934207D07B68294A7B
:10028000934203D07B68284A934208D1FB8923F02C
:100290007003FB813B685A88FB891343FB817B68B1
:1002A000224A93420CD07B68214A934208D0FB89B2
:1002B00023F44073FB813B68DA88FB891343FB819D
:1002C0007B68FA891A803B689A887B689A853B68C4
:1002D0001A887B681A857B680F4A93420FD07B6827
:1002E0000E4A93420BD07B68124A934207D07B6838
:1002F000114A934203D07B68104A934204D13B6871
:100300001B7A9AB27B681A867B6801229A8200BFA8
:100310001437BD4680BC7047002C014000340140BA
:100320000004004000080040000C004000100040A5
:1003300000140040004001400044014000480140DA
:1003400080B483B000AF78600B46FB70FB78002B65
:1003500008D07B681B889BB243F001039AB27B688C
:100360001A8007E07B681B889BB223F001039AB2D6
:100370007B681A8000BF0C37BD4680BC704700BF49
:1003800080B483B000AF78600B467B8013467B70EF
:100390007B78002B08D07B689B899AB27B881343BB
:1003A0009AB27B689A8109E07B689B899AB27B88C4
:1003B000DB439BB213409AB27B689A8100BF0C3733
:1003C000BD4680BC704700BF80B483B000AF78608A
:1003D0000B467B807B687A889A8400BF0C37BD46C9
:1003E00080BC704780B483B000AF78600B467B80E0
:1003F0007B687A889A8500BF0C37BD4680BC704701
:1004000080B485B000AF78600B467B800023FB731F
:100410000023BB8100237B817B681B8A9AB27B8887
:100420001340BB817B689B899AB27B8813407B8198
:10043000BB89002B05D07B89002B02D00123FB73E5
:1004400001E00023FB73FB7B18461437BD4680BCDC
:10045000704700BF80B483B000AF78600B467B80EC
:100460007B88DB439AB27B681A8200BF0C37BD469B
:1004700080BC704780B582B000AF104B7B60104BE2
:100480003B6007E03B681A1D3A607A68111D79608D
:1004900012681A603B680B4A9342F3D30A480B492F
:1004A0004FF000028842B8BF40F8042BFADB00F09E
:1004B000CDF900BF0837BD4680BD00BF78450008B4
:1004C00000000020B8000020B80000202404002014
:1004D00080B400AFFEE700BF80B489B000AF7860A1
:1004E00039600023FB6100233B610023BB610023D3
:1004F000FB6000237B610023BB603B68DB7803F07B
:100500000F03FB613B68DB7803F01003002B05D081
:100510003B689B781A46FB691343FB613B681B8869
:10052000DBB2002B44D07B681B687B610023BB617E
:1005300038E00122BB6902FA03F3FB603B681B88C9
:100540001A46FB6813403B613A69FB689A4226D120
:10055000BB699B00FB600F22FB6802FA03F3BB60E0
:10056000BB68DB437A6913407B61FA69FB6802FA76
:1005700003F37A6913437B613B68DB78282B05D151
:100580000122BB699A407B685A6108E03B68DB78CE
:10059000482B04D10122BB699A407B681A61BB6970
:1005A0000133BB61BB69072BC3D97B687A691A60C9
:1005B0003B681B88FF2B46D97B685B687B61002307
:1005C000BB613AE0BB690833012202FA03F3FB6026
:1005D0003B681B881A46FB6813403B613A69FB681D
:1005E0009A4227D1BB699B00FB600F22FB6802FA8D
:1005F00003F3BB60BB68DB437A6913407B61FA6934
:10060000FB6802FA03F37A6913437B613B68DB788A
:10061000282B05D1BB69083301229A407B685A61B7
:100620003B68DB78482B05D1BB69083301229A402F
:100630007B681A61BB690133BB61BB69072BC1D9F8
:100640007B687A695A6000BF2437BD4680BC70471A
:1006500080B483B000AF78600B467B807A887B687B
:100660001A6100BF0C37BD4680BC704780B483B0B0
:1006700000AF78600B467B807A887B685A6100BF48
:100680000C37BD4680BC704780B500AF40F22551A5
:100690000F4801F049FF0346002B08D00C4801F039
:1006A00017FF0346DBB2184600F0BEFB0EE04FF426
:1006B0005871074801F038FF0346002B03D0044867
:1006C00001F006FF02E0024801F002FF00BF80BD1A
:1006D0000038014080B500AF01214FF08040FFF7A6
:1006E0008FFE0346002B00F0978001214FF08040E1
:1006F000FFF7B0FE01F006F80346002B02D000F031
:10070000F7FF2DE0454B1B680133444A1360B3F5F6
:10071000967F22D3414B00221A60414B1B681B7805
:10072000002B17D03E4B1B685A1C3D490A601B78B2
:10073000FF2B07D180213B48FFF798FF3A4B01225E
:100740001A700AE080213748FFF782FF364B0022FB
:100750001A7002E0324B354A1A60354B01221A708A
:10076000344B1B680133334A1360324B1B6840F62D
:10077000C312934250D9304B1B780133DAB22E4B5F
:100780001A702D4B1B78042B05D92C4B01221A70A3
:10079000294B00221A70274B00221A60284B1B7825
:1007A0000133DAB2264B1A70254B1B783B2B33D919
:1007B000234B00221A70234B1B78002B11D14FF4CE
:1007C00080711848FFF752FF154B184A1A6000F065
:1007D000BFFE01F07FFB00F009FF1B4B01221A70E6
:1007E0000DE04FF480710F48FFF732FF00F0B0FECC
:1007F00001F05CFB00F0FAFE134B00221A70114B63
:100800001B780133DAB20F4B1A700E4B1B78002B9A
:1008100002D00C4B00221A7000BF80BDD402002011
:1008200098000020000C0140B900002000000020CA
:10083000BC000020C8000020C6000020C500002029
:1008400095000020CC000020C400002080B582B0BC
:1008500000AF00F013FD00F007FD00F03DFDFFF7D5
:1008600061FC00F09BF94FF4FA6000F0DBFE4FF4FE
:1008700080714D48FFF7ECFE0C214C4801F016FE4C
:100880000022FF21022001F03DFA0022FF21032077
:1008900001F038FA0022FF21042001F033FA01F0C0
:1008A0000FFB434801F052FA012200216D2001F0B4
:1008B00029FA01220021712001F024FA0022FF21EF
:1008C000022001F01FFA0022FF21752001F01AFA20
:1008D0000022FF21762001F015FA0022FF21772067
:1008E00001F010FA01222021122001F00BFA01225E
:1008F0000021132001F006FA01220021122001F04C
:1009000001FA012280210F2001F0FCF9294B2A4A2B
:100910001A602A4B00221A70294B01221A7000F02B
:10092000CBFE0123FB71274801F010FA4FF400536E
:1009300019462548FFF78CFE01221221712001F093
:10094000E1F901220521722001F0DCF900F04EFEF0
:100950001A4B00221A701A4B1B78DBB2002BFAD00C
:100960001A4B1B78DBB2002BF5D0194B1B78002BF0
:10097000F1D0134B00221A70164B1B78002B09D0B4
:10098000144B00221A704FF4004319460648FFF733
:100990005FFEE0E70F4B01221A704FF40043194647
:1009A0000148FFF763FED6E7000C01400048004015
:1009B0000040D943D0020020D8020020BB00002014
:1009C000BC0000208BBCD74300100140B9000020C0
:1009D000C4000020C300002080B582B000AF0346F1
:1009E000FB7100BF40210C4801F082FD0346002B43
:1009F000F8D0FB799BB21946074801F057FD00BFBC
:100A00004021054801F074FD0346002BF8D000BFDB
:100A10000837BD4680BD00BF0038014080B584B0B6
:100A200000AF3A601A460346FB710B46BB71134692
:100A3000BB80BB88B979F8793A6800F04DF8034675
:100A4000BB81B520FFF7C8FF6220FFF7C5FFFB7928
:100A50001846FFF7C1FFBB791846FFF7BDFFBB88FB
:100A6000DBB21846FFF7B8FFBB881B0A9BB2DBB2AC
:100A70001846FFF7B1FF0023FB8109E0FB893A68C4
:100A800013441B781846FFF7A7FFFB890133FB814E
:100A9000FA89BB889A42F1D33B7B1846FFF79CFF4B
:100AA0007B7B1846FFF798FF00BF1037BD4680BD1F
:100AB00080B582B000AF78607B6898787B68D97821
:100AC0007B689A1D7B689B889BB2FFF7A7FF00BFDE
:100AD0000837BD4680BD00BF80B485B000AF3A6026
:100AE0001A460346FB710B46BB711346BB800023BD
:100AF0003B7200237B723A7AFB791344DBB23B7280
:100B00007A7A3B7A1344DBB27B723A7ABB7913442C
:100B1000DBB23B727A7A3B7A1344DBB27B723A7A6D
:100B2000BB88DBB21344DBB23B727A7A3B7A134464
:100B3000DBB27B723A7ABB881B0A9BB2DBB21344EE
:100B4000DBB23B727A7A3B7A1344DBB27B720023CE
:100B5000FB730FE03A7AFB7B39680B441B78134434
:100B6000DBB23B727A7A3B7A1344DBB27B72FB7B5B
:100B70000133FB73FB7B9BB2BA889A42EAD83B896C
:100B8000BB8100233A7B62F307037A7B62F30F2376
:100B900018461437BD4680BC704700BF80B5FEB014
:100BA00000AF07F5CA7362220021184603F007FC64
:100BB000B52387F89431622387F89531062387F8A7
:100BC0009631042387F897310423A7F898314FF61C
:100BD000FF73A7F89A31012387F89C3101214FF464
:100BE000164000F0B3FA0A20FFF704FB07F5CA73BA
:100BF0001846FFF75DFF4FF44870FFF7FBFA01213D
:100C00004FF4165000F0A2FA0A20FFF7F3FA07F5A6
:100C1000CA731846FFF74CFF4FF44870FFF7EAFA23
:100C200007F5987362220021184603F0C8FBB5232C
:100C300087F83031622387F83131062387F8323163
:100C40001423A7F83431012387F83631002343F405
:100C50000C63A7F83A310023A7F83C31002343F096
:100C60007F4343F47F0343F41643A7F83E31002348
:100C7000A7F840310123A7F842310123A7F84431F6
:100C800007F598731846FFF713FF01214FF416403C
:100C900000F05CFA0A20FFF7ADFA07F1CC03184622
:100CA00062231A46002103F08AFB07F1CC03B52228
:100CB0001A7007F1CC0362225A7007F1CC030622A6
:100CC0009A7007F1CC031122DA7007F1CC030222EB
:100CD0009A8007F1CC0308229A7107F1CC03042211
:100CE000DA7107F1CC031846FFF7E2FE00F0D0F905
:100CF0000346002BF5D007F16803184662231A4615
:100D0000002103F05CFB07F16803B5221A7007F1BC
:100D1000680362225A7007F1680306229A7007F18D
:100D200068030122DA7007F1680303229A8007F151
:100D3000680301229A7107F168030222DA7107F150
:100D4000680301221A7207F168031846FFF7B0FE24
:100D500000F09EF90346002BF5D007F16803062248
:100D6000DA7107F168031846FFF7A2FE00F090F968
:100D70000346002BF5D007F168032122DA7107F151
:100D800068031846FFF794FE00F082F90346002B33
:100D9000F5D03B1D184662231A46002103F00FFBD5
:100DA0003B1DB5221A703B1D62225A703B1D062264
:100DB0009A703B1D2422DA703B1D24229A803B1D31
:100DC00040F2FF32DA803B1D07221A723B1D0222DD
:100DD0005A723A1D002343F41C5343F01003D3818D
:100DE000002313823B1D05229A743B1D19229A820F
:100DF0003B1D1922DA823B1D64221A833B1D4FF4EE
:100E000096725A833B1D02225A773B1D1846FFF704
:100E10004FFE00F03DF90346002BF6D000BF07F56A
:100E2000FC77BD4680BD00BF80B582B000AF0346F1
:100E3000FB71304B1B78002B24D12F4B1B78002BE0
:100E40000AD1FB79B52B07D12B4B01221A702B4B02
:100E50001B68FA791A7048E0274B1B78012B0DD1DB
:100E6000FB79622B0AD1234B01221A70224B0222FA
:100E70001A70224B1B68FA795A7036E01E4B00221A
:100E80001A7032E01D4B1B681B4A12781344FA7922
:100E90001A70194B1B78042B16D9174B1B78013B82
:100EA0001A46164B1B689B889BB208339A420BD19B
:100EB000124B1B68184600F023F80F4B00221A70E3
:100EC0000C4B00221A7010E00B4B1B780133DAB286
:100ED000094B1A70084B1B78632B06D9064B00226E
:100EE0001A70044B00221A70FFE700BF0837BD4696
:100EF00080BD00BFD3000020D40000209C00002053
:100F000080B584B000AF78607B6898787B68D978CA
:100F10007B689A1D7B689B889BB2FFF7DDFD0346CB
:100F20003B817B6806337A68928892B21344FB60F7
:100F30003A7AFB681B789A4204D17A7AFB685B782C
:100F40009A4206D04F4B1B8B01339AB24D4B1A83FA
:100F500093E07B689B78012B32D17B68DB78072B91
:100F60002ED1484BDB8A01339AB2464BDA827B683A
:100F70009A7E444B1A757B68D3F82230414A13603D
:100F80007B68D3F81E303F4A53607B68D3F82A3021
:100F90003C4A93607B689A7B3A4BDA747B68DA7BD5
:100FA000384B9A747B681A7C364B5A747B685A7F2C
:100FB000344B1A747B68D3F84230324AD3605CE019
:100FC0007B689B78012B19D17B68DB78022B15D1CC
:100FD0002C4BDB8A01339AB22A4BDA827B68D3F836
:100FE0000E30284A13607B68D3F80A30254A5360D4
:100FF0007B68D3F81630234A93603EE07B689B7889
:10100000012B0DD17B68DB78062B09D17B681A7C1C
:101010001C4B1A757B6893F835201A4B1A742CE018
:101020007B689B78012B10D17B68DB78212B0CD15E
:101030007B689A7D134BDA747B68DA7D114B9A7466
:101040007B681A7E0F4B5A7417E07B689B78052BE0
:1010500007D17B68DB78012B03D10B4B01221A707F
:101060000BE07B689B78052B07D17B68DB78002B36
:1010700003D1064B01221A70FFE700BF1037BD46AF
:1010800080BD00BFA0030020D1000020D2000020BE
:1010900080B582B000AF124B00221A70114B0022B3
:1010A0001A70C823FB7107E00120FFF7A3F8FB7952
:1010B0005A1EFA71002B0AD0094B1B78DBB2002BA9
:1010C00006D1084B1B78DBB2002BEDD000E000BF4F
:1010D000034B1B78DBB218460837BD4680BD00BF06
:1010E000D1000020D200002080B483B000AF0346BE
:1010F000FB71084997F907305B09FA7902F01F0282
:10110000012000FA02F241F8232000BF0C37BD464F
:1011100080BC704700E100E080B483B000AF0346BC
:10112000FB71094997F907305B09FA7902F01F0250
:10113000012000FA02F2203341F8232000BF0C37CF
:10114000BD4680BC704700BF00E100E080B584B0C0
:1011500000AF78600B46FB702520FFF7DDFF002213
:1011600040F22551264801F059F940F22551244812
:1011700001F034FA4FF45871214801F02FFA0021A0
:101180001F4801F02BF901214FF4804000F0D4FCFE
:101190001C4A7B6813601B4B00229A80194B00226B
:1011A000DA80184B00221A81164B00229A81154BC7
:1011B0000C225A811349124801F056F825233B733B
:1011C0000F237B730223BB730123FB7307F10C0313
:1011D000184601F06DFB0121094801F0FFF8FB788A
:1011E000002B08D0012240F22551054801F016F9E4
:1011F0002520FFF779FF00BF1037BD4680BD00BF37
:1012000000380140E803002080B500AF2720FFF739
:1012100083FF0021124801F0E1F801214FF4802002
:1012200000F0A8FC0F4B4FF496421A600D4B0022C1
:101230009A800C4B0022DA800A4B00221A81094B5B
:1012400000229A81074B0C225A810649044801F07A
:101250000BF80121024801F0C1F800BF80BD00BFBA
:1012600000480040E803002080B500AF00214FF0A7
:10127000006001F07FFB00BF80BD00BF80B582B081
:1012800000AF00F069FA4FF4803000F097FA00F0F8
:10129000C3FA0346FB71FB79012B19D1102001F031
:1012A000D9F9022001F0BAF9902000F007FB4FF4C1
:1012B000A06000F03BFB4FF4806000F01BFB0120BE
:1012C00000F0D2FA00BF00F0EBFA0346042BFAD18B
:1012D00000BF0837BD4680BD80B500AF01210420A6
:1012E00000F02AFC904B4FF480521A808E4B102253
:1012F000DA708D4B01229A708B498C48FFF7ECF81D
:101300000121082000F018FC874B4FF4C0721A80AE
:10131000854B1022DA70844B01229A7082498448EE
:10132000FFF7DAF84FF4004343F400539AB27E4BD0
:101330001A807D4B1822DA707B4B01229A707A4911
:101340007B48FFF7C9F8784B4FF480421A80764B00
:101350000422DA7074497648FFF7BEF801211020A4
:1013600000F0EAFB4FF400526F4B1A806E4B1022D4
:10137000DA706D4B01229A706B496E48FFF7ACF83A
:1013800000F0E6F8684B4FF400721A80664B1822A2
:10139000DA70654B01229A7063496448FFF79CF844
:1013A000614B4FF480621A805F4B0422DA705E4911
:1013B0005E48FFF791F800214FF41650FFF7C6FE84
:1013C000594B4FF480621A80574B1822DA70564BF3
:1013D00001229A7054495648FFF77EF8524B4FF459
:1013E00000621A80504B0422DA704F495048FFF7D0
:1013F00073F8FFF709FF0121012000F07FFB4E4841
:1014000001F040F94D4B0222DA604C4B00229A6009
:101410004A4B00229A624A4A484B5A600121494885
:1014200000F0D0FD454B4FF48062DA61434B8022DF
:101430005A61424B20221A62404B434A1A603F4B8A
:101440004FF480729A613D4B00221A613B4B4FF47E
:1014500000525A623949384801F0D0F90121364822
:1014600001F00AFA304B0022DA702F4B40221A802A
:101470002D492E48FFF730F82B4B0022DA702A4B0B
:1014800020221A8028492948FFF726F8002000F07A
:1014900069FA01214FF4007000F04EFB2B4B002243
:1014A0001A602A4B01221A71284B01225A71274BCC
:1014B0004FF460229A60254B0022DA60234B02220F
:1014C0001A7422491F4800F00FFD03230122052151
:1014D0001C4800F0FFFD032302220621194800F0FA
:1014E000F9FD0121174800F06DFD0121154800F0BC
:1014F0004DFD144800F082FD00BF124800F08EFD43
:101500000346002BF9D10F4800F0A0FD00BF0D48A5
:1015100000F0ACFD0346002BF9D10121094800F091
:10152000BDFD00BF80BD00BFD0030020000801400A
:10153000000C01400010014008000240F8030020A8
:10154000B4020020002401404C240140BC030020D0
:1015500080B500AF4FF40042204B1A801F4B182279
:10156000DA701E4B01229A701C491D48FEF7B4FF29
:1015700001214FF4804000F0FDFA1A4B00221A803E
:10158000184B4FF482725A80164B4FF400629A80C7
:10159000144B0022DA80134B00221A81114B1822BF
:1015A0009A81104B0022DA810E4B07221A820D49D4
:1015B0000D4801F02FFA01210B4801F0A9FA012191
:1015C000094801F06BFA074B4FF482725A800549C3
:1015D000054801F01FFA00BF80BD00BFD003002006
:1015E000000C0140D40300200038004080B500AF5B
:1015F000094801F0D5F94FF40042084B1A80074B17
:101600001022DA70054B01229A7004490448FEF753
:1016100063FF00BF80BD00BF00380040D003002042
:10162000000C014080B586B000AF78600121012038
:1016300000F0A0FA0021012000F0D8FA0523BB81B8
:101640000023FB8140F28F133B8200237B82002327
:101650003B7507F10C0319464FF08040FEF7F4FD8F
:1016600001214FF08040FEF7F5FE012201214FF0ED
:101670008040FEF785FE1C233B7200237B72012312
:10168000BB720123FB7207F10803184601F010F941
:1016900001214FF08040FEF753FE00BF1837BD46D2
:1016A00080BD00BF80B483B000AF78607B6818460F
:1016B0000C37BD4680BC704780B584B004AF084B82
:1016C000039330230293074B019342230093064B6D
:1016D00000220021054801F0B3FA00BFBD4680BDDD
:1016E000F843000808440008F04300083C010020CB
:1016F00080B500AF024801F0C9FB00BF80BD00BF4C
:101700003C01002080B400AF034B93F86C311846C5
:10171000BD4680BC704700BF3C01002080B582B050
:1017200000AF786039607B68012B07D13B684FF6CA
:10173000FF72934202D10348FFF7B4FF00BF08379E
:10174000BD4680BD3C01002080B500AF4FF6FF7163
:101750000120FFF7E3FF80BD80B400AF154A154BB1
:101760001B6843F0010313601249124B5A68124B75
:1017700013404B600F4A0F4B1B6823F0847323F414
:10178000803313600B4A0B4B1B6823F480231360D8
:10179000084A084B5B6823F4FE035360054B4FF483
:1017A0001F029A60034B0022DA6200BFBD4680BC74
:1017B000704700BF001002400000FFF880B483B003
:1017C00000AF7860134A134B1B6823F48033136017
:1017D000104A104B1B6823F4802313607B68B3F519
:1017E000803F03D0B3F5802F07D00DE0094A094BA5
:1017F0001B6843F48033136006E0064A054B1B6800
:1018000043F4A023136000BF00BF0C37BD4680BC6B
:10181000704700BF0010024080B582B000AF0023C7
:101820003B600023FB710023BB71312000F0FCF909
:101830000346BB713B6801333B603B68B3F5A06F67
:1018400002D0BB79002BF0D0312000F0EDF9034637
:10185000002B02D00123FB7101E00023FB71FB7917
:1018600018460837BD4680BD80B485B000AF7860AB
:101870000023FB60094B5B68FB60FB6823F00303FC
:10188000FB60FA687B681343FB60044AFB685360A3
:1018900000BF1437BD4680BC704700BF0010024037
:1018A00080B400AF044B5B68DBB203F00C03DBB227
:1018B0001846BD4680BC70470010024080B485B019
:1018C00000AF78600023FB60094B5B68FB60FB683E
:1018D00023F0F003FB60FA687B681343FB60044A63
:1018E000FB68536000BF1437BD4680BC704700BF23
:1018F0000010024080B485B000AF78600023FB6028
:10190000094B5B68FB60FB6823F4E063FB60FA68EB
:101910007B681343FB60044AFB68536000BF1437C5
:10192000BD4680BC704700BF0010024080B485B047
:1019300000AF78600023FB60094B5B68FB60FB68CD
:1019400023F46053FB607B68DB00FA681343FB60A1
:10195000034AFB68536000BF1437BD4680BC704724
:101960000010024080B485B000AF78600023FB60B7
:10197000094B5B68FB60FB6823F44043FB60FA683B
:101980007B681343FB60044AFB68536000BF143755
:10199000BD4680BC704700BF0010024080B489B0D3
:1019A00000AF78600023FB610023BB6100237B61F3
:1019B00000233B610023FB604A4B5B6803F00C0390
:1019C000FB61FB69042B07D0082B09D0002B2FD11A
:1019D0007B68454A1A602FE07B68444A1A602BE016
:1019E000404B5B6803F47013BB613E4B5B6803F4D0
:1019F00080337B61BB699B0C0233BB617B69002B2D
:101A000006D1BB693A4A02FB03F27B681A6013E015
:101A1000344BDB6A03F00F030133FB60334AFB688E
:101A2000B2FBF3F3BA6902FB03F27B681A6003E0CE
:101A30007B682D4A1A6000BF2A4B5B6803F0F003F5
:101A4000FB61FB691B09FB612A4AFB6913441B7894
:101A5000DBB23B617B681A683B69DA407B685A609D
:101A6000204B5B6803F4E063FB61FB691B0AFB61CD
:101A7000204AFB6913441B78DBB23B617B685A68E0
:101A80003B69DA407B689A60164B5B6803F46053ED
:101A9000FB61FB69DB0AFB61164AFB6913441B7897
:101AA000DBB23B617B685A683B69DA407B68DA608D
:101AB0000C4B5B6803F44043FB61FB699B0BFB61D0
:101AC0000D4AFB6913441B78DBB23B617B68DA6823
:101AD0003B69B2FBF3F27B681A6100BF2437BD4655
:101AE00080BC70470010024000127A0000366E0180
:101AF00000093D00A0000020B000002080B483B0A9
:101B000000AF78600B46FB70FB78002B06D00949CC
:101B1000084B5A697B6813434B6106E00549054B46
:101B20005A697B68DB4313404B6100BF0C37BD46ED
:101B300080BC70470010024080B483B000AF786072
:101B40000B46FB70FB78002B06D00949084B9A69BD
:101B50007B6813438B6106E00549054B9A697B68F6
:101B6000DB4313408B6100BF0C37BD4680BC704720
:101B70000010024080B483B000AF78600B46FB7069
:101B8000FB78002B06D00949084BDA697B681343C0
:101B9000CB6106E00549054BDA697B68DB431340FE
:101BA000CB6100BF0C37BD4680BC704700100240BF
:101BB00080B483B000AF78600B46FB70FB78002BDD
:101BC00006D00949084BDA687B681343CB6006E00E
:101BD0000549054BDA687B68DB431340CB6000BFE7
:101BE0000C37BD4680BC70470010024080B483B003
:101BF00000AF78600B46FB70FB78002B06D00949DC
:101C0000084B1A697B6813430B6106E00549054BD5
:101C10001A697B68DB4313400B6100BF0C37BD467C
:101C200080BC70470010024080B487B000AF03460C
:101C3000FB710023FB6000237B610023FB74FB79B5
:101C40005B09DBB2FB60FB68012B03D1124B1B6805
:101C50007B6109E0FB68022B03D10F4B1B6A7B61A0
:101C600002E00D4B5B6A7B61FB7903F01F03FB60B5
:101C70007A69FB6822FA03F303F00103002B02D018
:101C80000123FB7401E00023FB74FB7C18461C3726
:101C9000BD4680BC704700BF0010024080B582B0D6
:101CA00000AF0346FB804FF4005319461348FEF77C
:101CB000DDFC00BF0221124800F04AFF0346002B62
:101CC000F8D0FB8819460E4800F008FF00BF01213C
:101CD0000B4800F03DFF0346002BF8D04FF40053B3
:101CE00019460648FEF7B4FC054800F005FF034618
:101CF000DBB218460837BD4680BD00BF001001406A
:101D00000038004080B582B000AF0346FB710B463F
:101D1000BB7113467B717B79002B06D08022FB7947
:101D20001343DBB21B021BB202E0FB791B021BB2A6
:101D3000BA7912B213431BB29BB21846FFF7AEFF3B
:101D4000034618460837BD4680BD00BF90B585B034
:101D500000AF78604F4B19464F4801F081FA0346B7
:101D60007968184601F0C8F903464C49184601F055
:101D700075FB0346002B01D0012300E00023FB7319
:101D8000444B1946444801F06BFA034679681846FB
:101D900001F0B2F903464249184601F061FA0346E0
:101DA000184601F06FFB0346DBB2A3F11801FA7B82
:101DB000134692009B1ADB00CA18FB7B013392FB8F
:101DC000F3F3BB7303237B73324C7B7B184601F028
:101DD0003FF903461946204601F042FA03461C46E5
:101DE000FB7B0133184601F033F9034619462046C0
:101DF00001F082F903461946786801F031FA03468A
:101E00001C46BB7B184601F023F9034619462046C1
:101E100001F068F803462349184601F063F80346C9
:101E20002149184601F068F90346184601F02AFBDB
:101E300003467B8101220A217220FFF763FF97F995
:101E40000E3003F01F035BB243F040035AB2FB7B3A
:101E50005B015BB203F020035BB213435BB2DBB206
:101E6000012219467520FFF74DFF7B891B0A9BB2A3
:101E7000DBB2012219467620FFF744FF7B89DBB2F3
:101E8000012219467720FFF73DFF00BF1437BD46FA
:101E900090BD00BF0000D0410000F0410000F043C1
:101EA000000020410000C04100007A4780B500AF2B
:101EB000012240210720FFF725FF00BF80BD00BFA2
:101EC00080B500AF012280210720FFF71BFF00BF74
:101ED00080BD00BF80B500AF012248210720FFF779
:101EE00011FF00BF80BD00BF80B485B000AF786037
:101EF00039600023FB600023FB727B685B68FB603A
:101F0000FB6823F4702323F48073FB603B681A683A
:101F10003B681B791B021343FA681343FB607B6821
:101F2000FA685A607B689B68FB60FA68164B13403E
:101F3000FB603B68DA683B689B681A433B685B79E7
:101F40005B001343FA681343FB607B68FA689A608E
:101F50007B68DB6AFB60FB6823F47003FB603B6813
:101F60001B7C013BDAB2FB7A1343FB72FB7A1B0545
:101F7000FA681343FB607B68FA68DA6200BF1437C3
:101F8000BD4680BC704700BFFDF7F1FF80B483B051
:101F900000AF78600B46FB70FB78002B06D07B68A7
:101FA0009B6843F001027B689A6005E07B689B6850
:101FB00023F001027B689A6000BF0C37BD4680BCED
:101FC000704700BF80B483B000AF78600B46FB70F1
:101FD000FB78002B06D07B689B6843F480727B689B
:101FE0009A6005E07B689B6823F480727B689A6046
:101FF00000BF0C37BD4680BC704700BF80B483B0C3
:1020000000AF78607B689B6843F008027B689A6049
:1020100000BF0C37BD4680BC704700BF80B485B0A0
:1020200000AF78600023FB737B689B6803F00803B4
:10203000002B02D00123FB7301E00023FB73FB7B29
:1020400018461437BD4680BC704700BF80B483B0CB
:1020500000AF78607B689B6843F004027B689A60FD
:1020600000BF0C37BD4680BC704700BF80B485B050
:1020700000AF78600023FB737B689B6803F0040368
:10208000002B02D00123FB7301E00023FB73FB7BD9
:1020900018461437BD4680BC704700BF80B483B07B
:1020A00000AF78600B46FB70FB78002B06D07B6896
:1020B0009B6843F4A0027B689A6005E07B689B689C
:1020C00023F4A0027B689A6000BF0C37BD4680BC39
:1020D000704700BF80B485B000AF786008461146F5
:1020E0001A460346FB700B46BB7013467B700023F9
:1020F000FB600023BB60FB78092B23D97B68DB687E
:10210000FB60FB78A3F10A0213465B00134407222D
:1021100002FA03F3BB60BB68DB43FA681340FB6061
:102120007978FB78A3F10A0213465B00134401FAA5
:1021300003F3BB60FA68BB681343FB607B68FA6813
:10214000DA601EE07B681B69FB60FA7813465B006F
:102150001344072202FA03F3BB60BB68DB43FA684F
:102160001340FB607978FA7813465B00134401FA58
:1021700003F3BB60FA68BB681343FB607B68FA68D3
:102180001A61BB78062B21D87B685B6BFB60BB7840
:102190005A1E13469B0013441F2202FA03F3BB602E
:1021A000BB68DB43FA681340FB60F978BB785A1EC2
:1021B00013469B00134401FA03F3BB60FA68BB6843
:1021C0001343FB607B68FA685A6347E0BB780C2BCB
:1021D00021D87B681B6BFB60BB78DA1F13469B0022
:1021E00013441F2202FA03F3BB60BB68DB43FA68A7
:1021F0001340FB60F978BB78DA1F13469B00134449
:1022000001FA03F3BB60FA68BB681343FB607B68A9
:10221000FA681A6322E07B68DB6AFB60BB78A3F193
:102220000D0213469B0013441F2202FA03F3BB6006
:10223000BB68DB43FA681340FB60F978BB78A3F115
:102240000D0213469B00134401FA03F3BB60FA68C6
:10225000BB681343FB607B68FA68DA6200BF14371F
:10226000BD4680BC704700BF80B58CB000AF7860C1
:1022700039600023FB620023BB6200237B620023E2
:102280003B620023FB617B68FB617B681B8A9BB21E
:10229000FB62FA6A4CF6FF731340FB623B68DB8813
:1022A0001A46FB6A1343FB62FB6A9AB27B681A8286
:1022B0007B689B899BB2FB62FA6A4EF6F31313406C
:1022C000FB623B689A883B681B8913439AB23B6860
:1022D0005B8913439BB21A46FB6A1343FB62FB6A9A
:1022E0009AB27B689A817B689B8A9BB2FB62FA6A8E
:1022F0004FF6FF431340FB623B689B891A46FB6A1B
:102300001343FB62FB6A9AB27B689A8207F1080367
:102310001846FFF743FBFB692E4A934202D17B69C3
:10232000BB6201E03B69BB627B689B899BB21BB2CD
:10233000002B0CDABA6A13469B0013449A001A4425
:102340003B681B685B00B2FBF3F37B620BE0BA6A8D
:1023500013469B0013449A001A443B681B689B0079
:10236000B2FBF3F37B627B6A1B4AA2FB03235B098C
:102370001B01FB62FB6A1B09642202FB03F37A6AFE
:10238000D31A3B627B689B899BB21BB2002B0CDA91
:102390003B6ADB003233104AA2FB03235B0903F0E4
:1023A0000703FA6A1343FB620BE03B6A1B013233FB
:1023B000094AA2FB03235B0903F00F03FA6A1343E4
:1023C000FB62FB6A9AB27B681A8100BF3037BD4658
:1023D00080BD00BF003801401F85EB5180B483B041
:1023E00000AF78600B46FB70FB78002B08D07B6851
:1023F0009B899BB243F400539AB27B689A8107E0B1
:102400007B689B899BB223F400539AB27B689A81C4
:1024100000BF0C37BD4680BC704700BF80B487B09A
:1024200000AF78600B467B8013467B7000233B61D6
:102430000023FB600023BB6000237B617B687B6122
:102440007B88DBB25B09DBB23B617B8803F01F0357
:10245000FB600122FB6802FA03F3BB603B69012BBE
:1024600003D17B690C337B6109E03B69022B03D10B
:102470007B6910337B6102E07B6914337B617B787D
:10248000002B06D07B697A691168BA680A431A6022
:1024900006E07B697A691168BA68D2430A401A601B
:1024A00000BF1C37BD4680BC704700BF80B483B0FE
:1024B00000AF78600B467B807B88C3F308039AB239
:1024C0007B689A8000BF0C37BD4680BC704700BF58
:1024D00080B483B000AF78607B689B889BB2C3F305
:1024E00008039BB218460C37BD4680BC704700BF3E
:1024F00080B485B000AF78600B467B800023FB730F
:102500007B681B889AB27B8813409BB2002B02D059
:102510000123FB7301E00023FB73FB7B1846143798
:10252000BD4680BC704700BF80B487B000AF786004
:102530000B467B800023FB6000237B610023BB6094
:102540000023FB747B88DBB25B09DBB2BB607B885A
:1025500003F01F037B6101227B6902FA03F37B61B5
:10256000BB68012B07D17B689B899BB21A467B69AC
:1025700013407B6111E0BB68022B07D17B681B8A8B
:102580009BB21A467B6913407B6106E07B689B8A9D
:102590009BB21A467B6913407B617B881B0A9BB206
:1025A000FB600122FB6802FA03F3FB607B681B8877
:1025B0009BB21A46FB681340FB607B69002B05D079
:1025C000FB68002B02D00123FB7401E00023FB74A5
:1025D000FB7C18461C37BD4680BC704780B485B074
:1025E00000AF78600B467B800023FB810023BB811A
:1025F0007B881B0AFB81FB89012202FA03F3BB8162
:10260000BB89DB439AB27B681A8000BF1437BD4692
:1026100080BC704780B400AFFEE700BF80B485B0D7
:1026200000AF78600023FB60094B1B68FB60FB6810
:1026300003F03803FB60FA687B681343FB60044ACD
:10264000FB68136000BF1437BD4680BC704700BFF5
:102650000020024080B483B000AF7860084A084B85
:102660001B6823F0100313600549054B1A687B684B
:1026700013430B6000BF0C37BD4680BC704700BFE2
:102680000020024080B483B000AF78607B681A6895
:102690004FF6FE7313407A6813607B6800221A605D
:1026A0007B6800225A607B6800229A607B68002267
:1026B000DA607B68434A934206D1434A424B5B68E7
:1026C00043F00F03536077E07B68404A934206D1A2
:1026D0003D4A3D4B5B6843F0F00353606CE07B6820
:1026E0003B4A934206D1384A374B5B6843F47063E8
:1026F000536061E07B68374A934206D1324A324BDD
:102700005B6843F47043536056E07B68324A9342FF
:1027100006D12D4A2C4B5B6843F4702353604BE089
:102720007B682E4A934206D1274A274B5B6843F4C5
:102730007003536040E07B68294A934206D1224AE5
:10274000214B5B6843F07063536035E07B68254A3A
:10275000934206D1244A244B5B6843F00F03536035
:102760002AE07B68214A934206D11F4A1E4B5B68D0
:1027700043F0F00353601FE07B681D4A934206D18B
:10278000194A194B5B6843F47063536014E07B682B
:10279000184A934206D1144A134B5B6843F47043C2
:1027A000536009E07B68144A934205D10E4A0E4BF0
:1027B0005B6843F47023536000BF0C37BD4680BC98
:1027C000704700BF08000240000002401C000240A9
:1027D0003000024044000240580002406C000240B9
:1027E0008000024008040240000402401C04024031
:1027F00030040240440402405804024080B485B0D2
:1028000000AF786039600023FB607B681B68FB6069
:10281000FB6823F4FF4323F07003FB603B689A6876
:102820003B681B6A1A433B681B691A433B685B6938
:102830001A433B689B691A433B68DB691A433B6850
:102840005B6A1A433B689B6A1343FA681343FB6055
:102850007B68FA681A603B68DA687B685A603B6894
:102860001A687B689A603B685A687B68DA6000BFC8
:102870001437BD4680BC704780B483B000AF786029
:102880000B46FB70FB78002B06D07B681B6843F07F
:1028900001027B681A6006E07B681A684FF6FE73D7
:1028A00013407A68136000BF0C37BD4680BC704788
:1028B00080B487B000AF786000237B6100233B6168
:1028C0000F23FB607B68DB78002B3AD0274BDB685B
:1028D000DB4303F4E0631B0A7B617B69C3F1040300
:1028E0003B61FA687B6922FA03F3FB607B685B78E3
:1028F0001A463B6902FA03F37B617B689B781A46B0
:10290000FB6813407A6913437B617B691B017B6120
:10291000174A7B681B787969C9B213440A4683F861
:102920000023134A7B681B785B09DBB218467B687F
:102930001B7803F01F03012101FA03F342F8203052
:102940000FE00B497B681B785B09DBB218467B689C
:102950001B7803F01F0301229A4000F1200341F885
:10296000232000BF1C37BD4680BC704700ED00E04F
:1029700000E100E080B483B000AF786039600749BF
:102980003B6823F0604323F07F037A6813438B6036
:1029900000BF0C37BD4680BC704700BF00ED00E0B3
:1029A00080B582B000AF78607B68174A93420AD145
:1029B00001214FF48050FFF7FBF800214FF48050C5
:1029C000FFF7F6F81CE07B68104A93420AD1012118
:1029D0004FF48040FFF70AF900214FF48040FFF7E1
:1029E00005F90DE07B680A4A934209D101214FF4B1
:1029F0000040FFF7FBF800214FF40040FFF7F6F826
:102A000000BF0837BD4680BD00300140003800409F
:102A1000003C004080B485B000AF7860396000238E
:102A2000FB817B681B88FB81FB8903F44153FB819D
:102A30003B681A883B685B8813439AB23B689B8863
:102A400013439AB23B68DB8813439AB23B681B89F5
:102A500013439AB23B685B8913439AB23B689B89E4
:102A600013439AB23B68DB8913439AB2FB89134341
:102A7000FB817B68FA891A807B689B8B9BB223F46D
:102A800000639AB27B689A833B681A8A7B681A82D1
:102A900000BF1437BD4680BC704700BF80B483B010
:102AA00000AF78600B46FB70FB78002B08D07B688A
:102AB0001B889BB243F040039AB27B681A8007E000
:102AC0007B681B889BB223F040039AB27B681A8014
:102AD00000BF0C37BD4680BC704700BF80B483B0D8
:102AE00000AF78600B467B807B687A889A8100BF54
:102AF0000C37BD4680BC704780B483B000AF7860AF
:102B00007B689B899BB218460C37BD4680BC7047DA
:102B100080B483B000AF78600B46FB70FB78002B6D
:102B200008D07B689B889BB243F004039AB27B6811
:102B30009A8007E07B689B889BB223F004039AB2DB
:102B40007B689A8000BF0C37BD4680BC704700BFD1
:102B500080B485B000AF78600B467B800023FB73A8
:102B60007B681B899AB27B8813409BB2002B02D0F2
:102B70000123FB7301E00023FB73FB7B1846143732
:102B8000BD4680BC704700BF80B483B000AF7860A2
:102B900000BF0C37BD4680BC704700BF80B582B017
:102BA00000AF7860786800F007F87868FFF7ECFF0E
:102BB00000BF0837BD4680BD80B582B000AF7860E9
:102BC000FEF7C6FC7B68002283F86C210748FFF7FC
:102BD000BDF8012200217120FFF794F84FF4FA604C
:102BE000FEF720FD00BF0837BD4680BD0040D94339
:102BF00080B582B000AF78600B46FB701346BB70A7
:102C00000E4A7B6813607B68FA7883F868217B68DA
:102C1000BA78DA707B680122A3F804210121786870
:102C200000F0FAF87B684FF4C872A3F86E21786858
:102C3000FFF7B4FF00BF0837BD4680BDB8020020D3
:102C400080B584B000AFF8607B600B46FB72134622
:102C5000BB7297F90A2097F90B301946F868FFF70D
:102C6000C7FF3B7E1A467968F86800F00FF897F8BE
:102C700020301A46F969F86800F026F8796AF86891
:102C800000F0F2F800BF1037BD4680BD80B584B0BB
:102C900000AFF860B9601346FB71FB6803F58373FE
:102CA00006222021184601F08AFBFB6803F5837396
:102CB000B968184601F08BFBFB68FA7983F80C21A0
:102CC00000BF1037BD4680BD80B584B000AFF8604E
:102CD000B9601346FB71FB6803F20D130622202135
:102CE000184601F06CFBFB6803F20D13B968184637
:102CF00001F06DFBFB68FA7983F8132100BF1037F0
:102D0000BD4680BD80B586B000AFF860B9607A601E
:102D1000B86801F064FB03463B750023FB75002394
:102D2000BB7500237B750023FB75FA7D3B7D9A42C2
:102D300068D2FB7DBA6813441B782C2B04D0FA7D33
:102D40003B7D013B9A4244D1FB7DBA6813441B781A
:102D50002C2B12D0BB7D7A681344FA7DB9680A44E3
:102D600012782D2A04D0FA7DB9680A44127800E05E
:102D700020221A70BB7D0133BB75BB7D062B04D8A6
:102D8000BB7DC3F107037B7514E0BB7D072B07D91F
:102D9000BB7D0D2B04D8BB7DC3F10E037B7509E011
:102DA000BB7D0E2B06D9BB7D142B03D8BB7DC3F195
:102DB00015037B757B7D002B1FD0BB7D7A68134488
:102DC00020221A707B7D013B7B75BB7D0133BB7577
:102DD000F0E7BB7D7A681344FA7DB9680A4412783B
:102DE0002D2A04D0FA7DB9680A44127800E0202226
:102DF0001A70BB7D0133BB7500E000BFFB7D013362
:102E0000FB7592E7BB7D7A68134400221A7000BFFD
:102E10001837BD4680BD00BF80B483B000AF786076
:102E20000B46FB707B68FA7883F86A21FB78012BEC
:102E300002D0022B09D011E07B6840F2CD22A3F82A
:102E400070217B682D229A7008E07B6840F6F24280
:102E5000A3F870217B682D229A7000BF00BF0C3749
:102E6000BD4680BC704700BF80B582B000AF7860BF
:102E700039607B6803F58A731A4639687868FFF70A
:102E800041FF00BF0837BD4680BD00BF80B483B09E
:102E900000AF78604FF080424FF080431B889BB2B8
:102EA00023F001039BB213804FF080427B68B3F89C
:102EB0006E3193854FF0804300229A844FF0804218
:102EC0004FF080431B889BB243F001039BB21380F9
:102ED00000BF0C37BD4680BC704700BF80F000408B
:102EE00002E000BF81F0004142001FBF5FEA4103E2
:102EF00092EA030F7FEA226C7FEA236C6AD04FEAE2
:102F00001262D2EB1363C1BFD21841404840414026
:102F1000B8BF5B42192B88BF704710F0004F40F4D8
:102F2000000020F07F4018BF404211F0004F41F4F4
:102F3000000121F07F4118BF494292EA030F3FD0C0
:102F4000A2F1010241FA03FC10EB0C00C3F12003D3
:102F500001FA03F100F0004302D5494260EB400062
:102F6000B0F5000F13D3B0F1807F06D340084FEACD
:102F7000310102F10102FE2A51D2B1F1004F40EBC2
:102F8000C25008BF20F0010040EA0300704749002A
:102F900040EB000010F4000FA2F10102EDD1B0FAF5
:102FA00080FCACF1080CB2EB0C0200FA0CF0AABFEA
:102FB00000EBC25052421843BCBFD0401843704788
:102FC00092F0000F81F4000106BF80F4000001328E
:102FD000013BB5E74FEA41037FEA226C18BF7FEA65
:102FE000236C21D092EA030F04D092F0000F08BFA7
:102FF0000846704790EA010F1CBF0020704712F08E
:103000007F4F04D1400028BF40F00040704712F1CC
:1030100000723CBF00F50000704700F0004343F031
:10302000FE4040F4000070477FEA226216BF084667
:103030007FEA23630146420206BF5FEA412390EA2A
:10304000010F40F4800070474FF0000304E000BF20
:1030500010F0004348BF40425FEA000C08BF7047D1
:1030600043F0964301464FF000001CE050EA010295
:1030700008BF70474FF000030AE000BF50EA0102AA
:1030800008BF704711F0004302D5404261EB410197
:103090005FEA010C02BF84460146002043F0B643BC
:1030A00008BFA3F18053A3F50003BCFA8CF2083AE1
:1030B000A3EBC25310DB01FA02FC634400FA02FCEA
:1030C000C2F12002BCF1004F20FA02F243EB0200F1
:1030D00008BF20F00100704702F1200201FA02FC53
:1030E000C2F1200250EA4C0021FA02F243EB020046
:1030F00008BF20EADC7070474FF0FF0C1CEAD0528A
:103100001EBF1CEAD15392EA0C0F93EA0C0F6FD04A
:103110001A4480EA010C400218BF5FEA41211ED028
:103120004FF0006343EA501043EA5111A0FB013114
:103130000CF00040B1F5000F3EBF490041EAD371E9
:103140005B0040EA010062F17F02FD2A1DD8B3F165
:10315000004F40EBC25008BF20F00100704790F0D4
:10316000000F0CF0004C08BF49024CEA502040EA26
:1031700051207F3AC2BFD2F1FF0340EAC2507047EC
:1031800040F400004FF00003013A5DDC12F1190F2A
:10319000DCBF00F000407047C2F10002410021FA9C
:1031A00002F1C2F1200200FA02FC5FEA310040F1B4
:1031B000000053EA4C0308BF20EADC70704792F02D
:1031C000000F00F0004C02BF400010F4000F013A65
:1031D000F9D040EA0C0093F0000F01F0004C02BF60
:1031E000490011F4000F013BF9D041EA0C018FE7CF
:1031F0000CEAD15392EA0C0F18BF93EA0C0F0AD0D5
:1032000030F0004C18BF31F0004CD8D180EA0100FA
:1032100000F00040704790F0000F17BF90F0004F93
:10322000084691F0000F91F0004F14D092EA0C0F75
:1032300001D142020FD193EA0C0F03D14B0218BF08
:10324000084608D180EA010000F0004040F0FE404E
:1032500040F40000704740F0FE4040F440007047EA
:103260004FF0FF0C1CEAD0521EBF1CEAD15392EA69
:103270000C0F93EA0C0F69D0A2EB030280EA010C59
:1032800049024FEA402037D04FF0805343EA1111F2
:1032900043EA10130CF000408B4238BF5B0042F150
:1032A0007D024FF4000C8B4224BF5B1A40EA0C00F5
:1032B000B3EB510F24BFA3EB510340EA5C00B3EB27
:1032C000910F24BFA3EB910340EA9C00B3EBD10F15
:1032D00024BFA3EBD10340EADC001B0118BF5FEA67
:1032E0001C1CE0D1FD2A3FF650AF8B4240EBC25090
:1032F00008BF20F0010070470CF0004C4CEA502051
:103300007F32C2BFD2F1FF0340EAC250704740F49F
:1033100000004FF00003013A37E792F0000F00F091
:10332000004C02BF400010F4000F013AF9D040EA0F
:103330000C0093F0000F01F0004C02BF490011F4A3
:10334000000F013BF9D041EA0C0195E70CEAD1539B
:1033500092EA0C0F08D142027FF47DAF93EA0C0F82
:103360007FF470AF084676E793EA0C0F04D14B0266
:103370003FF44CAF08466EE730F0004C18BF31F018
:10338000004CCAD130F000427FF45CAF31F0004312
:103390007FF43CAF5FE700BF4FF0FF3C06E000BFAB
:1033A0004FF0010C02E000BF4FF0010C4DF804CDCE
:1033B0004FEA40024FEA41037FEA226C18BF7FEADE
:1033C000236C11D001B052EA530C18BF90EA010FE0
:1033D00058BFB2EB030088BFC81738BF6FEAE1706F
:1033E00018BF40F0010070477FEA226C02D15FEA0B
:1033F000402C05D17FEA236CE4D15FEA412CE1D077
:103400005DF8040B704700BF844608466146FFE73D
:103410000FB5FFF7C9FF002848BF10F1000F0FBD1F
:103420004DF808EDFFF7F4FF0CBF012000205DF818
:1034300008FB00BF4DF808EDFFF7EAFF34BF01209D
:1034400000205DF808FB00BF4DF808EDFFF7E0FF36
:1034500094BF012000205DF808FB00BF4DF808ED87
:10346000FFF7D2FF94BF012000205DF808FB00BFEA
:103470004DF808EDFFF7C8FF34BF012000205DF8CC
:1034800008FB00BF42000ED2B2F1FE4F0BD34FF04B
:103490009E03B3EB126209D44FEA002343F00043CA
:1034A00023FA02F070474FF00000704712F1610FED
:1034B00001D1420202D14FF0FF3070474FF00000BF
:1034C000704700BF03685A004CBF43F0004323F02D
:1034D00000431844704700BF61B32DE9F84F01F174
:1034E000FF3A90460646D146002707EB090404EB55
:1034F000D4746410E50071190846FFF7E3FFA24594
:10350000834605F10800304409D0FFF7DBFFC345CF
:1035100000F1FF3005D8404509D2671CE5E7C345F7
:1035200005D9A74202D004F1FF39DEE700210846A1
:10353000BDE8F88F08467047012807D0022807D059
:10354000044B00280CBF1846002070470248704703
:10355000024870474D3C0008513C0008553C0008AB
:1035600030B5254B83B004468D1E7BB301A9284698
:10357000AFF3008020B301992A46FFF7ADFF014663
:10358000F0B1FFF79FFF4B68A064012B12D0002B16
:1035900001F1040021DBFFF795FF0023E0642365C0
:1035A0000368002B1DDBFFF78DFF00232061184609
:1035B00003B030BD002323610523184603B030BD9E
:1035C000002323610923184603B030BD0B490C4B7F
:1035D0000846591AC9100191CEE70123E06423651A
:1035E000DEE7C3F30360FFF7A7FF0028206114BFE5
:1035F00000230923DBE700BF000000008844000827
:1036000078450008036810B5DA07044606D49B071E
:1036100000F1480009D500F05BFC2368590709D583
:103620001A070ED5DB0613D510BD00F049FC236840
:103630005907F5D404F1D00000F052FC23681A07B2
:10364000F0D404F5A87000F053FC2368DB06EBD43B
:1036500004F5E870BDE8104000F08EBC03680BB1C3
:10366000184470471846704709207047704700BFDC
:1036700070B504460D4608E02A6C23696261214654
:103680002A4601209847082808D1296C2046FFF7D0
:1036900067FF06460028EFD0FEF7BCFF0728FBD1E6
:1036A0003046296CFFF7E2FF281D00F0FDFB00BF4C
:1036B0002DE9F0470646ADF5727D03AD0C1D1746AA
:1036C0000FCC0FC50FCC0FC50FCC0FC594E80F0062
:1036D00002ACD6F80C80D6F8189085E80F000023CD
:1036E0003046216C2360FFF73BFF0546002F14BFD7
:1036F0000A2709277DB1A36B47F010018DE810025E
:103700003246636401203346C04778BB28460DF536
:10371000727DBDE8F087236C4FF4F072736121462F
:103720007AA800F041FE33697AAA314638469847B4
:10373000889B82468DE810023946636432463346E0
:103740000120C04790B94FF4F0727AA9204600F0EA
:103750002BFEBAF1080F06D1216C3046FFF700FFAF
:1037600009270546C6E7BAF1070F04D009200DF571
:10377000727DBDE8F0872846216CFFF777FF03A82C
:1037800000F092FB406C7047F0B5CB6BF9B00B6466
:103790000E1D01AD0F4604460FCE0FC50FCE0FC54F
:1037A0000FCE0FC596E80F004FF0FF3685E80F00EB
:1037B000009606E023696A46214698470828054690
:1037C00008D110992046FFF7CBFE0028F2D009203F
:1037D00079B0F0BD6846FFF715FF062DF7D13946E1
:1037E0002046FFF745FF00BF30B4DD6BC16082614A
:1037F00019461D64002230BC5AE700BF70B543690A
:10380000C6680B6426B10122FFF752FFFEF702FFE4
:1038100003690A4604460D460146022098470728D8
:1038200007D0082803D129462046FFF721FFFEF7DD
:10383000F1FE3046296CFFF719FF281D00F034FB1C
:10384000C2682AB110B4CC6B00220C6410BC2FE704
:103850009AE700BF704700BF836813B1014601209B
:103860001847704700B5042907D8DFE801F00309BD
:10387000060909000BB90F2A05D902205DF804FBDF
:1038800001205DF804FB00EB820252681846019BA0
:103890001A605DF804FB00BF10B584B0002303ACD0
:1038A0000A4600941946FFF7DDFF039804B010BDE7
:1038B00000B5042907D8DFE801F00309060909006B
:1038C0000BB90F2A05D902205DF804FB01205DF831
:1038D00004FB019900EB82020968184651605DF80B
:1038E00004FB00BF10B584B004AC44F8042D0023E1
:1038F0000A4600941946FFF7DBFF04B010BD00BF75
:10390000F0B5D36BADF50F7D1364151D17AC0746ED
:103910000E460FCD0FC40FCD0FC40FCD0FC495E8C9
:103920000F004FF0FF3584E80F00169511E016A840
:103930006A46FFF7D7FF314616A8B84780B9049BFF
:1039400016AA6946082098470528044609D0092880
:1039500006D026996846FFF703FE0C210028E6D022
:10396000092416A8FFF74EFE20460DF50F7DF0BD89
:103970002DE9F04FCC6C914622688BB004340D4693
:103980000792089400F0030B1E46002B64D112022C
:10399000032307928DF825608DF824302B6DBBF141
:1039A000020F08BFAC6B13F0010343D100F0080015
:1039B000C2B2039201932768002F3DD0022E47D058
:1039C0002788B4F802800434AB6C28F0010A0F2178
:1039D00048469A44FFF760FF824537D827F0010335
:1039E0009A4450452CBF002001204FEA480808F0B7
:1039F000020807F0010748EA0708B8F1010F41D0B3
:103A000038D3B8F1020F1DD1236823F0004202928F
:103A1000BBF1000F79D130B10399002900F081800A
:103A2000002A00F0A880002B79DB029B013304EB15
:103A30008304C0E700230193022E40DDFFF714FE4C
:103A4000002842D009200BB0BDE8F08F0020CCE761
:103A5000D4F804800834B7E7022B9FDC130CD9B2EA
:103A600012048DF82530022304EB810407928DF8AF
:103A7000243093E7BBF1000F02D0002840F0B08063
:103A8000043498E7BBF1000F26D1B0B194E80C00E4
:103A9000991C4FEAD272D5D005F158010133069135
:103AA00000F09480201DFFF7D9FD06AB01462846A3
:103AB000AFF30080002840F0B88008347BE707A906
:103AC000484600F0F3FA0028BCD1019B002B5CD1E2
:103AD00008200BB0BDE8F08F0D2148462F6AFFF794
:103AE000DBFE8742E9D1AB6A9C42E6D12046FFF774
:103AF000E9FC0F2102464846FFF7F4FE48462A46F5
:103B00000021FFF7EFFE07209DE70D2148462F6AB1
:103B1000FFF7C2FE874248D02368002B85DA0434C1
:103B200083E7029B3BB305F15803271DCDF810B086
:103B3000DDF80C80A346DDF808A01C46059602E0DF
:103B4000B245B04616D038460694FFF787FD06AB5F
:103B5000014600222846AFF3008008F10106043731
:103B60000028EDD0029B5C464345DDF810B0059E71
:103B7000D2D100E05C4648460D21FFF78DFE069B42
:103B80002862AC626B6206205DE70F214846FFF7B2
:103B900083FE0E2102464846FFF7A4FE48462A4A05
:103BA0000F21FFF79FFE07204DE7AB6A9C42B3D180
:103BB000042202990027A318A962EF622A636B63AB
:103BC0002368BB421FDB012301932EE748460D21EA
:103BD000FFF762FE2862069B6B62AC62062032E74A
:103BE0002046FFF76FFC04340646AC632846AFF36B
:103BF000008000283FF426AF484632460F21FFF7E9
:103C000071FE07201FE70846013004EB8000FFF734
:103C100059FC0F2102464846FFF764FE48462A46F3
:103C20003946FFF75FFE07200DE707460D2148469E
:103C3000FFF732FE022F2862CDD12B46069A43F8B9
:103C40002C2F6B62C9E700BF0000000000238FE645
:103C500001238DE602238BE6F0B50446C5B00429A6
:103C60000DD8DFE801F057030C310F00012B4FEAAC
:103C7000124695B266D17219102A40F29F80022036
:103C800045B0F0BD002BFAD1102AF8D82368D80629
:103C900000F1C98022AE3046019200F077F9A06BA6
:103CA000019A0023012505FA03F1114203D00168AE
:103CB000043046F823100133042BF4D1A0633046BE
:103CC00000F05AF90020DBE7032BD8D1150C97B28E
:103CD000EB19102BD3D823681E0700F1B88022AE51
:103CE00030467F0000F026F906EBC5027B1EA56B6F
:103CF00057B12946043A51F8040B013B42F8040F2E
:103D0000581CF8D105EB87053046A56300F0F0F8A4
:103D10000020B5E7002BB2D1A56B97B2201D01267C
:103D200006FA03F1394203F1010302D02968043590
:103D30000160102B00F10400F2D112F400503BD1CD
:103D4000A5639DE7052B9AD17719202F97D80F2EC1
:103D500065D92F46002D48D12A460027002AA06B9E
:103D600071DD00EBC202014644A800EBC6008C38AE
:103D700051F8045B914240F8045FF9D1084697B1CD
:103D80003246102E44A938BF102201EBC202A2F520
:103D9000C4727900043A00EB810150F8045B81425F
:103DA00042F8045FF9D1012B47D00F2EA16332D91D
:103DB00017B102A800F094F8002061E70F2E3FF63B
:103DC0005EAF00272268D1070DD522F00101052B37
:103DD00021600193204652D022F0030240F8482B84
:103DE00000F072F8019B002F51D02268510736D4A1
:103DF000012B3ED00F2E06D822A8019300F06CF8BC
:103E0000019B002FA8D002A8019300F06DF8019B40
:103E1000C6F11002A2E722A800F05AF8C8E7102F56
:103E2000CFD9103FCEE723F01003236004F5E870EC
:103E3000019200F0ABF8019A2CE70431A16322A8AB
:103E400000F03EF8B8E7002F9AD10146ABE723F027
:103E50000803236004F5A87000F06CF83FE72046E3
:103E600022F0040240F8D02B019300F03DF8019BB2
:103E7000BEE722A8019300F027F8019BC8E741F0B4
:103E8000020140F8481B00F027F8019BABE7012B2B
:103E900003D00F2E3FF660AFAEE722A8019300F0EB
:103EA00013F8019B58E700BF00F1340191E8380096
:103EB0009C46A6464CF8045D90E8FF0FE54600BD21
:103EC00090EC210B704700BF80EC210B704700BFC6
:103ED00090EC200B704700BF80EC200B704700BFB8
:103EE000D0EC200B704700BFC0EC200B704700BF28
:103EF000F0EC0201F0EC0211F0EC0221F0EC0231E6
:103F0000F0EC0241F0EC0251F0EC0261F0EC0271D5
:103F1000F0EC0281F0EC0291F0EC02A1F0EC02B1C5
:103F2000F0EC02C1F0EC02D1F0EC02E1F0EC02F1B5
:103F3000704700BFE0EC0201E0EC0211E0EC02216E
:103F4000E0EC0231E0EC0241E0EC0251E0EC026115
:103F5000E0EC0271E0EC0281E0EC0291E0EC02A105
:103F6000E0EC02B1E0EC02C1E0EC02D1E0EC02E1F5
:103F7000E0EC02F1704700BFB0FC0181B0FC0191A0
:103F8000B0FC01A1B0FC01B1704700BFA0FC0181F1
:103F9000A0FC0191A0FC01A1A0FC01B1704700BFF1
:103FA000EC4600B52DE900502DE9FF1F4FF000034E
:103FB0002DE90C0001A9FFF7E7FBDDF840E012B0A6
:103FC000704700BFEC4600B52DE900502DE9FF1FFA
:103FD0004FF000032DE90C0001A9FFF70FFCDDF8FD
:103FE00040E012B0704700BFEC4600B52DE900502C
:103FF0002DE9FF1F4FF000032DE90C0001A9FFF789
:104000001FFCDDF840E012B0704700BFEC4600B581
:104010002DE900502DE9FF1F4FF000032DE90C00A2
:1040200001ABFFF7E1FBDDF840E012B0704700BFE5
:10403000EC4600B52DE900502DE9FF1F4FF00003BD
:104040002DE90C0001AAFFF75BFCDDF840E012B09F
:10405000704700BF037A1BB9437A43B9B020704759
:104060005A1E036802721A020260180E70474268F4
:10407000013B10B4437213680321141D01721A022C
:104080004460026010BC180E704700BF00B585B0D8
:1040900003AA0023009219460C22FFF7E3FB0398C2
:1040A00005B05DF804FB00BFF0E700BF2DE9F04369
:1040B00006460D4685B04FF000082846FFF7CAFFB8
:1040C000B028044600F0B48020F07F0313F0FF0313
:1040D00020D000F0F003802B7AD0902B35D0A02B8D
:1040E00048D0B02B5CD0C02B00F0898000F0F803E2
:1040F000D02B0BD100F00702013242F4002205233D
:1041000001213046FFF7A8FD0028D6D0092005B0D0
:10411000BDE8F0830DF10C0919468700CDF8009039
:104120000D223046FFF79EFBFFB2039B043760066B
:104130004CBFDF1BFF180023CDF8009019460D225D
:1041400030460397FFF7B4FBB7E700F00D030D2BE4
:10415000DCD003AF002300F00F0219460097304671
:10416000FFF780FB0023009719460D223046FFF72A
:104170009FFBA2E7C2434FF47F6302F0070243FABA
:1041800002F2010702EA03024FF0000348BF42F4C3
:10419000804219463046FFF75FFD0028B6D18CE714
:1041A000B1284AD0B22853D0B32800F0818000F063
:1041B000FC03B42BAAD000F007020132012342F421
:1041C000002219463046FFF747FD00289ED174E7CC
:1041D0002846FFF73FFF24022043B0F5004F95D05B
:1041E00004010023A2B219463046FFF735FD00282E
:1041F0008CD114F4004F18BF4FF001085DE7C628BA
:1042000062D0C7286CD000F0F803C02B7BD0C82840
:1042100000F09180C9287FF479AF2846FFF71AFF94
:10422000020300F00F0002F470220130024366E73F
:10423000B8F1000F6ED0002069E72846FFF70AFFAB
:10424000024600283FF462AF10F0F003B9D05DE7FA
:1042500000230DF10C090D221946CDF800903046CF
:10426000FFF700FB2846FFF7F5FE02064FF00204B9
:104270000CD5039B00F07F00A04003442846039325
:10428000FFF7E8FE030604F10704F2D4039B00F0F5
:104290007F0000FA04F203F5017400231444CDF802
:1042A000009019460D2230460394FFF701FB04E706
:1042B0002846FFF7CFFE010300F00F0001F4702144
:1042C000421C01230A437CE72846FFF7C3FE010393
:1042D00000F00F0001F47021421C03230A4370E731
:1042E0002846FFF7B7FE024600283FF40FAF10F054
:1042F000F0037FF40BAF04213046FFF7ADFC00283C
:104300007FF404AFD9E600F00F020132032342F438
:10431000202256E703AC43460E2241460094304625
:10432000FFF7A0FA0094304643460F224146FFF7BC
:10433000BFFA4046EBE62846FFF78CFE00F0F0029D
:1043400000F00F031032013343EA0232D7E600BF18
:1043500010B5C36C84B003205A688DF80C00DC796A
:1043600012020833084601A901928DF80D4002930C
:10437000FFF79CFE04B010BD08B5FFF795FE806CFA
:1043800008BD00BF08B5FFF78FFEC36CD87903EBFB
:104390008000083008BD00BF08B5FEF73BF900BF3C
:1043A00008B5FFF7F9FF00BF10B5431E0A4491425C
:1043B00004D011F8014B03F8014FF8E710BD034694
:1043C0000244934202D003F8011BFAE77047034608
:1043D00011F8012B03F8012B002AF9D1704703468D
:1043E00013F8012B002AFBD1181A0138704700007E
:1043F0004E4F314C4943000057494445312D312C33
:1044000057494445322D310041505A514150000026
:104410002125303264253032642E253032752563F3
:104420002F25303364253032752E253032752563C3
:104430004F2F413D2530366C642F25642C256400B8
:1044400001970181B0B0088400000000019701814C
:10445000B0B008840000000001970181B0B008846A
:104460000000000003970181B0B008840000000044
:1044700008B10181B0B000840000000008B10181E2
:08448000B0B000840000000050
:104488001CD2FF7F0100000028D2FF7F088497809C
:104498006CD2FF7F01000000FCE6FF7F9CFFFF7FDE
:1044A80010E7FF7FA0FFFF7F40E7FF7FA4FFFF7FAC
:1044B80088E7FF7FA8FFFF7FCCE7FF7F01000000B0
:1044C80098F0FF7FB0A9028034F1FF7FB0B0A880D8
:1044D80084F1FF7F0100000090F1FF7FB0B0AA8057
:1044E800C8F1FF7FAE71B28094F2FF7F0100000037
:1044F80090F2FF7FAB3F3880E8F2FF7F01000000B9
:10450800F4F2FF7FB0B0AA8030F3FF7F0100000013
:10451800E8F3FF7FAB0EB28050F4FF7FB0AF0A80A4
:1045280024F7FF7F0100000028F7FF7FAB3F0480DE
:1045380070F9FF7F010000004CFBFF7F00840480BE
:1045480060FBFF7F010000005CFBFF7FB0AD0480D3
:10455800F8FDFF7FB0A8038018FEFF7F0CFFFF7FE8
:104568001CFEFF7F10FFFF7F28FEFF7F0100000079
:10457800FFFFFF55FFFFFF555555FFFFFF55FFFF95
:10458800FF55FFFFFF555555FF55555555555500D6
:104598004E4F314C49432D3100000000000000000F
:1045A8004E00AB1224242424242453544D333220A7
:1045B8005254545920747261636B65722062792079
:1045C800426C617369752C20656E6A6F7920616E23
:1045D800642073656520796F75206F6E2074686537
:1045E800204855422E2E2E200A0D00000A0D506F2D
:1045F800776572696E672075702054580A0D00003F
:104608000A000000013B000000000020D800002044
:104618000000000001020304010203040607080960
:0846280002040608491700080E
:0400000508000000EF
:00000001FF
