:020000040800F2
:10000000C0080020B504000811050008110500080B
:100010001105000811050008110500080000000086
:1000200000000000000000000000000011050008B2
:100030001105000800000000110500081105000866
:100040001105000811050008110500081105000838
:100050001105000811050008110500081105000828
:100060001105000811050008110500081105000818
:100070001105000811050008110500081105000808
:100080001105000811050008110500080000000016
:100090000000000000000000000000001105000842
:1000A00011050008110500081105000811050008D8
:1000B000150700081D0200081105000811050008B9
:1000C00011050008110500081105000811050008B8
:1000D00011050008C90600081105000811050008EF
:1000E00011050008110500081105000800000000B6
:1000F0000000000000000000000000000000000000
:1001000000000000000000000000000000000000EF
:1001100000000000000000001105000811050008A3
:100120005FF808F180B584B000AF0121022001F032
:1001300037FF0021022001F06FFF0523BB80002361
:10014000FB8000233B8100237B8100233B733B1D0D
:100150001946104800F078F801210E4800F07AF9AD
:10016000012201210B4800F00BF91D233B700023F5
:100170007B700123BB700123FB703B46184602F0E5
:10018000CBFD0021034800F0DBF800BF1037BD466F
:1001900080BD00BF0004004080B582B000AF0346C0
:1001A0000A46FB8013467B710021104800F0C8F816
:1001B000FB8819460D4800F015F900210B4800F0A6
:1001C00003F90121094800F0BBF8094B00221A701D
:1001D00000BF074B1B78DBB2002BFAD0002103488D
:1001E00000F0AEF800BF0837BD4680BD00040040F7
:1001F0005803002080B582B000AF786004E0002191
:100200004FF47A70FFF7C8FF7B685A1E7A60002BA4
:10021000F5D100BF0837BD4680BD00BF80B500AF37
:100220000121074800F0ECF80346002B06D001211D
:10023000034800F00FF9034B01221A7000BF80BD84
:10024000000400405803002080B485B000AF7860FF
:1002500039600023FB817B681B88FB817B682E4A09
:10026000934213D07B682D4A93420FD07B68B3F141
:10027000804F0BD07B682A4A934207D07B68294A7B
:10028000934203D07B68284A934208D1FB8923F02C
:100290007003FB813B685A88FB891343FB817B68B1
:1002A000224A93420CD07B68214A934208D0FB89B2
:1002B00023F44073FB813B68DA88FB891343FB819D
:1002C0007B68FA891A803B689A887B689A853B68C4
:1002D0001A887B681A857B680F4A93420FD07B6827
:1002E0000E4A93420BD07B68124A934207D07B6838
:1002F000114A934203D07B68104A934204D13B6871
:100300001B7A9AB27B681A867B6801229A8200BFA8
:100310001437BD4680BC7047002C014000340140BA
:100320000004004000080040000C004000100040A5
:1003300000140040004001400044014000480140DA
:1003400080B483B000AF78600B46FB70FB78002B65
:1003500008D07B681B889BB243F001039AB27B688C
:100360001A8007E07B681B889BB223F001039AB2D6
:100370007B681A8000BF0C37BD4680BC704700BF49
:1003800080B483B000AF78600B467B8013467B70EF
:100390007B78002B08D07B689B899AB27B881343BB
:1003A0009AB27B689A8109E07B689B899AB27B88C4
:1003B000DB439BB213409AB27B689A8100BF0C3733
:1003C000BD4680BC704700BF80B483B000AF78608A
:1003D0000B467B807B687A889A8400BF0C37BD46C9
:1003E00080BC704780B483B000AF78600B467B80E0
:1003F0007B687A889A8500BF0C37BD4680BC704701
:1004000080B485B000AF78600B467B800023FB731F
:100410000023BB8100237B817B681B8A9AB27B8887
:100420001340BB817B689B899AB27B8813407B8198
:10043000BB89002B05D07B89002B02D00123FB73E5
:1004400001E00023FB73FB7B18461437BD4680BCDC
:10045000704700BF80B483B000AF78600B467B80EC
:100460007B88DB439AB27B681A8200BF0C37BD469B
:1004700080BC704780B582B000AF786010E000BFEC
:1004800040210B4802F04AFA0346002BF8D07B6863
:100490005A1C7A601B789BB21946054802F01CFA78
:1004A0007B681B78002BEAD100BF0837BD4680BDB2
:1004B0000048004080B582B000AF104B7B60104B0D
:1004C0003B6007E03B681A1D3A607A68111D79604D
:1004D00012681A603B680B4A9342F3D30A480B49EF
:1004E0004FF000028842B8BF40F8042BFADB00F05E
:1004F000E3F900BF0837BD4680BD00BFFC590008C6
:10050000000000204001002040010020BC04002029
:1005100080B400AFFEE700BF80B489B000AF786060
:1005200039600023FB6100233B610023BB61002392
:10053000FB6000237B610023BB603B68DB7803F03A
:100540000F03FB613B68DB7803F01003002B05D041
:100550003B689B781A46FB691343FB613B681B8829
:10056000DBB2002B44D07B681B687B610023BB613E
:1005700038E00122BB6902FA03F3FB603B681B8889
:100580001A46FB6813403B613A69FB689A4226D1E0
:10059000BB699B00FB600F22FB6802FA03F3BB60A0
:1005A000BB68DB437A6913407B61FA69FB6802FA36
:1005B00003F37A6913437B613B68DB78282B05D111
:1005C0000122BB699A407B685A6108E03B68DB788E
:1005D000482B04D10122BB699A407B681A61BB6930
:1005E0000133BB61BB69072BC3D97B687A691A6089
:1005F0003B681B88FF2B46D97B685B687B610023C7
:10060000BB613AE0BB690833012202FA03F3FB60E5
:100610003B681B881A46FB6813403B613A69FB68DC
:100620009A4227D1BB699B00FB600F22FB6802FA4C
:1006300003F3BB60BB68DB437A6913407B61FA69F3
:10064000FB6802FA03F37A6913437B613B68DB784A
:10065000282B05D1BB69083301229A407B685A6177
:100660003B68DB78482B05D1BB69083301229A40EF
:100670007B681A61BB690133BB61BB69072BC1D9B8
:100680007B687A695A6000BF2437BD4680BC7047DA
:1006900080B483B000AF78600B467B807A887B683B
:1006A0001A6100BF0C37BD4680BC704780B483B070
:1006B00000AF78600B467B807A887B685A6100BF08
:1006C0000C37BD4680BC704780B500AF40F2255165
:1006D0000F4802F03FF90346002B08D00C4802F007
:1006E0000DF90346DBB2184600F09EFC0EE04FF415
:1006F0005871074802F02EF90346002B03D0044836
:1007000002F0FCF802E0024802F0F8F800BF80BDF9
:100710000038014080B500AF01214FF08040FFF765
:100720006FFE0346002B78D001214FF08040FFF789
:1007300091FE01F0EDF80346002B02D001F0DEF847
:100740004DE04E4B1B6801334C4A1360B3F5967F66
:1007500022D34A4B00221A60494B1B681B78002B9E
:1007600017D0474B1B685A1C45490A601B78FF2B62
:1007700007D180214348FFF799FF434B01221A70AC
:100780000AE080213F48FFF783FF3F4B00221A70A9
:1007900002E03B4B3D4A1A603D4B01221A703A4B36
:1007A0001B78DBB2002B1AD03A4B1B78002B16D0EB
:1007B000394B1B78002B09D0374B00221A704FF4AD
:1007C000004319462F48FFF763FF08E0324B012230
:1007D0001A704FF4004319462A48FFF767FF2F4B62
:1007E0001B6801332D4A13602C4B1B6840F2E14219
:1007F000934212D92A4B1B780133DAB2284B1A7074
:10080000274B1B78092B02D9254B00221A70234B4A
:1008100000221A60234B01221A70234B5B889BB283
:1008200040F2DC5293421AD9204B1B889BB2013311
:100830009AB21E4B1A801D4B1B889BB241F2883224
:10084000934219D91A4B01221A704FF480710D4846
:10085000FFF71EFF80210B48FFF71AFF0CE0144B37
:100860001B78DBB2002B04D04FF480511148FFF706
:100870000FFF0E4B00221A8000BF80BD68030020CE
:10088000BC000020000C01404101002000000020BD
:10089000440100204C0100204B01002050010020A9
:1008A0004E0100205401002040030020460100209A
:1008B0004801002000080140B0B58CB004AF00F042
:1008C000DDFD00F0D1FD00F007FEFFF72BFC00F08E
:1008D00065FA40F6C41000F0A5FF4FF48071A048FF
:1008E000FFF7D6FE0C219F4801F0F6FF9E4A9F4B72
:1008F00003CB106051601B8813819B48FFF7BAFD42
:100900000022FF21022001F013FC0022FF2103201E
:1009100001F00EFC0022FF21042001F009FC01F08F
:10092000E5FC934801F028FC012200216D2001F034
:10093000FFFB01220021712001F0FAFB0022FF21C0
:10094000022001F0F5FB0022FF21752001F0F0FBF1
:100950000022FF21762001F0EBFB0022FF2177200F
:1009600001F0E6FB01222021122001F0E1FB01222F
:100970000021132001F0DCFB01220021122001F0F4
:10098000D7FB012280210F2001F0D2FB794B764A60
:100990001A60794B00221A70784B01221A7000F00D
:1009A00091FF0123FB774FF4005319467448FFF77A
:1009B0006FFE01221221712001F0BAFB00F016FF38
:1009C0006D4B00221A70684A6E4B144607CB2060AC
:1009D0006160A2606448FFF74DFD6B4B1B78002BF4
:1009E000FBD03B46184600F0C7F9FB7C1C46BB7C9D
:1009F0001D467B7C1A46654B5B889BB21946644B4F
:100A00001B781846634B1B78039302900191009268
:100A10002B4622466049544804F0BEF95248FFF77D
:100A200029FD594B00221A70BB7C03F00103DBB295
:100A3000002B2BD0574B1B78002B35D14FF48071F6
:100A40004748FFF733FE554B554A1A6000F080FEC9
:100A50004FF4005319464A48FFF71AFE444801F084
:100A60008BFB01221221712001F062FB404801F052
:100A700083FB01220521722001F05AFB01F040FCAA
:100A800000F0B4FE434B01221A700DE04FF4807168
:100A90003348FFF7FDFD00F05BFE01F01DFC00F0A8
:100AA000A5FE3C4B00221A707B7C5B08DBB21A4629
:100AB0003C4B9B5C012B4ED1364B1B78002B4AD113
:100AC000334B1B78002B39D1314B01221A70264A47
:100AD000354B03CB106051601B8813812248FFF710
:100AE000C9FC00F035FE01220A21722001F020FB32
:100AF00001F006FC3B46184600F03EF900212B4869
:100B000001F082FE4FF4005319461D48FFF7C0FD67
:100B10006C4607F1100393E8070084E807003B46A2
:100B20000FCB00F067FF0121204801F06DFE00F0BF
:100B30000FFE01F0D1FB00F059FE0FE00A4A1C4BFA
:100B400003CB1060516019889B781181937206481D
:100B5000FFF790FC02E00E4B00221A703DE700BF49
:100B6000000C0140004800406C030020345600088F
:100B70000040D943640300204301002044010020C9
:100B8000001001404056000854010020400300209E
:100B90004D0100204C0100204C560008BC000020F4
:100BA0000000002034000020845600080038014076
:100BB0009056000880B582B000AF0346FB7100BFBD
:100BC00040210C4801F0AAFE0346002BF8D0FB7927
:100BD0009BB21946074801F07FFE00BF402105483F
:100BE00001F09CFE0346002BF8D000BF0837BD463D
:100BF00080BD00BF0038014080B584B000AF3A60CE
:100C00001A460346FB710B46BB711346BB80BB887B
:100C1000B979F8793A6800F04DF80346BB81B52000
:100C2000FFF7C8FF6220FFF7C5FFFB791846FFF703
:100C3000C1FFBB791846FFF7BDFFBB88DBB2184682
:100C4000FFF7B8FFBB881B0A9BB2DBB21846FFF761
:100C5000B1FF0023FB8109E0FB893A6813441B784C
:100C60001846FFF7A7FFFB890133FB81FA89BB8890
:100C70009A42F1D33B7B1846FFF79CFF7B7B1846DB
:100C8000FFF798FF00BF1037BD4680BD80B582B02A
:100C900000AF78607B6898787B68D9787B689A1D0C
:100CA0007B689B889BB2FFF7A7FF00BF0837BD4654
:100CB00080BD00BF80B485B000AF3A601A460346DD
:100CC000FB710B46BB711346BB8000233B720023B4
:100CD0007B723A7AFB791344DBB23B727A7A3B7AC5
:100CE0001344DBB27B723A7ABB791344DBB23B72BA
:100CF0007A7A3B7A1344DBB27B723A7ABB88DBB2F6
:100D00001344DBB23B727A7A3B7A1344DBB27B72D8
:100D10003A7ABB881B0A9BB2DBB21344DBB23B724C
:100D20007A7A3B7A1344DBB27B720023FB730FE0C9
:100D30003A7AFB7B39680B441B781344DBB23B7275
:100D40007A7A3B7A1344DBB27B72FB7B0133FB7311
:100D5000FB7B9BB2BA889A42EAD83B89BB810023CD
:100D60003A7B62F307037A7B62F30F23184614374A
:100D7000BD4680BC704700BF80B582B000AF7860D0
:100D800072B61C220449786803F0F2FF62B600BF15
:100D90000837BD4680BD00BF3404002080B5FEB0DA
:100DA00000AF07F5CA7362220021184603F0EBFF7B
:100DB000B52387F89431622387F89531062387F8A5
:100DC0009631042387F897310423A7F898314FF61A
:100DD000FF73A7F89A31012387F89C3101214FF462
:100DE000164000F0B3FA0A20FFF704FA07F5CA73B9
:100DF0001846FFF74BFF4FF44870FFF7FBF901214E
:100E00004FF4165000F0A2FA0A20FFF7F3F907F5A5
:100E1000CA731846FFF73AFF4FF44870FFF7EAF934
:100E200007F5987362220021184603F0ACFFB52342
:100E300087F83031622387F83131062387F8323161
:100E40001423A7F83431012387F83631002343F403
:100E50000C63A7F83A310023A7F83C31002343F094
:100E60007F4343F47F0343F41643A7F83E31002346
:100E7000A7F840310123A7F842310123A7F84431F4
:100E800007F598731846FFF701FF01214FF416404C
:100E900000F05CFA0A20FFF7ADF907F1CC03184621
:100EA00062231A46002103F06EFF07F1CC03B5223E
:100EB0001A7007F1CC0362225A7007F1CC030622A4
:100EC0009A7007F1CC031122DA7007F1CC030222E9
:100ED0009A8007F1CC0308229A7107F1CC0304220F
:100EE000DA7107F1CC031846FFF7D0FE00F0D0F915
:100EF0000346002BF5D007F16803184662231A4613
:100F0000002103F040FF07F16803B5221A7007F1D2
:100F1000680362225A7007F1680306229A7007F18B
:100F200068030122DA7007F1680303229A8007F14F
:100F3000680301229A7107F168030222DA7107F14E
:100F4000680301221A7207F168031846FFF79EFE34
:100F500000F09EF90346002BF5D007F16803062246
:100F6000DA7107F168031846FFF790FE00F090F978
:100F70000346002BF5D007F168032122DA7107F14F
:100F800068031846FFF782FE00F082F90346002B43
:100F9000F5D03B1D184662231A46002103F0F3FEEC
:100FA0003B1DB5221A703B1D62225A703B1D062262
:100FB0009A703B1D2422DA703B1D24229A803B1D2F
:100FC00040F2FF32DA803B1D07221A723B1D0222DB
:100FD0005A723A1D002343F41C5343F01003D3818B
:100FE000002313823B1D05229A743B1D19229A820D
:100FF0003B1D1922DA823B1D64221A833B1D4FF4EC
:1010000096725A833B1D02225A773B1D1846FFF702
:101010003DFE00F03DF90346002BF6D000BF07F57A
:10102000FC77BD4680BD00BF80B582B000AF0346EF
:10103000FB71304B1B78002B24D12F4B1B78002BDE
:101040000AD1FB79B52B07D12B4B01221A702B4B00
:101050001B68FA791A7048E0274B1B78012B0DD1D9
:10106000FB79622B0AD1234B01221A70224B0222F8
:101070001A70224B1B68FA795A7036E01E4B002218
:101080001A7032E01D4B1B681B4A12781344FA7920
:101090001A70194B1B78042B16D9174B1B78013B80
:1010A0001A46164B1B689B889BB208339A420BD199
:1010B000124B1B68184600F023F80F4B00221A70E1
:1010C0000C4B00221A7010E00B4B1B780133DAB284
:1010D000094B1A70084B1B78632B06D9064B00226C
:1010E0001A70044B00221A70FFE700BF0837BD4694
:1010F00080BD00BF5B0100205C010020C00000201B
:1011000080B584B000AF78607B6898787B68D978C8
:101110007B689A1D7B689B889BB2FFF7CBFD0346DB
:101120003B817B6806337A68928892B21344FB60F5
:101130003A7AFB681B789A4204D17A7AFB685B782A
:101140009A4206D04F4B1B8B01339AB24D4B1A83F8
:1011500093E07B689B78012B32D17B68DB78072B8F
:101160002ED1484BDB8A01339AB2464BDA827B6838
:101170009A7E444B1A757B68D3F82230414A13603B
:101180007B68D3F81E303F4A53607B68D3F82A301F
:101190003C4A93607B689A7B3A4BDA747B68DA7BD3
:1011A000384B9A747B681A7C364B5A747B685A7F2A
:1011B000344B1A747B68D3F84230324AD3605CE017
:1011C0007B689B78012B19D17B68DB78022B15D1CA
:1011D0002C4BDB8A01339AB22A4BDA827B68D3F834
:1011E0000E30284A13607B68D3F80A30254A5360D2
:1011F0007B68D3F81630234A93603EE07B689B7887
:10120000012B0DD17B68DB78062B09D17B681A7C1A
:101210001C4B1A757B6893F835201A4B1A742CE016
:101220007B689B78012B10D17B68DB78212B0CD15C
:101230007B689A7D134BDA747B68DA7D114B9A7464
:101240007B681A7E0F4B5A7417E07B689B78052BDE
:1012500007D17B68DB78012B03D10B4B01221A707D
:101260000BE07B689B78052B07D17B68DB78002B34
:1012700003D1064B01221A70FFE700BF1037BD46AD
:1012800080BD00BF34040020590100205A01002015
:1012900080B582B000AF124B00221A70114B0022B1
:1012A0001A70C823FB7107E00120FEF7A3FFFB794A
:1012B0005A1EFA71002B0AD0094B1B78DBB2002BA7
:1012C00006D1084B1B78DBB2002BEDD000E000BF4D
:1012D000034B1B78DBB218460837BD4680BD00BF04
:1012E000590100205A01002080B483B000AF0346AA
:1012F000FB71084997F907305B09FA7902F01F0280
:10130000012000FA02F241F8232000BF0C37BD464D
:1013100080BC704700E100E080B483B000AF0346BA
:10132000FB71094997F907305B09FA7902F01F024E
:10133000012000FA02F2203341F8232000BF0C37CD
:10134000BD4680BC704700BF00E100E080B584B0BE
:1013500000AF78600B46FB702520FFF7DDFF002211
:1013600040F22551264801F06FFA40F225512448F9
:1013700001F04AFB4FF45871214801F045FB002170
:101380001F4801F041FA01214FF4804000F0EAFDCE
:101390001C4A7B6813601B4B00229A80194B002269
:1013A000DA80184B00221A81164B00229A81154BC5
:1013B0000C225A811349124801F06CF925233B7322
:1013C0000F237B730223BB730123FB7307F10C0311
:1013D000184601F0A1FC0121094801F015FAFB783B
:1013E000002B08D0012240F22551054801F02CFACB
:1013F0002520FFF779FF00BF1037BD4680BD00BF35
:10140000003801407C04002080B500AF2720FFF7A2
:1014100083FF0021124801F0F7F901214FF48020E9
:1014200000F0BEFD0F4B4FF496421A600D4B0022A8
:101430009A800C4B0022DA800A4B00221A81094B59
:1014400000229A81074B0C225A810649044801F078
:1014500021F90121024801F0D7F900BF80BD00BF8A
:10146000004800407C04002080B500AF00214FF010
:10147000006001F0B3FC00BF80BD00BF80B582B04A
:1014800000AF00F07FFB4FF4803000F0ADFB00F0C8
:10149000D9FB0346FB71FB79012B19D1102001F018
:1014A0000DFB022001F0EEFA902000F01DFC4FF43D
:1014B000A06000F051FC4FF4806000F031FC01208E
:1014C00000F0E8FB00BF00F001FC0346042BFAD15A
:1014D00000BF0837BD4680BD80B500AF01210420A4
:1014E00000F040FD904B4FF480521A808E4B10223A
:1014F000DA708D4B01229A708B498C48FFF70CF8FB
:101500000121082000F02EFD874B4FF4C0721A8095
:10151000854B1022DA70844B01229A7082498448EC
:10152000FEF7FAFF4FF4004343F400539AB27E4BA8
:101530001A807D4B1822DA707B4B01229A707A490F
:101540007B48FEF7E9FF784B4FF480421A80764BD8
:101550000422DA7074497648FEF7DEFF012110207C
:1015600000F000FD4FF400526F4B1A806E4B1022BA
:10157000DA706D4B01229A706B496E48FEF7CCFF12
:1015800000F0E6F8684B4FF400721A80664B1822A0
:10159000DA70654B01229A7063496448FEF7BCFF1C
:1015A000614B4FF480621A805F4B0422DA705E490F
:1015B0005E48FEF7B1FF00214FF41650FFF7C6FE5C
:1015C000594B4FF480621A80574B1822DA70564BF1
:1015D00001229A7054495648FEF79EFF524B4FF431
:1015E00000621A80504B0422DA704F495048FEF7CF
:1015F00093FFFFF709FF0121012000F095FC4E4801
:1016000001F074FA4D4B0222DA604C4B00229A60D2
:101610004A4B00229A624A4A484B5A600121494883
:1016200000F0E6FE454B4FF48062DA61434B8022C6
:101630005A61424B20221A62404B434A1A603F4B88
:101640004FF480729A613D4B00221A613B4B4FF47C
:1016500000525A623949384801F004FB01213648EA
:1016600001F03EFB304B0022DA702F4B40221A80F3
:101670002D492E48FEF750FF2B4B0022DA702A4BE3
:1016800020221A8028492948FEF746FF002000F052
:101690007FFB01214FF4007000F064FC2B4B002213
:1016A0001A602A4B01221A71284B01225A71274BCA
:1016B0004FF460229A60254B0022DA60234B02220D
:1016C0001A7422491F4800F025FE03230122052138
:1016D0001C4800F015FF032302220621194800F0E0
:1016E0000FFF0121174800F083FE0121154800F08B
:1016F00063FE144800F098FE00BF124800F0A4FEFC
:101700000346002BF9D10F4800F0B6FE00BF0D488C
:1017100000F0C2FE0346002BF9D10121094800F078
:10172000D3FE00BF80BD00BF64040020000801405C
:10173000000C014000100140080002408C04002011
:1017400040030020002401404C24014050040020AC
:1017500080B500AF4FF40042204B1A801F4B182277
:10176000DA701E4B01229A701C491D48FEF7D4FE08
:1017700001214FF4804000F013FC1A4B00221A8024
:10178000184B4FF482725A80164B4FF400629A80C5
:10179000144B0022DA80134B00221A81114B1822BD
:1017A0009A81104B0022DA810E4B07221A820D49D2
:1017B0000D4801F063FB01210B4801F0DDFB012125
:1017C000094801F09FFB074B4FF482725A8005498C
:1017D000054801F053FB00BF80BD00BF640400203A
:1017E000000C0140680400200038004080B500AFC4
:1017F000094801F009FB4FF40042084B1A80074BDF
:101800001022DA70054B01229A7004490448FEF751
:1018100083FE00BF80BD00BF00380040640400208C
:10182000000C014080B586B000AF78600121012036
:1018300000F0B6FB0021012000F0EEFB0523BB8188
:101840000023FB81194A7B6892FBF3F39BB2013BB7
:101850009BB23B8200237B8200233B7507F10C0384
:1018600019464FF08040FEF7EFFC01214FF0804019
:10187000FEF7F0FD012201214FF08040FEF780FDD0
:101880001C233B7200237B720123BB720123FB727A
:1018900007F10803184601F03FFA01214FF080409C
:1018A000FEF74EFD00BF1837BD4680BD40420F0019
:1018B00080B483B000AF78607B6818460C37BD46B3
:1018C00080BC704780B584B004AF084B03933023CD
:1018D0000293074B019301230093064B0022002142
:1018E000054801F049FE00BFBD4680BD0057000815
:1018F00010570008F8560008C401002080B500AF5A
:10190000024801F083FF00BF80BD00BFC40100207A
:1019100080B400AF034B93F86C311846BD4680BCD1
:10192000704700BFC401002080B487B000AFF860EA
:10193000B9607A603B60FB68002B01DD012300E0A9
:101940000023FB75FB7D002B02D1FB685B42FB6033
:10195000FB68244A82FB03129214DB17D31A5AB293
:10196000BB681A70BB6893F900301A461E4B03FB24
:1019700002F3FA681344FB60FA6813461B019B1AD2
:101980009B001A4A82FB03121213DB17D31AFB6067
:10199000FB68174A82FB03125211DB17D31ADAB223
:1019A0007B681A707B681B781A4692001A44D20032
:1019B000D31A9B00DAB2FB68DBB21344DAB23B689D
:1019C0001A70FB7D002B08D1BB6893F90030DBB2A5
:1019D0005B42DBB25AB2BB681A7000BF1C37BD460F
:1019E00080BC704783DE1B43C0BDF0FFAD8BDB685E
:1019F0001F85EB5184B0F0B5B7B00CAF07F1C00450
:101A000084E80F004A4A07F124031268114619803E
:101A10000233120C1A70D7F8C030464A82FB031208
:101A20009210DB17D01A07F1200307F1210207F10A
:101A30002301FFF779FFD7F8C4303E4A82FB031237
:101A40009210DB17D01A07F11E0307F11F0207F1EE
:101A50002201FFF769FF384B1B8801339AB2364BDE
:101A60001A8097F9233083EAE376A6EBE37697F8BA
:101A700021309E4697F820307B6197F92330002B68
:101A800001DD4E2100E0532197F824303B6197F9A6
:101A9000223083EAE370A0EBE370FB7FFB60BB7F47
:101AA000BB6097F92230002B01DD452400E057246C
:101AB00097F825307B60D7F8C830204A82FB035264
:101AC0009211DB17D31A4FF44D6202FB03F31B4A4A
:101AD00082FB03529211DB17D21A174B1B883B6013
:101AE00097F8D03007F128050A933B6809930892CC
:101AF0007B6807930694BB680593FB680493039087
:101B00003B69029301917B690093734632460C490D
:101B1000284603F041F907F128031946094801F066
:101B2000DFFC00BFAC37BD46BDE8F04004B07047F5
:101B3000185700086766666638030020D34D6210A8
:101B40001C570008C401002080B582B000AF786047
:101B500039607B68012B07D13B684FF6FF729342D7
:101B600002D10348FFF7A4FE00BF0837BD4680BD81
:101B7000C401002080B500AF4FF6FF710120FFF7D0
:101B8000E3FF80BD80B400AF154A154B1B6843F0DE
:101B9000010313601249124B5A68124B13404B60F9
:101BA0000F4A0F4B1B6823F0847323F480331360B8
:101BB0000B4A0B4B1B6823F480231360084A084B25
:101BC0005B6823F4FE035360054B4FF41F029A60D9
:101BD000034B0022DA6200BFBD4680BC704700BFE5
:101BE000001002400000FFF880B483B000AF7860BE
:101BF000134A134B1B6823F480331360104A104BB5
:101C00001B6823F4802313607B68B3F5803F03D007
:101C1000B3F5802F07D00DE0094A094B1B6843F448
:101C20008033136006E0064A054B1B6843F4A0238B
:101C3000136000BF00BF0C37BD4680BC704700BFBB
:101C40000010024080B582B000AF00233B6000234B
:101C5000FB710023BB71312000F0FCF90346BB711E
:101C60003B6801333B603B68B3F5A06F02D0BB79A2
:101C7000002BF0D0312000F0EDF90346002B02D00C
:101C80000123FB7101E00023FB71FB791846083743
:101C9000BD4680BD80B485B000AF78600023FB6096
:101CA000094B5B68FB60FB6823F00303FB60FA6889
:101CB0007B681343FB60044AFB68536000BF143722
:101CC000BD4680BC704700BF0010024080B400AF2A
:101CD000044B5B68DBB203F00C03DBB21846BD4675
:101CE00080BC70470010024080B485B000AF7860BF
:101CF0000023FB60094B5B68FB60FB6823F0F0038B
:101D0000FB60FA687B681343FB60044AFB6853601E
:101D100000BF1437BD4680BC704700BF00100240B2
:101D200080B485B000AF78600023FB60094B5B682E
:101D3000FB60FB6823F4E063FB60FA687B68134395
:101D4000FB60044AFB68536000BF1437BD4680BC8B
:101D5000704700BF0010024080B485B000AF7860CB
:101D60000023FB60094B5B68FB60FB6823F4605356
:101D7000FB607B68DB00FA681343FB60034AFB6887
:101D8000536000BF1437BD4680BC7047001002404E
:101D900080B485B000AF78600023FB60094B5B68BE
:101DA000FB60FB6823F44043FB60FA687B681343E5
:101DB000FB60044AFB68536000BF1437BD4680BC1B
:101DC000704700BF0010024080B489B000AF786057
:101DD0000023FB610023BB6100237B6100233B6187
:101DE0000023FB604A4B5B6803F00C03FB61FB695B
:101DF000042B07D0082B09D0002B2FD17B68454A34
:101E00001A602FE07B68444A1A602BE0404B5B6805
:101E100003F47013BB613E4B5B6803F480337B615A
:101E2000BB699B0C0233BB617B69002B06D1BB698C
:101E30003A4A02FB03F27B681A6013E0344BDB6A18
:101E400003F00F030133FB60334AFB68B2FBF3F38B
:101E5000BA6902FB03F27B681A6003E07B682D4AD3
:101E60001A6000BF2A4B5B6803F0F003FB61FB695B
:101E70001B09FB612A4AFB6913441B78DBB23B61F7
:101E80007B681A683B69DA407B685A60204B5B6864
:101E900003F4E063FB61FB691B0AFB61204AFB69F9
:101EA00013441B78DBB23B617B685A683B69DA40BC
:101EB0007B689A60164B5B6803F46053FB61FB69B7
:101EC000DB0AFB61164AFB6913441B78DBB23B61FA
:101ED0007B685A683B69DA407B68DA600C4B5B6868
:101EE00003F44043FB61FB699B0BFB610D4AFB69FB
:101EF00013441B78DBB23B617B68DA683B69B2FB59
:101F0000F3F27B681A6100BF2437BD4680BC70477E
:101F10000010024000127A0000366E0100093D00F8
:101F2000C4000020D400002080B483B000AF7860EB
:101F30000B46FB70FB78002B06D00949084B5A6909
:101F40007B6813434B6106E00549054B5A697B6882
:101F5000DB4313404B6100BF0C37BD4680BC70476C
:101F60000010024080B483B000AF78600B46FB7075
:101F7000FB78002B06D00949084B9A697B6813430C
:101F80008B6106E00549054B9A697B68DB4313408A
:101F90008B6100BF0C37BD4680BC7047001002400B
:101FA00080B483B000AF78600B46FB70FB78002BE9
:101FB00006D00949084BDA697B681343CB6106E018
:101FC0000549054BDA697B68DB431340CB6100BFF1
:101FD0000C37BD4680BC70470010024080B483B00F
:101FE00000AF78600B46FB70FB78002B06D00949E8
:101FF000084BDA687B681343CB6006E00549054B64
:10200000DA687B68DB431340CB6000BF0C37BD460A
:1020100080BC70470010024080B483B000AF78608D
:102020000B46FB70FB78002B06D00949084B1A6958
:102030007B6813430B6106E00549054B1A697B6811
:10204000DB4313400B6100BF0C37BD4680BC7047BB
:102050000010024080B487B000AF0346FB7100233C
:10206000FB6000237B610023FB74FB795B09DBB21F
:10207000FB60FB68012B03D1124B1B687B6109E0FD
:10208000FB68022B03D10F4B1B6A7B6102E00D4BF7
:102090005B6A7B61FB7903F01F03FB607A69FB6875
:1020A00022FA03F303F00103002B02D00123FB7497
:1020B00001E00023FB74FB7C18461C37BD4680BC46
:1020C000704700BF0010024080B582B000AF0346E9
:1020D000FB804FF4005319461348FEF7E7FA00BFA0
:1020E0000221124800F068FF0346002BF8D0FB885D
:1020F00019460E4800F026FF00BF01210B4800F0F2
:102100005BFF0346002BF8D04FF4005319460648F6
:10211000FEF7BEFA054800F023FF0346DBB218467F
:102120000837BD4680BD00BF0010014000380040A8
:1021300080B582B000AF0346FB710B46BB711346FE
:102140007B717B79002B06D08022FB791343DBB2B5
:102150001B021BB202E0FB791B021BB2BA7912B25E
:1021600013431BB29BB21846FFF7AEFF0346184657
:102170000837BD4680BD00BF90B585B000AF786020
:102180004F4B19464F4801F04FFD034679681846FA
:1021900001F096FC03464C49184601F043FE034605
:1021A000002B01D0012300E00023FB73444B1946B0
:1021B000444801F039FD03467968184601F080FC77
:1021C00003464249184601F02FFD0346184601F028
:1021D0003DFE0346DBB2A3F11801FA7B13469200E1
:1021E0009B1ADB00CA18FB7B013392FBF3F3BB7332
:1021F00003237B73324C7B7B184601F00DFC0346B6
:102200001946204601F010FD03461C46FB7B0133B6
:10221000184601F001FC03461946204601F050FC27
:1022200003461946786801F0FFFC03461C46BB7B59
:10223000184601F0F1FB03461946204601F036FB33
:1022400003462349184601F031FB0346214918464D
:1022500001F036FC0346184601F0F8FD03467B8189
:1022600001220A217220FFF763FF97F90E3003F075
:102270001F035BB243F040035AB2FB7B5B015BB2CE
:1022800003F020035BB213435BB2DBB201221946B9
:102290007520FFF74DFF7B891B0A9BB2DBB2012241
:1022A00019467620FFF744FF7B89DBB201221946ED
:1022B0007720FFF73DFF00BF1437BD4690BD00BF3C
:1022C0000000D0410000F0410000F0430000204138
:1022D0000000C04100007A4780B500AF01224021D4
:1022E0000720FFF725FF00BF80BD00BF80B500AF0E
:1022F000012280210720FFF71BFF00BF80BD00BF28
:1023000080B500AF012248210720FFF711FF00BF71
:1023100080BD00BF80B485B000AF78603960002315
:10232000FB600023FB727B685B68FB60FB6823F447
:10233000702323F48073FB603B681A683B681B7949
:102340001B021343FA681343FB607B68FA685A6008
:102350007B689B68FB60FA68164B1340FB603B6828
:10236000DA683B689B681A433B685B795B00134300
:10237000FA681343FB607B68FA689A607B68DB6AE3
:10238000FB60FB6823F47003FB603B681B7C013B34
:10239000DAB2FB7A1343FB72FB7A1B05FA6813432C
:1023A000FB607B68FA68DA6200BF1437BD4680BC08
:1023B000704700BFFDF7F1FF80B483B000AF7860D5
:1023C0000B46FB70FB78002B06D07B689B6843F0C4
:1023D00001027B689A6005E07B689B6823F001023C
:1023E0007B689A6000BF0C37BD4680BC704700BF59
:1023F00080B483B000AF78600B46FB70FB78002B95
:1024000006D07B689B6843F480727B689A6005E025
:102410007B689B6823F480727B689A6000BF0C37EE
:10242000BD4680BC704700BF80B483B000AF786009
:102430007B689B6843F008027B689A6000BF0C379A
:10244000BD4680BC704700BF80B485B000AF7860E7
:102450000023FB737B689B6803F00803002B02D00A
:102460000123FB7301E00023FB73FB7B1846143749
:10247000BD4680BC704700BF80B483B000AF7860B9
:102480007B689B6843F004027B689A6000BF0C374E
:10249000BD4680BC704700BF80B485B000AF786097
:1024A0000023FB737B689B6803F00403002B02D0BE
:1024B0000123FB7301E00023FB73FB7B18461437F9
:1024C000BD4680BC704700BF80B483B000AF786069
:1024D0000B46FB70FB78002B06D07B689B6843F4AF
:1024E000A0027B689A6005E07B689B6823F4A002E9
:1024F0007B689A6000BF0C37BD4680BC704700BF48
:1025000080B485B000AF7860084611461A4603468D
:10251000FB700B46BB7013467B700023FB600023EF
:10252000BB60FB78092B23D97B68DB68FB60FB78F9
:10253000A3F10A0213465B001344072202FA03F3D5
:10254000BB60BB68DB43FA681340FB607978FB78BB
:10255000A3F10A0213465B00134401FA03F3BB60C4
:10256000FA68BB681343FB607B68FA68DA601EE0B8
:102570007B681B69FB60FA7813465B0013440722F3
:1025800002FA03F3BB60BB68DB43FA681340FB60ED
:102590007978FA7813465B00134401FA03F3BB60C1
:1025A000FA68BB681343FB607B68FA681A61BB7802
:1025B000062B21D87B685B6BFB60BB785A1E1346E9
:1025C0009B0013441F2202FA03F3BB60BB68DB438A
:1025D000FA681340FB60F978BB785A1E13469B00DB
:1025E000134401FA03F3BB60FA68BB681343FB6052
:1025F0007B68FA685A6347E0BB780C2B21D87B686C
:102600001B6BFB60BB78DA1F13469B0013441F2231
:1026100002FA03F3BB60BB68DB43FA681340FB605C
:10262000F978BB78DA1F13469B00134401FA03F3D1
:10263000BB60FA68BB681343FB607B68FA681A6387
:1026400022E07B68DB6AFB60BB78A3F10D021346D6
:102650009B0013441F2202FA03F3BB60BB68DB43F9
:10266000FA681340FB60F978BB78A3F10D021346BA
:102670009B00134401FA03F3BB60FA68BB68134381
:10268000FB607B68FA68DA6200BF1437BD4680BC25
:10269000704700BF80B58CB000AF78603960002310
:1026A000FB620023BB6200237B6200233B620023AA
:1026B000FB617B68FB617B681B8A9BB2FB62FA6AE9
:1026C0004CF6FF731340FB623B68DB881A46FB6ADB
:1026D0001343FB62FB6A9AB27B681A827B689B8910
:1026E0009BB2FB62FA6A4EF6F3131340FB623B683F
:1026F0009A883B681B8913439AB23B685B891343F2
:102700009BB21A46FB6A1343FB62FB6A9AB27B6870
:102710009A817B689B8A9BB2FB62FA6A4FF6FF4301
:102720001340FB623B689B891A46FB6A1343FB62BA
:10273000FB6A9AB27B689A8207F108031846FFF792
:1027400043FBFB692E4A934202D17B69BB6201E0E5
:102750003B69BB627B689B899BB21BB2002B0CDA86
:10276000BA6A13469B0013449A001A443B681B68DC
:102770005B00B2FBF3F37B620BE0BA6A13469B008B
:1027800013449A001A443B681B689B00B2FBF3F3A6
:102790007B627B6A1B4AA2FB03235B091B01FB6272
:1027A000FB6A1B09642202FB03F37A6AD31A3B62B9
:1027B0007B689B899BB21BB2002B0CDA3B6ADB0067
:1027C0003233104AA2FB03235B0903F00703FA6AC2
:1027D0001343FB620BE03B6A1B013233094AA2FB45
:1027E00003235B0903F00F03FA6A1343FB62FB6ADE
:1027F0009AB27B681A8100BF3037BD4680BD00BFEA
:10280000003801401F85EB5180B483B000AF786081
:102810000B46FB70FB78002B08D07B689B899BB232
:1028200043F400539AB27B689A8107E07B689B89E6
:102830009BB223F400539AB27B689A8100BF0C3795
:10284000BD4680BC704700BF80B487B000AF7860E1
:102850000B467B8013467B7000233B610023FB60AB
:102860000023BB6000237B617B687B617B88DBB2DC
:102870005B09DBB23B617B8803F01F03FB60012235
:10288000FB6802FA03F3BB603B69012B03D17B6950
:102890000C337B6109E03B69022B03D17B69103368
:1028A0007B6102E07B6914337B617B78002B06D06F
:1028B0007B697A691168BA680A431A6006E07B6925
:1028C0007A691168BA68D2430A401A6000BF1C379F
:1028D000BD4680BC704700BF80B483B000AF786055
:1028E0000B467B807B88C3F308039AB27B689A808F
:1028F00000BF0C37BD4680BC704700BF80B483B0BA
:1029000000AF78607B689B889BB2C3F308039BB2DF
:1029100018460C37BD4680BC704700BF80B485B0F8
:1029200000AF78600B467B800023FB737B681B88BD
:102930009AB27B8813409BB2002B02D00123FB7319
:1029400001E00023FB73FB7B18461437BD4680BCB7
:10295000704700BF80B487B000AF78600B467B80C3
:102960000023FB6000237B610023BB600023FB741A
:102970007B88DBB25B09DBB2BB607B8803F01F03A3
:102980007B6101227B6902FA03F37B61BB68012B47
:1029900007D17B689B899BB21A467B6913407B6198
:1029A00011E0BB68022B07D17B681B8A9BB21A46D9
:1029B0007B6913407B6106E07B689B8A9BB21A4669
:1029C0007B6913407B617B881B0A9BB2FB60012201
:1029D000FB6802FA03F3FB607B681B889BB21A4614
:1029E000FB681340FB607B69002B05D0FB68002B64
:1029F00002D00123FB7401E00023FB74FB7C18462A
:102A00001C37BD4680BC704780B485B000AF78608D
:102A10000B467B800023FB810023BB817B881B0A44
:102A2000FB81FB89012202FA03F3BB81BB89DB43F3
:102A30009AB27B681A8000BF1437BD4680BC7047CD
:102A400080B485B000AF78600A4B1B68002B02D1C0
:102A5000084B094A1A60074B1B68FB60054B1A6854
:102A60007B681344034A1360FB6818461437BD465D
:102A700080BC70473C030020BC04002080B400AF41
:102A8000FEE700BF80B485B000AF78600023FB6034
:102A9000094B1B68FB60FB6803F03803FB60FA68B6
:102AA0007B681343FB60044AFB68136000BF143764
:102AB000BD4680BC704700BF0020024080B483B098
:102AC00000AF7860084A084B1B6823F010031360BE
:102AD0000549054B1A687B6813430B6000BF0C3730
:102AE000BD4680BC704700BF0020024080B483B068
:102AF00000AF78607B681A684FF6FE7313407A68FF
:102B000013607B6800221A607B6800225A607B6831
:102B100000229A607B680022DA607B68434A934215
:102B200006D1434A424B5B6843F00F03536077E0A2
:102B30007B68404A934206D13D4A3D4B5B6843F077
:102B4000F00353606CE07B683B4A934206D1384AFD
:102B5000374B5B6843F47063536061E07B68374ACE
:102B6000934206D1324A324B5B6843F47043536060
:102B700056E07B68324A934206D12D4A2C4B5B6863
:102B800043F4702353604BE07B682E4A934206D196
:102B9000274A274B5B6843F47003536040E07B682F
:102BA000294A934206D1224A214B5B6843F0706365
:102BB000536035E07B68254A934206D1244A244B72
:102BC0005B6843F00F0353602AE07B68214A93421D
:102BD00006D11F4A1E4B5B6843F0F00353601FE0B1
:102BE0007B681D4A934206D1194A194B5B6843F42E
:102BF0007063536014E07B68184A934206D1144A0C
:102C0000134B5B6843F47043536009E07B68144ADC
:102C1000934205D10E4A0E4B5B6843F47023536018
:102C200000BF0C37BD4680BC704700BF08000240A3
:102C3000000002401C0002403000024044000240FC
:102C4000580002406C00024080000240080402402C
:102C5000000402401C0402403004024044040240CC
:102C60005804024080B485B000AF7860396000231A
:102C7000FB607B681B68FB60FB6823F4FF4323F069
:102C80007003FB603B689A683B681B6A1A433B68A9
:102C90001B691A433B685B691A433B689B691A438B
:102CA0003B68DB691A433B685B6A1A433B689B6A73
:102CB0001343FA681343FB607B68FA681A603B6849
:102CC000DA687B685A603B681A687B689A603B6880
:102CD0005A687B68DA6000BF1437BD4680BC704715
:102CE00080B483B000AF78600B46FB70FB78002B9C
:102CF00006D07B681B6843F001027B681A6006E01F
:102D00007B681A684FF6FE7313407A68136000BF41
:102D10000C37BD4680BC704780B487B000AF786088
:102D200000237B6100233B610F23FB607B68DB7822
:102D3000002B3AD0274BDB68DB4303F4E0631B0A2C
:102D40007B617B69C3F104033B61FA687B6922FA0A
:102D500003F3FB607B685B781A463B6902FA03F376
:102D60007B617B689B781A46FB6813407A69134342
:102D70007B617B691B017B61174A7B681B787969E2
:102D8000C9B213440A4683F80023134A7B681B78B0
:102D90005B09DBB218467B681B7803F01F03012137
:102DA00001FA03F342F820300FE00B497B681B78EF
:102DB0005B09DBB218467B681B7803F01F03012216
:102DC0009A4000F1200341F8232000BF1C37BD4684
:102DD00080BC704700ED00E000E100E080B483B00B
:102DE00000AF7860396007493B6823F0604323F007
:102DF0007F037A6813438B6000BF0C37BD4680BCED
:102E0000704700BF00ED00E080B582B000AF786091
:102E10007B68174A93420AD101214FF48050FFF793
:102E2000DDF800214FF48050FFF7D8F81CE07B68F4
:102E3000104A93420AD101214FF48040FFF7ECF889
:102E400000214FF48040FFF7E7F80DE07B680A4A65
:102E5000934209D101214FF40040FFF7DDF8002132
:102E60004FF40040FFF7D8F800BF0837BD4680BDDB
:102E70000030014000380040003C004080B485B084
:102E800000AF786039600023FB817B681B88FB8181
:102E9000FB8903F44153FB813B681A883B685B88DC
:102EA00013439AB23B689B8813439AB23B68DB8812
:102EB00013439AB23B681B8913439AB23B685B8900
:102EC00013439AB23B689B8913439AB23B68DB89F0
:102ED00013439AB2FB891343FB817B68FA891A80FA
:102EE0007B689B8B9BB223F400639AB27B689A83C6
:102EF0003B681A8A7B681A8200BF1437BD4680BCC3
:102F0000704700BF80B483B000AF78600B46FB70A1
:102F1000FB78002B08D07B681B889BB243F04003F2
:102F20009AB27B681A8007E07B681B889BB223F00B
:102F300040039AB27B681A8000BF0C37BD4680BC44
:102F4000704700BF80B483B000AF78600B467B80D1
:102F50007B687A889A8100BF0C37BD4680BC704779
:102F600080B483B000AF78607B689B899BB21846C1
:102F70000C37BD4680BC704780B483B000AF78602A
:102F80000B46FB70FB78002B08D07B689B889BB2BC
:102F900043F004039AB27B689A8007E07B689B88C1
:102FA0009BB223F004039AB27B689A8000BF0C376F
:102FB000BD4680BC704700BF80B485B000AF78606C
:102FC0000B467B800023FB737B681B899AB27B884E
:102FD00013409BB2002B02D00123FB7301E00023BE
:102FE000FB73FB7B18461437BD4680BC704700BF9F
:102FF00080B483B000AF7860012318460C37BD461B
:1030000080BC704780B584B000AF7860786800F00D
:103010003DF97B684FF6FF721A807B68012283F8C6
:1030200069210023FB737B689B78FA7B9A4207D265
:103030007E21786800F030F8FB7B0133FB73F2E708
:1030400000BF1037BD4680BD80B582B000AF78604C
:103050007B681B881B12DBB2DB43DAB20D4B1A70A4
:103060007B681B88DBB2DB43DBB21946786800F073
:1030700013F8084B1B781946786800F00DF87E218C
:10308000786800F009F8786800F022F900BF083786
:10309000BD4680BD4803002080B582B000AF786097
:1030A0000B46FB70FB787E2B0CBF01230023DBB2A9
:1030B0001A462A4B1A702A4B00221A70284B1B788A
:1030C000072B46D8FB7803F00103DAB2254B1A70C0
:1030D000224B1B78002B03D0234B00221A7005E0F3
:1030E000204B1B781946786800F040F81D4B1B7880
:1030F000002B17D01C4B1B780133DAB21A4B1A7015
:10310000194B1B78052B13D17B68B3F87031194626
:10311000786800F06BFB786800F052F8124B0022E0
:103120001A7005E0104B00221A70786800F048F819
:10313000FB785B10FB707B68B3F8703119467868D8
:1031400000F054FB064B1B780133DAB2044B1A70C3
:10315000B4E700BF0837BD4680BD00BF490300206B
:103160004A0300204B0300204C03002080B483B0AE
:1031700000AF78600B46FB707B681A88FB789BB2C7
:1031800053409AB20C4B1A807B681B885B109AB232
:103190007B681A80084B1B8803F00103002B06D0C4
:1031A0007B681A88054B53409AB27B681A8000BF2F
:1031B0000C37BD4680BC70474E0300200884FFFFDB
:1031C00080B584B000AF78607B6893F86931022BDA
:1031D00001D1012200E002227B6883F869214FF0CF
:1031E00080424FF080431B889BB223F001039BB2C7
:1031F00013804FF080439B8CFB817B6893F869318F
:10320000012B02D14FF4C87200E0B4227B68A3F80E
:103210006E217B68B3F86E31FA899A4203D37868DD
:1032200000F0F4FA0CE04FF080417B68B3F86E21B7
:10323000FB89D31A9BB28B854FF0804300229A847E
:103240004FF080424FF080431B889BB243F0010354
:103250009BB2138000BF1037BD4680BD80B483B0E1
:1032600000AF786000BF0C37BD4680BC704700BF20
:1032700080B582B000AF7860786800F029F878688F
:10328000FFF7ECFF00BF0837BD4680BD80B582B0B8
:1032900000AF78600C48FEF76FFF4FF400510B4809
:1032A000FDF7F6F9012212217120FEF741FFFEF72A
:1032B0009DFA7B68012283F86C21786800F048FA57
:1032C00000BF0837BD4680BD3333D94300100140ED
:1032D00080B582B000AF7860FEF73AFA7B680022D2
:1032E00083F86C210748FEF747FF01220021712077
:1032F000FEF71EFF40F6C410FEF794FA00BF083731
:10330000BD4680BD0040D94380B586B000AFF860AF
:10331000B9607A600123FB82B7F91630002B2EDDED
:10332000F868FFF765FE0346002B14BF0123002356
:10333000DBB2002B1BD0F868FFF764FE7B685A1ED7
:103340007A60002B14BF01230023DBB2002B09D0CD
:10335000BB681B781946F868FFF79EFEBB6801330F
:10336000BB60EBE7F868FFF76FFE002308E064201E
:10337000FCF740FFFB8A643B9BB2FB82CCE7022355
:1033800018461837BD4680BD80B588B004AFF860D8
:10339000B9603B601346FB71386A01F029FD0346B2
:1033A000FA7903933B6A0293FB6901933B7E009396
:1033B0003B68B968F86800F005F80346184610370E
:1033C000BD4680BD80B588B000AFF860B9603B6095
:1033D0001346FB71FB680433BB61BB6907330622EC
:1033E0002021184601F0CFFCBB6907330622B968DB
:1033F000184601F005FDBB6906222021184601F0A0
:10340000C2FCBB6906223968184601F0F9FCBB69A9
:1034100097F828209A71FB79402B03D9FB79063B5A
:10342000DBB200E0FB79BA695373F86A01F0E0FCA3
:103430000346FB75FB6804330E33F96A184601F046
:10344000CFFC0023FB77FA7FFB7D0E339A420ED22E
:10345000FB7FFA7FF9680A4412795200D1B2FA6808
:1034600013440A461A71FB7F0133FB77EBE7FB7DC0
:103470000E33013BFA7D0E32013AF9680A441279A3
:1034800042F00102D1B2FA6813440A461A71FB7D78
:103490000E33FA68134403221A71FB7D0E33013395
:1034A000FA681344F0221A71FB681A1DFB7D0E3373
:1034B000023313447A6B396B184601F0A1FCFB68A8
:1034C000191DFB7D03F10E027B6B134402331A4678
:1034D000F868FFF719FF034618462037BD4680BD40
:1034E000B0B586B004AF786039607B6803F583704F
:1034F0007B6893F80C417B6803F20D157B6893F8A9
:1035000013317A6802F58A72396802910192009348
:103510002B46224601467868FFF736FF03461846D9
:103520000837BD46B0BD00BF80B582B000AF78603F
:103530000B46FB701346BB700E4A7B6813607B68BA
:10354000FA7883F868217B68BA78DA707B680122A0
:10355000A3F804210121786800F00EF97B684FF48C
:10356000C872A3F86E217868FFF782FE00BF0837A3
:10357000BD4680BD4403002080B584B000AFF86034
:103580007B600B46FB721346BB7297F90A2097F9D2
:103590000B301946F868FFF7C7FF3B7E1A4679687B
:1035A000F86800F00FF897F820301A46F969F868C3
:1035B00000F026F8796AF86800F006F900BF1037C5
:1035C000BD4680BD80B584B000AFF860B9601346D9
:1035D000FB71FB6803F5837306222021184601F076
:1035E000D2FBFB6803F58373B968184601F0F8FB5A
:1035F000FB68FA7983F80C2100BF1037BD4680BD07
:1036000080B584B000AFF860B9601346FB71FB6809
:1036100003F20D1306222021184601F0B4FBFB68CB
:1036200003F20D13B968184601F0DAFBFB68FA796A
:1036300083F8132100BF1037BD4680BD80B586B02A
:1036400000AFF860B9607A60B86801F0D1FB03465A
:103650003B750023FB750023BB7500237B7500239E
:10366000FB75FA7D3B7D9A4268D2FB7DBA681344B4
:103670001B782C2B04D0FA7D3B7D013B9A4244D130
:10368000FB7DBA6813441B782C2B12D0BB7D7A6863
:103690001344FA7DB9680A4412782D2A04D0FA7DC1
:1036A000B9680A44127800E020221A70BB7D013309
:1036B000BB75BB7D062B04D8BB7DC3F107037B75AF
:1036C00014E0BB7D072B07D9BB7D0D2B04D8BB7D38
:1036D000C3F10E037B7509E0BB7D0E2B06D9BB7DC4
:1036E000142B03D8BB7DC3F115037B757B7D002BA9
:1036F0001FD0BB7D7A68134420221A707B7D013B6A
:103700007B75BB7D0133BB75F0E7BB7D7A681344E5
:10371000FA7DB9680A4412782D2A04D0FA7DB96876
:103720000A44127800E020221A70BB7D0133BB7579
:1037300000E000BFFB7D0133FB7592E7BB7D7A683B
:10374000134400221A7000BF1837BD4680BD00BF69
:1037500080B582B000AF78607B68B3F80431002B8D
:1037600005D07B68B3F804311846FCF743FD00BF71
:103770000837BD4680BD00BF80B483B000AF78601D
:103780000B46FB707B68FA7883F86A21FB78012B83
:1037900002D0022B09D011E07B6840F2CD22A3F8C1
:1037A00070217B682D229A7008E07B6840F6F24217
:1037B000A3F870217B682D229A7000BF00BF0C37E0
:1037C000BD4680BC704700BF80B582B000AF786056
:1037D00039607B6803F58A731A4639687868FFF7A1
:1037E0002DFF00BF0837BD4680BD00BF80B582B049
:1037F00000AF78600B467B807B8801211846FCF780
:10380000CBFC00BF0837BD4680BD00BF80B582B08D
:1038100000AF7860786800F023F84FF080424FF0F6
:1038200080431B889BB223F001039BB213804FF0AF
:1038300080427B68B3F86E3193854FF0804300225D
:103840009A844FF080424FF080431B889BB243F034
:1038500001039BB2138000BF0837BD4680BD00BF87
:1038600080B582B000AF78607B6893F86B31002B35
:1038700009D07B68002283F86B214FF4004108488F
:10388000FCF714FF08E07B68012283F86B214FF4FA
:1038900000410348FCF7FCFE00BF0837BD4680BD71
:1038A000000C014080F0004002E000BF81F00041C8
:1038B00042001FBF5FEA410392EA030F7FEA226CD6
:1038C0007FEA236C6AD04FEA1262D2EB1363C1BF66
:1038D000D218414048404140B8BF5B42192B88BFD5
:1038E000704710F0004F40F4000020F07F4018BFF8
:1038F000404211F0004F41F4000121F07F4118BF18
:10390000494292EA030F3FD0A2F1010241FA03FCBF
:1039100010EB0C00C3F1200301FA03F100F00043A7
:1039200002D5494260EB4000B0F5000F13D3B0F16F
:10393000807F06D340084FEA310102F10102FE2ADE
:1039400051D2B1F1004F40EBC25008BF20F001004E
:1039500040EA03007047490040EB000010F4000FFC
:10396000A2F10102EDD1B0FA80FCACF1080CB2EB8F
:103970000C0200FA0CF0AABF00EBC25052421843EE
:10398000BCBFD0401843704792F0000F81F4000193
:1039900006BF80F400000132013BB5E74FEA410366
:1039A0007FEA226C18BF7FEA236C21D092EA030FD2
:1039B00004D092F0000F08BF0846704790EA010F4C
:1039C0001CBF0020704712F07F4F04D1400028BF79
:1039D00040F00040704712F100723CBF00F500005B
:1039E000704700F0004343F0FE4040F40000704791
:1039F0007FEA226216BF08467FEA2363014642023D
:103A000006BF5FEA412390EA010F40F4800070474F
:103A10004FF0000304E000BF10F0004348BF4042F5
:103A20005FEA000C08BF704743F0964301464FF031
:103A300000001CE050EA010208BF70474FF000038D
:103A40000AE000BF50EA010208BF704711F00043CE
:103A500002D5404261EB41015FEA010C02BF84469E
:103A60000146002043F0B64308BFA3F18053A3F5FD
:103A70000003BCFA8CF2083AA3EBC25310DB01FA44
:103A800002FC634400FA02FCC2F12002BCF1004FC8
:103A900020FA02F243EB020008BF20F00100704759
:103AA00002F1200201FA02FCC2F1200250EA4C00AD
:103AB00021FA02F243EB020008BF20EADC707047F3
:103AC0004FF0FF0C1CEAD0521EBF1CEAD15392EA01
:103AD0000C0F93EA0C0F6FD01A4480EA010C4002DD
:103AE00018BF5FEA41211ED04FF0006343EA501037
:103AF00043EA5111A0FB01310CF00040B1F5000F79
:103B00003EBF490041EAD3715B0040EA010062F127
:103B10007F02FD2A1DD8B3F1004F40EBC25008BF11
:103B200020F00100704790F0000F0CF0004C08BF2F
:103B300049024CEA502040EA51207F3AC2BFD2F1FC
:103B4000FF0340EAC250704740F400004FF000030A
:103B5000013A5DDC12F1190FDCBF00F00040704744
:103B6000C2F10002410021FA02F1C2F1200200FA82
:103B700002FC5FEA310040F1000053EA4C0308BF49
:103B800020EADC70704792F0000F00F0004C02BF9A
:103B9000400010F4000F013AF9D040EA0C0093F015
:103BA000000F01F0004C02BF490011F4000F013B6F
:103BB000F9D041EA0C018FE70CEAD15392EA0C0FDD
:103BC00018BF93EA0C0F0AD030F0004C18BF31F048
:103BD000004CD8D180EA010000F00040704790F01E
:103BE000000F17BF90F0004F084691F0000F91F0C2
:103BF000004F14D092EA0C0F01D142020FD193EA88
:103C00000C0F03D14B0218BF084608D180EA01000F
:103C100000F0004040F0FE4040F40000704740F0EB
:103C2000FE4040F4400070474FF0FF0C1CEAD052B9
:103C30001EBF1CEAD15392EA0C0F93EA0C0F69D015
:103C4000A2EB030280EA010C49024FEA402037D080
:103C50004FF0805343EA111143EA10130CF0004077
:103C60008B4238BF5B0042F17D024FF4000C8B4267
:103C700024BF5B1A40EA0C00B3EB510F24BFA3EB47
:103C8000510340EA5C00B3EB910F24BFA3EB910317
:103C900040EA9C00B3EBD10F24BFA3EBD10340EA71
:103CA000DC001B0118BF5FEA1C1CE0D1FD2A3FF6B7
:103CB00050AF8B4240EBC25008BF20F0010070476C
:103CC0000CF0004C4CEA50207F32C2BFD2F1FF030F
:103CD00040EAC250704740F400004FF00003013A40
:103CE00037E792F0000F00F0004C02BF400010F4E4
:103CF000000F013AF9D040EA0C0093F0000F01F0F8
:103D0000004C02BF490011F4000F013BF9D041EA19
:103D10000C0195E70CEAD15392EA0C0F08D142024C
:103D20007FF47DAF93EA0C0F7FF470AF084676E71F
:103D300093EA0C0F04D14B023FF44CAF08466EE7F8
:103D400030F0004C18BF31F0004CCAD130F00042C6
:103D50007FF45CAF31F000437FF43CAF5FE700BF1E
:103D60004FF0FF3C06E000BF4FF0010C02E000BF47
:103D70004FF0010C4DF804CD4FEA40024FEA4103E9
:103D80007FEA226C18BF7FEA236C11D001B052EA9F
:103D9000530C18BF90EA010F58BFB2EB030088BF65
:103DA000C81738BF6FEAE17018BF40F001007047D4
:103DB0007FEA226C02D15FEA402C05D17FEA236CB6
:103DC000E4D15FEA412CE1D05DF8040B704700BFFD
:103DD000844608466146FFE70FB5FFF7C9FF002894
:103DE00048BF10F1000F0FBD4DF808EDFFF7F4FFCD
:103DF0000CBF012000205DF808FB00BF4DF808ED66
:103E0000FFF7EAFF34BF012000205DF808FB00BF88
:103E10004DF808EDFFF7E0FF94BF012000205DF8AA
:103E200008FB00BF4DF808EDFFF7D2FF94BF01205B
:103E300000205DF808FB00BF4DF808EDFFF7C8FF54
:103E400034BF012000205DF808FB00BF42000ED205
:103E5000B2F1FE4F0BD34FF09E03B3EB126209D4C5
:103E60004FEA002343F0004323FA02F070474FF07B
:103E70000000704712F1610F01D1420202D14FF0F0
:103E8000FF3070474FF00000704700BF03685A00D2
:103E90004CBF43F0004323F000431844704700BF79
:103EA00061B32DE9F84F01F1FF3A90460646D1463D
:103EB000002707EB090404EBD4746410E5007119C2
:103EC0000846FFF7E3FFA245834605F108003044AA
:103ED00009D0FFF7DBFFC34500F1FF3005D84045AF
:103EE00009D2671CE5E7C34505D9A74202D004F112
:103EF000FF39DEE700210846BDE8F88F0846704725
:103F0000012807D0022807D0044B00280CBF184610
:103F10000020704702487047024870471546000865
:103F2000194600081D46000830B5254B83B00446ED
:103F30008D1E7BB301A92846AFF3008020B3019901
:103F40002A46FFF7ADFF0146F0B1FFF79FFF4B6830
:103F5000A064012B12D0002B01F1040021DBFFF73C
:103F600095FF0023E06423650368002B1DDBFFF74A
:103F70008DFF00232061184603B030BD002323616C
:103F80000523184603B030BD0023236109231846DA
:103F900003B030BD0B490C4B0846591AC9100191AA
:103FA000CEE70123E0642365DEE7C3F30360FFF798
:103FB000A7FF0028206114BF00230923DBE700BF0F
:103FC0000000000074580008FC590008036810B590
:103FD000DA07044606D49B0700F1480009D500F033
:103FE0005BFC2368590709D51A070ED5DB0613D5E4
:103FF00010BD00F049FC23685907F5D404F1D00046
:1040000000F052FC23681A07F0D404F5A87000F001
:1040100053FC2368DB06EBD404F5E870BDE81040E0
:1040200000F08EBC03680BB1184470471846704707
:1040300009207047704700BF70B504460D4608E080
:104040002A6C2369626121462A4601209847082884
:1040500008D1296C2046FFF767FF06460028EFD0FD
:10406000FEF70CFD0728FBD13046296CFFF7E2FF75
:10407000281D00F0FDFB00BF2DE9F0470646ADF519
:10408000727D03AD0C1D17460FCC0FC50FCC0FC5AD
:104090000FCC0FC594E80F0002ACD6F80C80D6F810
:1040A000189085E80F0000233046216C2360FFF74D
:1040B0003BFF0546002F14BF0A2709277DB1A36BDC
:1040C00047F010018DE81002324663640120334648
:1040D000C04778BB28460DF5727DBDE8F087236C9C
:1040E0004FF4F072736121467AA800F041FE336903
:1040F0007AAA314638469847889B82468DE8100256
:1041000039466364324633460120C04790B94FF4C4
:10411000F0727AA9204600F02BFEBAF1080F06D102
:10412000216C3046FFF700FF09270546C6E7BAF1C4
:10413000070F04D009200DF5727DBDE8F0872846F1
:10414000216CFFF777FF03A800F092FB406C7047EB
:10415000F0B5CB6BF9B00B640E1D01AD0F460446F4
:104160000FCE0FC50FCE0FC50FCE0FC596E80F00AF
:104170004FF0FF3685E80F00009606E023696A4697
:10418000214698470828054608D110992046FFF790
:10419000CBFE0028F2D0092079B0F0BD6846FFF7C9
:1041A00015FF062DF7D139462046FFF745FF00BF22
:1041B00030B4DD6BC160826119461D64002230BCE1
:1041C0005AE700BF70B54369C6680B6426B1012287
:1041D000FFF752FFFEF752FC03690A4604460D46FC
:1041E000014602209847072807D0082803D129460E
:1041F0002046FFF721FFFEF741FC3046296CFFF710
:1042000019FF281D00F034FBC2682AB110B4CC6B32
:1042100000220C6410BC2FE79AE700BF704700BF74
:10422000836813B1014601201847704700B504297F
:1042300007D8DFE801F00309060909000BB90F2AC6
:1042400005D902205DF804FB01205DF804FB00EBBA
:10425000820252681846019B1A605DF804FB00BF99
:1042600010B584B0002303AC0A4600941946FFF74A
:10427000DDFF039804B010BD00B5042907D8DFE8BE
:1042800001F00309060909000BB90F2A05D902201C
:104290005DF804FB01205DF804FB019900EB82024C
:1042A0000968184651605DF804FB00BF10B584B082
:1042B00004AC44F8042D00230A4600941946FFF785
:1042C000DBFF04B010BD00BFF0B5D36BADF50F7DC3
:1042D0001364151D17AC07460E460FCD0FC40FCD46
:1042E0000FC40FCD0FC495E80F004FF0FF3584E8E1
:1042F0000F00169511E016A86A46FFF7D7FF314662
:1043000016A8B84780B9049B16AA694608209847A2
:104310000528044609D0092806D026996846FFF7E3
:1043200003FE0C210028E6D0092416A8FFF74EFE54
:1043300020460DF50F7DF0BD2DE9F04FCC6C914678
:1043400022688BB004340D460792089400F0030BEA
:104350001E46002B64D11202032307928DF82560BC
:104360008DF824302B6DBBF1020F08BFAC6B13F03E
:10437000010343D100F00800C2B203920193276801
:10438000002F3DD0022E47D02788B4F80280043495
:10439000AB6C28F0010A0F2148469A44FFF760FFF2
:1043A000824537D827F001039A4450452CBF00209E
:1043B00001204FEA480808F0020807F0010748EA20
:1043C0000708B8F1010F41D038D3B8F1020F1DD161
:1043D000236823F000420292BBF1000F79D130B183
:1043E0000399002900F08180002A00F0A880002BAA
:1043F00079DB029B013304EB8304C0E700230193C4
:10440000022E40DDFFF714FE002842D009200BB039
:10441000BDE8F08F0020CCE7D4F804800834B7E77B
:10442000022B9FDC130CD9B212048DF82530022325
:1044300004EB810407928DF8243093E7BBF1000F61
:1044400002D0002840F0B080043498E7BBF1000FA0
:1044500026D1B0B194E80C00991C4FEAD272D5D0A5
:1044600005F158010133069100F09480201DFFF7FB
:10447000D9FD06AB01462846AFF30080002840F086
:10448000B88008347BE707A9484600F0F3FA002813
:10449000BCD1019B002B5CD108200BB0BDE8F08F94
:1044A0000D2148462F6AFFF7DBFE8742E9D1AB6A50
:1044B0009C42E6D12046FFF7E9FC0F210246484620
:1044C000FFF7F4FE48462A460021FFF7EFFE0720DB
:1044D0009DE70D2148462F6AFFF7C2FE874248D06C
:1044E0002368002B85DA043483E7029B3BB305F194
:1044F0005803271DCDF810B0DDF80C80A346DDF879
:1045000008A01C46059602E0B245B04616D03846D3
:104510000694FFF787FD06AB014600222846AFF35D
:10452000008008F1010604370028EDD0029B5C46AC
:104530004345DDF810B0059ED2D100E05C46484608
:104540000D21FFF78DFE069B2862AC626B62062090
:104550005DE70F214846FFF783FE0E2102464846DD
:10456000FFF7A4FE48462A4A0F21FFF79FFE0720C7
:104570004DE7AB6A9C42B3D1042202990027A318ED
:10458000A962EF622A636B632368BB421FDB0123CE
:1045900001932EE748460D21FFF762FE2862069B35
:1045A0006B62AC62062032E72046FFF76FFC0434F2
:1045B0000646AC632846AFF3008000283FF426AFE0
:1045C000484632460F21FFF771FE07201FE70846D5
:1045D000013004EB8000FFF759FC0F2102464846EA
:1045E000FFF764FE48462A463946FFF75FFE07207C
:1045F0000DE707460D214846FFF732FE022F2862DD
:10460000CDD12B46069A43F82C2F6B62C9E700BF29
:104610000000000000238FE601238DE602238BE6D5
:10462000F0B50446C5B004290DD8DFE801F0570302
:104630000C310F00012B4FEA124695B266D1721968
:10464000102A40F29F80022045B0F0BD002BFAD125
:10465000102AF8D82368D80600F1C98022AE304667
:10466000019200F077F9A06B019A0023012505FA69
:1046700003F1114203D00168043046F823100133DE
:10468000042BF4D1A063304600F05AF90020DBE798
:10469000032BD8D1150C97B2EB19102BD3D8236864
:1046A0001E0700F1B88022AE30467F0000F026F9E8
:1046B00006EBC5027B1EA56B57B12946043A51F89B
:1046C000040B013B42F8040F581CF8D105EB870599
:1046D0003046A56300F0F0F80020B5E7002BB2D11A
:1046E000A56B97B2201D012606FA03F1394203F1AA
:1046F000010302D0296804350160102B00F1040089
:10470000F2D112F400503BD1A5639DE7052B9AD15D
:104710007719202F97D80F2E65D92F46002D48D115
:104720002A460027002AA06B71DD00EBC202014679
:1047300044A800EBC6008C3851F8045B914240F865
:10474000045FF9D1084697B13246102E44A938BF0C
:10475000102201EBC202A2F5C4727900043A00EB08
:10476000810150F8045B814242F8045FF9D1012BCA
:1047700047D00F2EA16332D917B102A800F094F8E8
:10478000002061E70F2E3FF65EAF00272268D107B9
:104790000DD522F00101052B21600193204652D056
:1047A00022F0030240F8482B00F072F8019B002F22
:1047B00051D02268510736D4012B3ED00F2E06D897
:1047C00022A8019300F06CF8019B002FA8D002A84A
:1047D000019300F06DF8019BC6F11002A2E722A838
:1047E00000F05AF8C8E7102FCFD9103FCEE723F0DA
:1047F0001003236004F5E870019200F0ABF8019A11
:104800002CE70431A16322A800F03EF8B8E7002F9E
:104810009AD10146ABE723F00803236004F5A870A2
:1048200000F06CF83FE7204622F0040240F8D02B5D
:10483000019300F03DF8019BBEE722A8019300F030
:1048400027F8019BC8E741F0020140F8481B00F03F
:1048500027F8019BABE7012B03D00F2E3FF660AF8B
:10486000AEE722A8019300F013F8019B58E700BFC0
:1048700000F1340191E838009C46A6464CF8045DEE
:1048800090E8FF0FE54600BD90EC210B704700BF9C
:1048900080EC210B704700BF90EC200B704700BFED
:1048A00080EC200B704700BFD0EC200B704700BF9E
:1048B000C0EC200B704700BFF0EC0201F0EC0211DD
:1048C000F0EC0221F0EC0231F0EC0241F0EC02518C
:1048D000F0EC0261F0EC0271F0EC0281F0EC02917C
:1048E000F0EC02A1F0EC02B1F0EC02C1F0EC02D16C
:1048F000F0EC02E1F0EC02F1704700BFE0EC0201E5
:10490000E0EC0211E0EC0221E0EC0231E0EC0241CB
:10491000E0EC0251E0EC0261E0EC0271E0EC0281BB
:10492000E0EC0291E0EC02A1E0EC02B1E0EC02C1AB
:10493000E0EC02D1E0EC02E1E0EC02F1704700BFF4
:10494000B0FC0181B0FC0191B0FC01A1B0FC01B14F
:10495000704700BFA0FC0181A0FC0191A0FC01A157
:10496000A0FC01B1704700BFEC4600B52DE9005036
:104970002DE9FF1F4FF000032DE90C0001A9FFF7FF
:10498000E7FBDDF840E012B0704700BFEC4600B531
:104990002DE900502DE9FF1F4FF000032DE90C0019
:1049A00001A9FFF70FFCDDF840E012B0704700BF2F
:1049B000EC4600B52DE900502DE9FF1F4FF0000334
:1049C0002DE90C0001A9FFF71FFCDDF840E012B053
:1049D000704700BFEC4600B52DE900502DE9FF1FE0
:1049E0004FF000032DE90C0001ABFFF7E1FBDDF810
:1049F00040E012B0704700BFEC4600B52DE9005012
:104A00002DE9FF1F4FF000032DE90C0001AAFFF76D
:104A10005BFCDDF840E012B0704700BF037A1BB9C1
:104A2000437A43B9B02070475A1E036802721A02D3
:104A30000260180E70474268013B10B4437213685D
:104A40000321141D01721A024460026010BC180E8A
:104A5000704700BF00B585B003AA00230092194635
:104A60000C22FFF7E3FB039805B05DF804FB00BFE1
:104A7000F0E700BF2DE9F04306460D4685B04FF044
:104A800000082846FFF7CAFFB028044600F0B480AB
:104A900020F07F0313F0FF0320D000F0F003802B01
:104AA0007AD0902B35D0A02B48D0B02B5CD0C02B27
:104AB00000F0898000F0F803D02B0BD100F0070242
:104AC000013242F40022052301213046FFF7A8FD00
:104AD0000028D6D0092005B0BDE8F0830DF10C09FF
:104AE00019468700CDF800900D223046FFF79EFB57
:104AF000FFB2039B043760064CBFDF1BFF18002387
:104B0000CDF8009019460D2230460397FFF7B4FB0D
:104B1000B7E700F00D030D2BDCD003AF002300F04E
:104B20000F02194600973046FFF780FB00230097DD
:104B300019460D223046FFF79FFBA2E7C2434FF410
:104B40007F6302F0070243FA02F2010702EA03025E
:104B50004FF0000348BF42F4804219463046FFF749
:104B60005FFD0028B6D18CE7B1284AD0B22853D0D7
:104B7000B32800F0818000F0FC03B42BAAD000F031
:104B800007020132012342F4002219463046FFF7A2
:104B900047FD00289ED174E72846FFF73FFF240217
:104BA0002043B0F5004F95D004010023A2B219466E
:104BB0003046FFF735FD00288CD114F4004F18BFA4
:104BC0004FF001085DE7C62862D0C7286CD000F01E
:104BD000F803C02B7BD0C82800F09180C9287FF44F
:104BE00079AF2846FFF71AFF020300F00F0002F426
:104BF00070220130024366E7B8F1000F6ED000204A
:104C000069E72846FFF70AFF024600283FF462AF33
:104C100010F0F003B9D05DE700230DF10C090D226F
:104C20001946CDF800903046FFF700FB2846FFF705
:104C3000F5FE02064FF002040CD5039B00F07F0046
:104C4000A040034428460393FFF7E8FE030604F15F
:104C50000704F2D4039B00F07F0000FA04F203F58E
:104C6000017400231444CDF8009019460D223046FB
:104C70000394FFF701FB04E72846FFF7CFFE01038B
:104C800000F00F0001F47021421C01230A437CE76D
:104C90002846FFF7C3FE010300F00F0001F4702166
:104CA000421C03230A4370E72846FFF7B7FE02467B
:104CB00000283FF40FAF10F0F0037FF40BAF042196
:104CC0003046FFF7ADFC00287FF404AFD9E600F0D2
:104CD0000F020132032342F4202256E703AC43467D
:104CE0000E22414600943046FFF7A0FA0094304669
:104CF00043460F224146FFF7BFFA4046EBE62846FF
:104D0000FFF78CFE00F0F00200F00F0310320133C9
:104D100043EA0232D7E600BF10B5C36C84B003206B
:104D20005A688DF80C00DC7912020833084601A994
:104D300001928DF80D400293FFF79CFE04B010BD68
:104D400008B5FFF795FE806C08BD00BF08B5FFF7FA
:104D50008FFEC36CD87903EB8000083008BD00BF1C
:104D600008B5FDF78BFE00BF08B5FFF7F9FF00BFE0
:104D700010B5431E0A44914204D011F8014B03F8C8
:104D8000014FF8E710BD03460244934202D003F8F6
:104D9000011BFAE7704700000EB400B54FF4027132
:104DA0009CB0ADF814106FF00041049107914FF6DC
:104DB000FF711DAB02900690084853F8042BADF824
:104DC0001610006802A9019300F086F8029B0022E9
:104DD0001A701CB05DF804EB03B070473801002076
:104DE000034611F8012B03F8012B002AF9D1704773
:104DF000034613F8012B002AFBD1181A013870471B
:104E0000034610B542B111F8014B013A03F8014BCA
:104E1000002CF7D11A4400E010BD934202D003F8F1
:104E2000014BFAE710BD2DE9F0478E6882469E429D
:104E30000C46914698463ED88A8912F4906F3AD033
:104E40002568096902236F1A656905EB450595FB1D
:104E5000F3F57B1C43449D4238BF1D4653050FD5D7
:104E6000294600F03FFB064698B13A462169FFF714
:104E70007FFFA38923F4906343F08003A38113E0B1
:104E80002A4600F08DFB064670B92169504600F0B5
:104E9000DDFA0C23CAF80030A3894FF0FF3043F04D
:104EA0004003A381BDE8F08726613E442660464664
:104EB0006561ED1BA560464528BF4646494632461A
:104EC000206800F0A7FAA36800209B1BA36023685A
:104ED0001E442660BDE8F0872DE9F04F9DB0039396
:104EE0008B8980461C060D4616460DD50B695BB9AD
:104EF000402100F0F7FA2860286118B90C23C8F89F
:104F00000030CDE040236B610023099320238DF80E
:104F10002930DFF89CB130238DF82A3037463C46E3
:104F200014F8013B1BB9B7EB060910D003E0252BA1
:104F3000F9D02746F3E74B46324629464046FFF76D
:104F400072FF013000F0A780099B4B4409933B7826
:104F5000002B00F0A08000234FF0FF320493079352
:104F6000059206938DF853301A9301260522217875
:104F70004E4800F041FA671C049B38B14B4A3C464E
:104F8000801A06FA00F018430490EFE7D90644BFF0
:104F900020228DF853201A0744BF2B228DF853206E
:104FA00022782A2A03D0079A00210A200BE0039ACC
:104FB000111D12680391002A10DA524243F00200D8
:104FC000079204900BE027463B780134303B092BD5
:104FD00003D800FB02320121F5E701B107923B78CB
:104FE0002E2B1ED17B782A2B0AD1039B02371A1D48
:104FF0001B680392002BB8BF4FF0FF33059310E0FE
:10500000002319460593781C0A2407463A78013094
:10501000303A092A03D804FB01210123F5E703B143
:10502000059103223978224800F0E6F940B1402387
:10503000CBEB000003FA00F0049B01371843049007
:10504000397806221B487E1C8DF8281000F0D4F910
:1050500088B1194B33B9039B073323F00703083397
:10506000039314E003AB00932A46144B04A9404673
:10507000AFF3008007E003AB00932A460F4B04A96F
:10508000404600F093F8B0F1FF3F824603D0099B01
:105090005344099342E7AB895B0601D4099801E0C8
:1050A0004FF0FF301DB0BDE8F08F00BF4E57000835
:1050B000545700085857000800000000274E000809
:1050C0002DE9F04791461F460A698B6806469342D0
:1050D000B8BF1346C9F8003091F843200C46DDF8FC
:1050E000208012B10133C9F800302368990642BF0D
:1050F000D9F800300233C9F80030256815F00605EC
:1051000010D104F1190A07E001235246394630460E
:10511000C04701301AD00135E368D9F800209B1A46
:105120009D42F1DB94F843302268003318BF01231D
:1051300092060FD5E118302081F843005A1C94F8EC
:1051400045102244023382F8431003E04FF0FF3051
:10515000BDE8F08704F1430239463046C0470130CC
:10516000F4D02268D9F80050E36802F00602042A5D
:1051700008BF5D1B2269A3680CBF25EAE575002501
:105180009342C4BF9B1AED184FF000091A344D45E5
:1051900009D00123224639463046C0470130D5D0D8
:1051A00009F10109F3E70020BDE8F0872DE9F0439C
:1051B00017460A7E85B06E2A984606460C460C9B1A
:1051C00001F1430E00F0AE8011D8632A22D009D835
:1051D000002A00F0BB80582A40F0CA8081F84520A0
:1051E000834955E0642A1ED0692A1CD0C0E0732A86
:1051F00000F0B08009D86F2A2ED0702A40F0B88015
:105200000A6842F020020A603EE0752A24D0782A1B
:105210003AD0ADE01A6801F14205111D196013681A
:1052200084F84230A8E021681A6811F0800F02D09B
:10523000111D196008E011F0400F02F1040119601E
:1052400002D0B2F9003000E01368002B3CDA2D22C6
:105250005B4284F8432037E021681A6811F0800F20
:1052600002D0111D196007E011F0400F02F1040196
:10527000196001D0138800E01368227E5C496F2A10
:1052800014BF0A2208221BE078225A4984F84520DC
:105290002268186812F0800F00F104051D6003D128
:1052A000550601D5038800E00368D00744BF42F0EB
:1052B000200222601BB9226822F020022260102204
:1052C000002084F8430001E049490A226568002D66
:1052D000A56008DB206820F0040020602BB9002DB9
:1052E0007DD175460CE0002B79D07546B3FBF2F00A
:1052F00002FB1033CB5C05F8013D03460028F5D1D5
:10530000082A0BD12368DA0708D5236962689A4214
:10531000DEBF302305F8013C05F1FF35C5EB0E0378
:1053200023612EE008681A6810F0800F496903D0E5
:10533000101D1860136808E010F0400F02F104001F
:105340001860136801D0198000E019600023236100
:10535000754616E01A68111D19601568002162680B
:10536000284600F049F808B1401B6060636804E01B
:1053700004F1420584F8422001232361002384F8CC
:105380004330CDF800803B4603AA21463046FFF764
:1053900097FE013002D14FF0FF3026E023692A4604
:1053A00039463046C0470130F5D023689B0710D5F9
:1053B000002504F1190907E001234A463946304621
:1053C000C0470130E7D00135E368039A9B1A9D423C
:1053D000F2DBE068039B9842B8BF184605E00B7803
:1053E00004F1420584F842308AE705B0BDE8F08355
:1053F0005F5700087057000810B5C9B202449042C8
:10540000034605D01C7801308C42F8D1184610BDF7
:10541000002010BD884210B501EB020301D8421EE6
:105420000BE09842FBD28118D21AD34204D013F871
:10543000014D01F8014DF8E710BD994204D011F873
:10544000014B02F8014FF8E710BD000038B50546E2
:10545000002944D051F8043C0C1F002BB8BFE418BD
:1054600000F0D4F81E4A1368114613B96360146043
:1054700030E0A3420DD92268A018834201BF18680A
:105480005B681218226063600C6023E0A24203D8BC
:1054900013465A68002AF9D118681918A1420BD18D
:1054A0002168014458188242196013D1106852686B
:1054B000014419605A600DE002D90C232B6009E009
:1054C00021686018824201BF106852680918216083
:1054D00062605C602846BDE8384000F098B838BD8E
:1054E0005403002070B5CD1C25F0030508350C2DA4
:1054F00038BF0C25002D064601DBA94202D90C233A
:10550000336046E000F082F8234B1C681A462146BF
:10551000A1B10B685B1B0ED40B2B03D90B60CC180D
:10552000CD501EE08C420BBF63684B681360636014
:1055300018BF0C4615E00C464968E9E7174C23688C
:105540001BB9304600F052F820602946304600F082
:105550004DF8431C18D0C41C24F00304A0420DD104
:105560002560304600F053F804F10B00231D20F0B5
:105570000700C31A0ED05A42E25070BD211A3046BD
:1055800000F034F80130EBD10C233360304600F0EA
:105590003EF8002070BD00BF5403002050030020DF
:1055A000F8B5074615460E4621B91146BDE8F84044
:1055B000FFF798BF1AB9FFF749FF2846F8BD00F07A
:1055C00027F885420ED929463846FFF78BFF044657
:1055D00050B131462A46FFF7CBFB31463846FFF73C
:1055E00035FF01E03046F8BD2046F8BD38B5064C21
:1055F0000023054608462360FDF722FA431C02D12A
:10560000236803B12B6038BDB80400207047704791
:1056100051F8040C0028BEBF091851F8043CC0180A
:10562000043870470A000020008080000000D0414C
:1056300000000000696E6974204F4E0A0D000000E2
:105640004150525320696E69740A0D00743D253033
:1056500032753A253032752E253032753A627574BE
:10566000743A253034753A73656E64415052533A3A
:10567000253031753A73656E6443573A253031757C
:105680000A0D000041505253204F4E0A0D000000F9
:1056900041505253204F46460A0D00002D00000095
:1056A000000000002424242425732C25642C25309C
:1056B000327525303275253032752C257325642ED0
:1056C0002530356C642C257325642E2530356C64AB
:1056D0002C256C642C25642C25642C25642C2564D5
:1056E0002C25642C253032780000000025732A25F3
:1056F0003034580A00000000535037505054000016
:1057000057494445312D312C57494445322D3100FC
:1057100041505A51415000002F24000021253032C1
:1057200064253032642E253032752563256325309B
:105730003364253032752E25303275256325632F6D
:10574000413D2530366C642F25642C256400232DC3
:10575000302B2000686C4C0065666745464700307A
:1057600031323334353637383941424344454600C7
:1057700030313233343536373839616263646566C7
:015780000028
:105784002A970181B0B003AB0000000003970181A8
:10579400B0B008840000000001970181B0B0088413
:1057A4000000000001970181B0B0088400000000EF
:1057B40003970181B0B008840000000001970181C3
:1057C400B0B008840000000001970181B0B00884E3
:1057D4000000000001970181B0B0088400000000BF
:1057E40005970181B0B0088400000000039701818F
:1057F400B0B008840000000007970181B0B00884AD
:105804000000000001970181B0B00B84000000008B
:1058140001970181B0B00884000000000397018162
:10582400B0B008840000000001970181B0B0088482
:105834000000000001970181B0B00884000000005E
:1058440001970181B0B00884000000000197018134
:10585400B0B008840000000008B10181B0B0008439
:105864000000000008B10181B0B000840000000015
:105874003CC0FF7F0100000048C0FF7F0884978080
:105884008CC0FF7F0100000068C1FF7FF4FEFF7F32
:10589400B4C2FF7F0100000068D7FF7FF0FEFF7FE6
:1058A400A4D7FF7FF4FEFF7FECD7FF7FF8FEFF7FD6
:1058B400B8D8FF7F0100000004D9FF7FF4FEFF7F0A
:1058C40098D9FF7F01000000A4D9FF7FF0FEFF7F7D
:1058D400B8D9FF7FF4FEFF7FF4D9FF7FF8FEFF7F86
:1058E40024DAFF7FFCFEFF7F9CDAFF7F00FFFF7F4F
:1058F400D0DAFF7F04FFFF7FE4DBFF7F08FFFF7F39
:1059040024DCFF7F0CFFFF7F6CDCFF7F10FFFF7F39
:10591400B0DCFF7F0100000034DEFF7F0CFFFF7F5F
:1059240054DEFF7F01000000C0DEFF7F08FFFF7F21
:10593400D8DEFF7F0CFFFF7F24DFFF7F10FFFF7F98
:1059440060DFFF7F01000000DCE5FF7FB0A902807B
:1059540078E6FF7FB0B0A880C8E6FF7F01000000B2
:10596400D4E6FF7FB0B0AA800CE7FF7FAE71B280AF
:10597400D8E7FF7F01000000D4E7FF7FAB3F38800A
:105984002CE8FF7F0100000038E8FF7FB0B0AA8058
:1059940074E8FF7F010000002CE9FF7FAB0EB280AA
:1059A40094E9FF7FB0AF0A8068ECFF7F010000003C
:1059B4006CECFF7FAB3F0480B4EEFF7F010000007E
:1059C40090F0FF7F00840480A4F0FF7F01000000BA
:1059D400A0F0FF7FB0AD04803CF3FF7FB0A803804C
:1059E4005CF3FF7F74FEFF7F60F3FF7F78FEFF7F31
:0859F4006CF3FF7F01000000CD
:1059FC00FFFFFF55FFFFFF555555FFFFFF55FFFFFD
:105A0C00FF55FFFFFF555555FF55FF55555555553E
:105A1C00550000004E4F314C49432D310000000021
:105A2C00000000000006070809010A0B0C0D020615
:105A3C00070809030A0B0C0D0406070809050A0BD5
:105A4C000C0D00004E00AB122424242424245354A7
:105A5C004D3332205254545920747261636B657209
:105A6C0020627920426C617369752C20656E6A6FB7
:105A7C007920616E642073656520796F75206F6E77
:105A8C0020746865204855422E2E2E200A0D0000E9
:105A9C000A0D506F776572696E67207570205458C7
:105AAC000A0D00000A000000013B0000000000206D
:105ABC006001002000000000010203040102030445
:105ACC000607080902040608000000000000000098
