:020000040800F2
:10000000B80800204D030008490300084903000810
:1000100049030008490300084903000800000000E4
:10002000000000000000000000000000490300087C
:1000300049030008000000004903000849030008C4
:100040004903000849030008490300084903000860
:100050004903000849030008490300084903000850
:100060004903000849030008490300084903000840
:100070004903000849030008490300084903000830
:100080004903000849030008490300080000000074
:10009000000000000000000000000000490300080C
:1000A0004903000849030008490300084903000800
:1000B00095040008F50100084903000849030008F9
:1000C00049030008490300084903000849030008E0
:1000D000490300085D0400084903000849030008BB
:1000E0004903000849030008490300080000000014
:1000F0000000000000000000000000000000000000
:1001000000000000000000000000000000000000EF
:100110000000000000000000490300084903000837
:100120005FF808F130B5012185B01A4D022001F0C9
:100130009DFA0021022001F0B5FA0024052328468B
:1001400001A9ADF80430ADF80640ADF80840ADF8AF
:100150000A408DF80C4000F05FF82846012100F0BD
:10016000D9F801221146284600F0C2F801231D22C9
:1001700068468DF800208DF802308DF803308DF838
:10018000014001F083FD2146284600F099F805B0B2
:1001900030BD00BF0004004010B5044600210D48EA
:1001A00000F08EF821460B4800F0A6F8002109481F
:1001B00000F0A0F80121074800F082F8064A002369
:1001C00013701378002BFCD000210248BDE81040CA
:1001D00000F076B8000400405403002048B110B588
:1001E000044600214FF47A70FFF7D6FF013CF8D1A6
:1001F00010BD704708B50121054800F07FF830B107
:100200000121034800F086F8024B01221A7008BD54
:100210000004004054030020264A038890429BB209
:1002200012D002F5006290420ED0B0F1804F0BD098
:10023000A2F59832904207D002F58062904203D036
:1002400002F58062904203D14A8823F07003134381
:10025000194A904226D002F58062904222D0CA8884
:1002600070B423F44073134C8E880D889BB21343F3
:10027000A0420380868505850ED0104B98420BD096
:1002800003F54063984207D003F58063984203D09A
:1002900003F58063984201D10B7A038601238382A0
:1002A00070BC704703808B8883850B88038501238E
:1002B00083827047002C0140001000400034014050
:1002C000038829B923F001031B041B0C038070472A
:1002D0009BB243F001030380704700BF83899BB248
:1002E0001AB923EA0101818170471943818170475E
:1002F000FFF7F4BF8184704781857047038A828944
:1003000011EA030092B203D0114214BF0120002071
:10031000704700BFC94389B20182704710B50378A6
:1003200004466BB14021074801F098FB0028F9D042
:1003300014F8011B034801F089FB2378002BF1D14D
:1003400010BD00BF00480040FEE700BF0E4A0F4B43
:100350009A420DD2D0430E4918440B4620F00300B8
:100360000430084453F8041B834242F8041BF9D1BB
:10037000084809494FF000028842B8BF40F8042BF2
:10038000FADB00F027B900BF000000203801002090
:10039000B042000838010020B80400202DE9F041E7
:1003A000CC78E30648BF8B78098804F00F0748BF74
:1003B0001F4311F0FF0F21D0066800234FF0010EFC
:1003C0004FF00F0802E00133082B16D00EFA03F2AB
:1003D00032EA0105F7D19D0008FA05FC26EA0C0671
:1003E00007FA05F5282C46EA050631D0482C03F11A
:1003F000010308BF0261082BE8D10660FF2923D959
:10040000466800234FF0010E4FF00F0802E0013361
:10041000082B18D003F108020EFA02F232EA0105A5
:10042000F5D19D0008FA05FC26EA0C0607FA05F549
:10043000282C46EA050609D0482C03F1010308BF21
:100440000261082BE6D14660BDE8F0814261DEE73B
:100450004261B8E7016170474161704708B540F2F9
:1004600025510B4801F000FB48B94FF4587108487A
:1004700001F0FAFABDE80840054801F0EBBA04487B
:1004800001F0E8FABDE80840C0B200F0E7BA00BFEA
:100490000038014038B501214FF08040FFF72EFFB2
:1004A00000B938BD01214FF08040FFF733FF00F065
:1004B000C5FE054600285AD1404A13680133B3F5FA
:1004C000967F136042D23E4C0123637022783C4DEC
:1004D0005AB1AA784AB1EA78002A5FD000234FF4D3
:1004E00000413848EB70FFF7B5FF40F2E141636827
:1004F000334A01338B426360D3D9137A0125013328
:10050000DBB2092B88BF00231372A37A002262603A
:1005100065722B4C002BC4D02B49E0684B889BB2F2
:100520001B1AC72B27DD238A2B449BB2022B238265
:10053000B7D94FF480712348A574FFF78BFF802152
:100540002048FFF787FF0223238238BD1F4B10602E
:100550001A681178F1B1511C19601378FF2B24D05F
:10056000174C80211748FFF775FF2570ACE700F0A6
:100570005FFE134CB9E74B882282A27C9BB2E360FA
:10058000002A8ED0A5744FF480511148BDE8384040
:10059000FFF760BF1A1D0A4C1A6095E74FF400413F
:1005A0000848EB70FFF758FF9FE780210548044C8F
:1005B000FFF752FF0123237086E700BF640300208A
:1005C00038010020000C01404803002000000020FA
:1005D000000801402DE9F04F8FB000F04FFC00F013
:1005E00047FC00F0B3FCFFF79DFD00F085FA40F6F4
:1005F000C41000F0C1FD4FF480718548FFF72AFF59
:100600000C21844801F022FA834B844C03CB1B88D5
:100610002060238120466160FFF780FE0022FF21D9
:10062000022001F073F80022FF21032001F06EF890
:100630000022FF21042001F069F801F0D7F8784882
:1006400001F074F8012200216D2001F05FF8012211
:100650000021712001F05AF80022FF21022001F050
:1006600055F80022FF21752001F050F80022FF21EB
:10067000762001F04BF80022FF21772001F046F8A8
:1006800001222021122001F041F801220021132033
:1006900001F03CF801220021122001F037F801227C
:1006A00080210F2001F032F85E4F5F4BDFF8989108
:1006B000002501261C60FD747E7000F09FFDB9F8D6
:1006C00002304FF400519BB25848FB60FFF7C2FE66
:1006D00032461221712001F019F800F035FD544B1B
:1006E000FD7407CB206061602046A260A346FFF73F
:1006F00015FE3C46DFF854A10DF11C08797A01265D
:1007000000251020BE7289B3404600F017F9B9F8F1
:10071000021094F802E089B2207D01919DF82D101D
:100720009DF82E309DF82F20CDF80CE0029000911E
:100730003A48404903F018F83848FFF7EFFD4FF406
:10074000807133486572FFF785FE00F0BDFB01F054
:1007500049F800F0F9FC9DF82D30A5700AEB530321
:1007600093F82830062B05D02575C7E701F0CEFA9F
:1007700030BFC3E7257D304A304B002D38D103CA46
:100780001388CBF80410ABF80830CBF800002348EE
:100790002675FFF7C3FD00F097FB32460A21722051
:1007A00000F0B4FF01F026F8404600F0C7F82946F3
:1007B000234801F021F94FF400511C48FFF74AFE8D
:1007C0000BAB93E807001F4B1D888DE807000396CD
:1007D00098E80F00049500F037FD3146184801F005
:1007E0000BF900F071FB00F0FDFF00F0ADFC85E7B8
:1007F00003CB1A889B78CBF80000CBF8041007488D
:10080000ABF808208BF80A30FFF788FD76E700BFC9
:10081000000C01400048004004400008680300202C
:100820000040D9433801002060030020001001403F
:10083000F43F0008104000084840000854400008F9
:100840000038014058030020480300200000002029
:1008500010B504464021084801F000F90028F9D0FD
:100860002146054801F0F2F84021034801F0F6F86E
:100870000028F9D010BD00BF003801402DE9F04F2D
:1008800098468B464118C9B2DBB2CD18EDB24FEA9B
:10089000182A05EB0A0701440D44FFB23D4483B01A
:1008A0008146EDB2B8F1000F33D016460024325D18
:1008B00001341744FFB2E4B23D44A045EDB2F6D88E
:1008C000B5200193FFF7C4FF6220FFF7C1FF484640
:1008D000FFF7BEFF5846FFF7BBFF019B08F1FF384B
:1008E0001846FFF7B5FF5046FFF7B2FF1FFA88F82A
:1008F000B044741E14F8010FFFF7AAFFA045F9D108
:100900003846FFF7A5FF284603B0BDE8F04FFFF7D4
:100910009FBFB5200193FFF79BFF6220FFF798FF71
:100920004846FFF795FF5846FFF792FF019B184690
:10093000FFF78EFF5046FFF78BFFE1E730B4054627
:1009400072B6064C0FCC28606960AA60EB6007CCD9
:1009500028616961AA6162B630BC7047300400202A
:10096000F0B58578C6788488AB19DBB21A19D2B293
:1009700002EB14212B441A44C9B20A44D2B200F14A
:10098000060E54B100231EF8037001333944C9B276
:10099000DBB20A449C42D2B2F5D81EF8043074444B
:1009A0008B4204D02B4A138B01331383F0BD637841
:1009B0009342F7D1012D02D0052D10D0F0BD072EA6
:1009C00023D0022E13D0062E3AD0212EF6D1214B61
:1009D000847DC17D027EDC7499745A74F0BD012E51
:1009E00035D0002EEAD11C4B01225A70E6E7194B94
:1009F000DA8A0132DA82D0F80E201A60D0F80A20A2
:100A00005A60D0F816209A60F0BD124B817EDA8AC7
:100A100019750132DA82D0F82210827B1960D0F881
:100A20001E40417F5C60D0F82A40DA74C27B9C6033
:100A30009A74027C19745A74D0F84220DA60F0BDBE
:100A4000044B017C90F8352019751A74F0BD024BE7
:100A50001E70F0BD300400205401002010B5184C69
:100A6000A37833B9E378BBB9B52825D00023E37068
:100A700010BDE378E218042B107104D92289591EA5
:100A80000832914211D00133DBB2632B89BF0023BE
:100A9000E370E370A37010BD012BE7D16228E5D1AC
:100AA0000222A3706071E27010BD201DFFF758FF95
:100AB0000023E370A37010BD01232071E37010BD0B
:100AC0005401002070B50B4D00232B702E466B7027
:100AD000C92407E073784BB9FFF780FB631E13F05E
:100AE000FF0403D02B780120002BF3D02878C0B26C
:100AF00070BD00BF540100202DE9F0476225FEB013
:100B00002A46002101A802F026FE4FF6FF730124B9
:100B100006262146B5274FF004084FF41640ADF8DD
:100B20000A308DF80C408DF805508DF804708DF862
:100B300006608DF80780ADF8088000F01BF90A20E8
:100B4000FFF74CFBBDF808300DF10A029DF80710C5
:100B50009DF80600FFF792FE4FF44870FFF73EFB4A
:100B600021464FF4165000F005F90A20FFF736FB36
:100B7000BDF808300DF10A029DF807109DF8060037
:100B8000FFF77CFE4FF44870FFF728FB2A46002150
:100B90001AA802F0E0FD4FF0000914224FF40C6196
:100BA000134630464FF4164AADF87210ADF86C207B
:100BB00049460DF16E028DF86E40ADF87A40ADF801
:100BC0007C408DF868708DF869508DF86A60ADF8DA
:100BD0007490ADF87890ADF876A0FFF74FFE2146FF
:100BE000504600F0C7F80A20FFF7F8FA49462A46AF
:100BF00033A802F0B0FD112402224FF0080E304657
:100C0000214613468DF8D3808DF8CC708DF8CD50E9
:100C10008DF8CE608DF8D2E08DF8CF40ADF8D020C1
:100C200005E09DF8CE009DF8CF10BDF8D0300DF155
:100C3000D202FFF723FEFFF745FF0028F1D062261E
:100C4000324600214CA802F086FD0625012203242D
:100C5000B5278DF8316102262846114623468DF8C6
:100C600032518DF833218DF836218DF83821ADF8C9
:100C700034418DF830718DF8376105E09DF832010F
:100C80009DF83311BDF834310DF59B72FFF7F6FD79
:100C9000FFF718FF0028F1D006238DF83731BDF893
:100CA00034310DF59B729DF833119DF83201FFF739
:100CB000E5FDFFF707FF0028F1D021238DF837313C
:100CC000BDF834310DF59B729DF833119DF832015A
:100CD000FFF7D4FDFFF7F6FE0028F1D040F2FF3712
:100CE00042F2107662252A460624002165A802F009
:100CF00032FD242220468DF895518DF89641072526
:100D00000224134611464FF0B50E8DF89721ADF829
:100D10009821ADF89A7119220027ADF8A2618DF8DB
:100D20009C51052664258DF89D418DF8B1414FF405
:100D300096748DF894E1ADF8A4718DF8A661ADF8C4
:100D4000A821ADF8AA21ADF8AC51ADF8AE4105E04F
:100D50009DF896019DF89711BDF898310DF5CD726B
:100D6000FFF78CFDFFF7AEFE0028F1D07EB0BDE8A6
:100D7000F08700BF2DE9F04180460F46244D202624
:100D800082B0002240F225512248C5F8846000F06C
:100D900041FE40F225511F4800F08AFE4FF4587181
:100DA0001C4800F085FE00211A4800F025FE0121B4
:100DB0004FF4804000F04CFC174B002219460C24E5
:100DC00014485C819A80DA801A819A81C3F8008085
:100DD000012400F0B3FD25210F22022301A88DF884
:100DE00004108DF805208DF806308DF8074000F0CE
:100DF0004DFF2146074800F0FFFD37B1224640F283
:100E00002551044800F006FE6E6002B0BDE8F08196
:100E100000E100E0003801407804002070B5114B7B
:100E2000114C8022C3F884202046002100F0E4FD0C
:100E300001214FF4802000F019FC0C4B00222046C9
:100E40004FF496460C2519461E605D819A80DA8023
:100E50001A819A8100F072FD2046BDE870400121A0
:100E600000F0CABD00E100E0004800407804002026
:100E700000214FF0006000F03FBF00BF10B500F050
:100E8000F1FA4FF4803000F011FB00F02BFB012849
:100E900000D010BD0446102000F02CFE022000F00F
:100EA0001FFE902000F04AFB4FF4A06000F05AFBB8
:100EB0004FF4806000F04CFB204600F02DFB00F06A
:100EC00035FB0428FBD110BD1C4B2DE9F0414FF43C
:100ED0000042012619464FF018081948194C1A4DBE
:100EE0001A8083F803809E70FFF758FA31464FF45A
:100EF000804000F0BBFB4FF40060002307224FF45A
:100F000082772146A080284622822380E3802381A5
:100F1000E381A4F80C80678000F03AFF3146284650
:100F200000F06AFF3146284600F052FF284621466D
:100F30006780BDE8F04100F02BBF00BF60040020D7
:100F4000000C014064040020003800402DE9F84FF7
:100F5000734C01210420012500F07AFB10264FF488
:100F6000805321466F482380E670A570FFF716FA7C
:100F70002946082000F06CFB4FF4C07321466A48F4
:100F80004FF01808E6702380A570FFF707FA4FF4BA
:100F90002043214664480427238084F80380A570F9
:100FA000FFF7FCF94FF4804321465F482380E77048
:100FB000FFF7F4F93046294600F04AFB4FF4005B96
:100FC00021465A48E6704FF4007AA570A4F800B0A4
:100FD000FFF7E4F9FFF778FF214652484FF48069A4
:100FE00084F80380A570A4F800A0FFF7D7F9214684
:100FF0004C48E770A4F80090FFF7D0F900214FF4B7
:101000001650FFF7B7FE2146474884F80380A4F83E
:101010000090A570FFF7C2F94FF4006321464248E3
:101020002380E770FFF7BAF9FFF7F8FE2946284654
:1010300000F000FB3E483F4E00F068FD3E4B0027AD
:101040004FF0020829463D487360C6F80C80B7602F
:10105000B76200F001FC3A4A80204FF48073C6F872
:101060001C9031464FF02009706131483260B36105
:101070003761C6F824B0C6F8209000F0DBFD2946A1
:101080002B4800F0F7FD4023214626482380E770D7
:10109000FFF784F921462348A4F80090E770FFF792
:1010A0007DF9384600F068FA2946504600F0D0FA3B
:1010B000244B4FF46022194620489A601F601D712E
:1010C0005D71DF6083F8108000F098FB2A460323EF
:1010D00005211A4800F0E8FB424603230621174881
:1010E00000F0E2FB2946154800F0B6FB13482946FC
:1010F00000F0A8FB114800F0B9FB104800F0BCFB61
:101100000028FAD10D4800F0BBFB0C4800F0BEFBF4
:101110000028FAD101210948BDE8F84F00F0BABB18
:101120006004002000080140000C01400010014054
:1011300008000240880400204803002000240140E9
:101140004C2401404C04002038B5084800F0EAFD6A
:10115000074B4FF400451024012219461D80DC7016
:101160009A700448BDE83840FFF718B900380040CD
:1011700060040020000C014030B50446012185B018
:10118000084600F073FA0021012000F08BFA1A4B98
:10119000052293FBF4F301A90024013B4FF08040AA
:1011A000ADF80830ADF80420ADF80640ADF80A40BF
:1011B0008DF80C40FFF730F801214FF08040FFF729
:1011C000A9F8012211464FF08040FFF791F8012560
:1011D0001C2368468DF800308DF801408DF80250D0
:1011E0008DF8035000F052FD29464FF08040FFF784
:1011F00067F805B030BD00BF40420F0000B5084899
:10120000084985B000223023039001910293009297
:101210001146054B054800F011FF05B05DF804FBD1
:10122000C4400008D4400008B8400008C0010020B5
:10123000014800F05BBF00BFC0010020014B93F8E4
:101240006C017047C001002084B02DE9F04F7C4C48
:10125000C61784FB0074AFB0C6EBA40438AF002CF3
:1012600087E80F00BDF800E19DF9FC7040F39F8016
:10127000744A754B82FB0025C6EBA5556AB203FB89
:101280000244724BC4EB0414A40083FB0413704D9E
:10129000E11785FB0404C1EBA34303EB8305C1EB1A
:1012A0002434C3EBC50504EB8505EDB2399E644CCF
:1012B0004FEAE67C84FB0614CCEBA404002C40F33C
:1012C00099806049604881FB0616CCEBA65671B246
:1012D00000FB01445D48C4EB0414A40080FB0460DF
:1012E000DFF86CC1E6178CFB04C4C6EBA04000EB32
:1012F000800CC6EB2434C0EBCC0604EB8604E4B2CD
:101300003A9EDFF85881002A81EAE17CACEBE17C6F
:10131000D4BF4FF053094FF04E0900294FEAE67150
:1013200088FB06B6C1EBA6114FF44D6606FB01F132
:1013300088FB01684FEAE171C1EBA811C0B2DFF888
:1013400020810490CDF830E0B8F874619DF8F00089
:10135000009506F101063F4D05940891D4BF4FF06A
:10136000570A4FF0450AB6B2002A4FF05B044FF01F
:101370002F01CDF80CC00A9002910B97DBB2CDF88B
:1013800004900996CDF818A0B8BF52420D95079465
:101390000EA83149A8F8746102F0E6F90EA940469A
:1013A00000F04EFF2FB0BDE8F04F04B07047274B60
:1013B000614283FB0102C917C1EBA242224950B22C
:1013C00001FB00F10C1BC4EB0414A40083FB041309
:1013D0001F4DE11785FB0404C1EBA34303EB830519
:1013E000C1EB2434C3EBC505524204EB850552B270
:1013F000EDB25BE71548664280FB06C1F617C6EB07
:10140000A141114E4FFA81FC06FB0CF6341BC4EBD4
:101410000414A40080FB0460DFF834C0E6178CFBE2
:1014200004C4C6EBA04000EB800CC6EB2434C0EB38
:10143000CC06494204EB860449B2E4B260E700BF3F
:10144000676666666BCA5F6BC0BDF0FF83DE1B43D9
:10145000AD8BDB6828410008EC400008D34D6210DA
:10146000C00100200F4B10B419680F4A41F0010170
:1014700019605C684FF41F0022405A601A6800210E
:1014800022F0847222F480321A601A6810BC22F4AE
:1014900080221A605A6822F4FE025A609860D9626B
:1014A000704700BF001002400000FFF80C4BB0F581
:1014B000803F1A6822F480321A601A6822F480226F
:1014C0001A6008D0B0F5802F04D11A6842F4A02227
:1014D0001A60704770471A6842F480321A60704789
:1014E0000010024082B000230A4A019302E0B3F5E3
:1014F000A06F08D0136813F4003F019B03F10103B0
:101500000193019BF3D0034B1868C0F3404002B035
:10151000704700BF00100240034A536823F00303E2
:1015200018435060704700BF00100240024B5868DB
:1015300000F00C00704700BF00100240034A5368DF
:1015400023F0F00318435060704700BF00100240C2
:10155000034A536823F4E06318435060704700BFA8
:1015600000100240034A536823F4605343EAC0006A
:101570005060704700100240034A536823F4404310
:1015800018435060704700BF00100240244910B457
:101590004B6803F00C03042B33D0082B25D00BB37E
:1015A000204A134602601E4A1F495468C4F30314BC
:1015B0000C5DE34043605468C4F302240C5D23FADD
:1015C00004F484605468C4F3C2240C5DE340C36037
:1015D000526810BCC2F381320A44127CB3FBF2F3AE
:1015E000036170470F4B0360DDE74B684C68C3F342
:1015F00083439A1CE30307D40C4B03FB02F3036001
:10160000D1E70B4B0360CEE7CB6A094903F00F0328
:101610000133B1FBF3F302FB03F30360C3E700BF45
:101620000010024000127A00C000002000093D00B6
:1016300000366E0129B9054A536923EA000050615A
:101640007047024B5A6910435861704700100240BE
:1016500029B9054A936923EA000090617047024B5B
:101660009A691043986170470010024029B9054AF1
:10167000D36923EA0000D0617047024BDA69104356
:10168000D86170470010024029B9054AD36823EA9F
:101690000000D0607047024BDA681043D860704792
:1016A0000010024029B9054A136923EA00001061BD
:1016B0007047024B1A6910431861704700100240CE
:1016C00010B54FF4005104460E48FEF7C5FE022146
:1016D0000D4800F09FFB0028F9D021460A4800F091
:1016E00085FB0121084800F095FB0028F9D04FF454
:1016F00000510448FEF7AEFE034800F079FBC0B28B
:1017000010BD00BF00100140003800402AB900029F
:1017100000B2084380B2FFF7D3BF40F08000000260
:1017200000B2084380B2FFF7CBBF00BF70B52749B6
:10173000054600F0ADFE2649044601F05BF8254958
:10174000061C204618BF012600F056FF01F066F87F
:10175000B400C0B21838341B00EBC404701C94FBF6
:10176000F0F400F041FE1C4900F092FE01462846CC
:1017700000F042FF0546E0B200F036FE0146284682
:1017800000F07CFD154900F079FD154900F080FE60
:1017900001F044F885B24FF20A20FFF791FF04F000
:1017A0001F0040EA461040F4754040F04000FFF74B
:1017B00087FF280A40F47640FFF782FFE8B240F442
:1017C0007740BDE87040FFF77BBF00BF3BB1933F60
:1017D0000000F04300002041ABAA0A410000C041D4
:1017E00000007A4748F24070FFF76ABF48F2807005
:1017F000FFF766BF48F24870FFF762BF42680B68A8
:1018000022F4702230B422F480720C79134343EA3C
:10181000042343608568CC688A68094B22432B40C7
:101820004C79134343EA440383600A7CC36A013A58
:10183000D2B223F4700343EA0253C36230BC704750
:10184000FDF7F1FF836819B923F001038360704746
:1018500043F0010383607047836819B923F48073F0
:101860008360704743F4807383607047836843F0FC
:1018700008038360704700BF8068C0F3C0007047F2
:10188000836843F004038360704700BF8068C0F33F
:1018900080007047836819B923F4A0038360704700
:1018A00043F4A00383607047092970B41DD9A1F1E6
:1018B0000A0606EB4606C5680724B440B34025EA8D
:1018C00004042343062AC3601BD90C2A27D90D3AE6
:1018D00002EB8202C36A1F24944001FA02F223EA57
:1018E00004010A43C26270BC704701EB41060569FE
:1018F0000724B440B34025EA04042343062A0361C5
:10190000E3D8013A02EB8202436B1F24944001FAB0
:1019100002F223EA04010A43426370BC7047073AAB
:1019200002EB8202036B1F24944001FA02F223EAC5
:1019300004010A43026370BC704700BF30B504461F
:101940000D46038ACA889BB223F440531343038293
:1019500082890B89888892B24989034322F4B05264
:101960000B4322F00C0213439BB2A381A38AAA89E2
:101970009BB223F4407387B01343A38201A8FFF7FF
:1019800005FE04991A48039BA289844208BF0B46AE
:1019900012F4004F2A6803EB830314BF5200920035
:1019A00003EB8303B3FBF2F3124DA189A5FB0320E4
:1019B0006422400900FB12330A044FEA00100AD4E3
:1019C0001A013232A5FB0223C3F3431303439BB234
:1019D000238107B030BDD9003231A5FB0131C1F3FD
:1019E000421242EA00039BB2238107B030BD00BF20
:1019F000003801401F85EB51838929B923F4005336
:101A00001B041B0C838170479BB243F400538381FA
:101A1000704700BF10B401F01F04C1F3421101234D
:101A2000012903FA04F30FD002290CBF103014303F
:101A30002AB9026810BC22EA0303036070470268F7
:101A400010BC1343036070470C30F1E7C1F3080189
:101A5000818070478088C0F308007047038819426E
:101A600014BF012000207047C1F3421210B40123BB
:101A700001F01F04012A03FA04F315D0022A0CBF57
:101A8000028A828A92B21340028892B24BB1012339
:101A9000090A03FA01F10A4214BF1846002010BCDB
:101AA0007047184610BC7047828992B21340EBE72A
:101AB000090A012303FA01F1C94389B20180704781
:101AC000044A05491368002B08BF0B4618441060F0
:101AD0001846704738030020B8040020FEE700BF16
:101AE000034A136803F0380318431060704700BFBF
:101AF00000200240044B1A6822F010021A601A6893
:101B000010431860704700BF002002404FF6FE727D
:101B100003683A491A4088424FF0000302600360AC
:101B200043608360C36027D0354B98422AD0354B41
:101B300098422DD0344B984230D0344B984239D013
:101B4000334B98423CD0334B98420FD0324B9842A3
:101B50003CD0324B98423FD0314B984242D0314B2F
:101B6000984245D0304B98421ED070472F4A536858
:101B700043F07063536070472C4A536843F00F037F
:101B800053607047294A536843F0F003536070472D
:101B9000264A536843F4706353607047234A53687E
:101BA00043F4704353607047214A536843F47023F1
:101BB0005360DAE71D4A536843F47023536070475B
:101BC0001A4A536843F4700353607047184A5368C5
:101BD00043F00F0353607047154A536843F0F00316
:101BE00053607047124A536843F470635360704700
:101BF0000F4A536843F47043536070470800024033
:101C00001C000240300002404400024058000240E4
:101C10006C00024080000240080402401C040240A4
:101C200030040240440402405804024000000240D4
:101C3000000402400A6A70B48D680B692A434D693A
:101C400013438A691D43CB6945EA020402684D6A61
:101C500023438C6A1D4322F4FF43CE684A682C4319
:101C600023F070030D682343036046608560C26003
:101C700070BC704729B94FF6FE73026813400360C9
:101C80007047036843F0010303607047C3785BB992
:101C9000037801215A09164803F01F03203201FA84
:101CA00003F340F822307047124B30B4D968827881
:101CB000C9434478C1F302210F23C1F10405CB408D
:101CC000AC401340027823431B0102F16042DBB2B7
:101CD00002F5614282F800330378012203F01F000D
:101CE00003495B09824041F8232030BC704700BFA4
:101CF00000E100E000ED00E021F0604121F07F0113
:101D0000014B08439860704700ED00E0044A1369F6
:101D100019B923EA00001061704718431061704739
:101D200000ED00E008B5174B984212D0164B9842D0
:101D30001BD0164B984200D008BD01214FF4004043
:101D4000FFF7B0FCBDE8084000214FF40040FFF76A
:101D5000A9BC01214FF48050FFF796FCBDE8084074
:101D600000214FF48050FFF78FBC01214FF48040D9
:101D7000FFF798FCBDE8084000214FF48040FFF7D2
:101D800091BC00BF0030014000380040003C0040E2
:101D90004A8830B40C888B882243CC881A430B893C
:101DA00022434C898D891A4322430388CC892A43D4
:101DB000224303F4415313439BB20380838B0A8A6B
:101DC00023F400631B041B0C838330BC0282704726
:101DD000038829B923F040031B041B0C03807047C0
:101DE0009BB243F040030380704700BF818170477E
:101DF000808980B2704700BF838829B923F004032B
:101E00001B041B0C838070479BB243F00403838048
:101E1000704700BF0389194214BF0120002070479A
:101E2000A1F17E02B2FA82F22DE9F8432F4C002391
:101E300052098946054626461F46227063704FF0B8
:101E4000010811E0002B38D086F803800121B5F895
:101E50007001FEF7A1F963784FEA59090133DBB24B
:101E6000072B63703AD8327809F00103A370002A77
:101E7000E8D12A8882EA0301C9074FEA520244BF27
:101E800082F4044282F008022A80B3B1E37801337D
:101E9000DBB2052BE370D9D10121B5F87001FEF753
:101EA0007BF995F86931022B1AD0022385F8693144
:101EB000CA23A5F86E31E770C8E795F86931E77075
:101EC000022B06D0022385F86931CA23A5F86E31AA
:101ED000BCE785F8698140F28913F7E7BDE8F8832C
:101EE00085F8698140F28913E3E700BF3C030020D5
:101EF00010B504460F48FFF719FC01220521722096
:101F0000FFF704FC4FF400510B48FEF7A3FA01223F
:101F100012217120FFF7FAFBFFF716F9B4F804015C
:101F2000012384F86C3100B910BDBDE81040FEF704
:101F300055B900BF3333D9430010014038B50546C9
:101F40000024FEF7C1FF85F86C410748FFF7EEFB60
:101F5000214601227120FFF7D9FBBDE8384040F649
:101F6000C410FFF709B900BF0040D94338B5038852
:101F70000446D9436FEA1323084DC9B22B71FFF70A
:101F80004FFF29792046FFF74BFF20467E21FFF7C0
:101F900047FF2046BDE83840FFF7D0BF3C03002094
:101FA000F8B508460D46164601F00AFCC0B20028F6
:101FB00042D000273C46691E202200F1FF3E0CE083
:101FC0002D2D08BF2025774504F1010335551CD080
:101FD000DCB20137FBB2984214D911F8015F2C2D05
:101FE000EED12346062B13D8C3F10704E4B21C44F8
:101FF000E4B25D1CF254EBB29C42FAD10137FBB261
:102000009842EAD800233355F8BDDBB2062BEBD952
:10201000A3F10804E4B2052C03D8C3F10E04E4B222
:10202000E5E7A3F10F04E4B2052C03D8C3F11504CE
:10203000E4B2DCE71C46CCE70446E3E72DE9F047D1
:1020400040F21B3640F2891504469A461B4F19236D
:1020500080F868110121B860A0F87061C2708370C7
:10206000A0F86E51A0F8041180F86A114FF02035E5
:102070009DF82090DDF824809DF828700B9EFFF7D6
:102080005DFF04F583705146C4F80651858001F068
:102090008FFB04F20D1084F80C91C4F80D514146E9
:1020A000858001F085FB84F81371314604F58A724E
:1020B0002046BDE8F047FFF773BF00BF3C03002098
:1020C00090F86B313BB9012380F86B314FF400413C
:1020D0000548FEF7BFB9002380F86B314FF400418B
:1020E0000148FEF7B9B900BF000C014010B5044625
:1020F000FFF7E6FF4FF080421388002123F0010331
:102100001B041B0C1380B4F86E31938591841388E3
:102110009BB243F00103138010BD00BF38B50546E4
:10212000FFF7E6FE2846FFF7E1FF4FF6FF71AB78B9
:102130000122298085F869214BB100247E2128469F
:10214000FFF76EFE0134AB78E4B2A342F6D838BD97
:1021500070B514460D460646FFF7E0FF34B115F89A
:10216000011B3046FFF75CFE013CF8D13046FFF71B
:10217000FDFE002070BD00BF2DE9F04F04469B46D8
:10218000904683B04FF0203A9DF8303000F10B02BA
:10219000C0F80BA0251D1046A4F80FA0062201933D
:1021A000DDF834900E9F0F9E01F012FB5946062277
:1021B000C4F804A02846A5F804A001F009FBB8F172
:1021C000400F88BFA8F10608019B88BF5FFA88F816
:1021D000A37284F81180484601F0F2FA8046421C4E
:1021E000494604F1120001F0ABFA5FFA88F000F101
:1021F0000E080023E1180A790133DBB2520043458F
:102200000A71F7D300F10D0323441A7904EB080E89
:1022100042F001021A71032223188EF804201030B4
:10222000F0223946DA742844324601F0D1FA2946C0
:102230002046B21C424403B0BDE8F04FFFF788BF10
:1022400030B5044685B008460D4601F0B9FA94F859
:10225000131104F58A7394F80C218DE82A00039079
:1022600004F20D1304F583712046FFF785FF05B0D6
:1022700030BD00BF80F0004002E000BF81F00041AF
:1022800042001FBF5FEA410392EA030F7FEA226C1C
:102290007FEA236C6AD04FEA1262D2EB1363C1BFAC
:1022A000D218414048404140B8BF5B42192B88BF1B
:1022B000704710F0004F40F4000020F07F4018BF3E
:1022C000404211F0004F41F4000121F07F4118BF5E
:1022D000494292EA030F3FD0A2F1010241FA03FC06
:1022E00010EB0C00C3F1200301FA03F100F00043EE
:1022F00002D5494260EB4000B0F5000F13D3B0F1B6
:10230000807F06D340084FEA310102F10102FE2A24
:1023100051D2B1F1004F40EBC25008BF20F0010094
:1023200040EA03007047490040EB000010F4000F42
:10233000A2F10102EDD1B0FA80FCACF1080CB2EBD5
:102340000C0200FA0CF0AABF00EBC2505242184334
:10235000BCBFD0401843704792F0000F81F40001D9
:1023600006BF80F400000132013BB5E74FEA4103AC
:102370007FEA226C18BF7FEA236C21D092EA030F18
:1023800004D092F0000F08BF0846704790EA010F92
:102390001CBF0020704712F07F4F04D1400028BFBF
:1023A00040F00040704712F100723CBF00F50000A1
:1023B000704700F0004343F0FE4040F400007047D7
:1023C0007FEA226216BF08467FEA23630146420283
:1023D00006BF5FEA412390EA010F40F48000704796
:1023E0004FF0000304E000BF10F0004348BF40423C
:1023F0005FEA000C08BF704743F0964301464FF078
:1024000000001CE050EA010208BF70474FF00003D3
:102410000AE000BF50EA010208BF704711F0004314
:1024200002D5404261EB41015FEA010C02BF8446E4
:102430000146002043F0B64308BFA3F18053A3F543
:102440000003BCFA8CF2083AA3EBC25310DB01FA8A
:1024500002FC634400FA02FCC2F12002BCF1004F0E
:1024600020FA02F243EB020008BF20F0010070479F
:1024700002F1200201FA02FCC2F1200250EA4C00F3
:1024800021FA02F243EB020008BF20EADC70704739
:102490004FF0FF0C1CEAD0521EBF1CEAD15392EA47
:1024A0000C0F93EA0C0F6FD01A4480EA010C400223
:1024B00018BF5FEA41211ED04FF0006343EA50107D
:1024C00043EA5111A0FB01310CF00040B1F5000FBF
:1024D0003EBF490041EAD3715B0040EA010062F16E
:1024E0007F02FD2A1DD8B3F1004F40EBC25008BF58
:1024F00020F00100704790F0000F0CF0004C08BF76
:1025000049024CEA502040EA51207F3AC2BFD2F142
:10251000FF0340EAC250704740F400004FF0000350
:10252000013A5DDC12F1190FDCBF00F0004070478A
:10253000C2F10002410021FA02F1C2F1200200FAC8
:1025400002FC5FEA310040F1000053EA4C0308BF8F
:1025500020EADC70704792F0000F00F0004C02BFE0
:10256000400010F4000F013AF9D040EA0C0093F05B
:10257000000F01F0004C02BF490011F4000F013BB5
:10258000F9D041EA0C018FE70CEAD15392EA0C0F23
:1025900018BF93EA0C0F0AD030F0004C18BF31F08E
:1025A000004CD8D180EA010000F00040704790F064
:1025B000000F17BF90F0004F084691F0000F91F008
:1025C000004F14D092EA0C0F01D142020FD193EACE
:1025D0000C0F03D14B0218BF084608D180EA010056
:1025E00000F0004040F0FE4040F40000704740F032
:1025F000FE4040F4400070474FF0FF0C1CEAD05200
:102600001EBF1CEAD15392EA0C0F93EA0C0F69D05B
:10261000A2EB030280EA010C49024FEA402037D0C6
:102620004FF0805343EA111143EA10130CF00040BD
:102630008B4238BF5B0042F17D024FF4000C8B42AD
:1026400024BF5B1A40EA0C00B3EB510F24BFA3EB8D
:10265000510340EA5C00B3EB910F24BFA3EB91035D
:1026600040EA9C00B3EBD10F24BFA3EBD10340EAB7
:10267000DC001B0118BF5FEA1C1CE0D1FD2A3FF6FD
:1026800050AF8B4240EBC25008BF20F001007047B2
:102690000CF0004C4CEA50207F32C2BFD2F1FF0355
:1026A00040EAC250704740F400004FF00003013A86
:1026B00037E792F0000F00F0004C02BF400010F42A
:1026C000000F013AF9D040EA0C0093F0000F01F03E
:1026D000004C02BF490011F4000F013BF9D041EA60
:1026E0000C0195E70CEAD15392EA0C0F08D1420293
:1026F0007FF47DAF93EA0C0F7FF470AF084676E766
:1027000093EA0C0F04D14B023FF44CAF08466EE73E
:1027100030F0004C18BF31F0004CCAD130F000420C
:102720007FF45CAF31F000437FF43CAF5FE700BF64
:102730004FF0FF3C06E000BF4FF0010C02E000BF8D
:102740004FF0010C4DF804CD4FEA40024FEA41032F
:102750007FEA226C18BF7FEA236C11D001B052EAE5
:10276000530C18BF90EA010F58BFB2EB030088BFAB
:10277000C81738BF6FEAE17018BF40F0010070471A
:102780007FEA226C02D15FEA402C05D17FEA236CFC
:10279000E4D15FEA412CE1D05DF8040B704700BF43
:1027A000844608466146FFE70FB5FFF7C9FF0028DA
:1027B00048BF10F1000F0FBD4DF808EDFFF7F4FF13
:1027C0000CBF012000205DF808FB00BF4DF808EDAC
:1027D000FFF7EAFF34BF012000205DF808FB00BFCF
:1027E0004DF808EDFFF7E0FF94BF012000205DF8F1
:1027F00008FB00BF4DF808EDFFF7D2FF94BF0120A2
:1028000000205DF808FB00BF4DF808EDFFF7C8FF9A
:1028100034BF012000205DF808FB00BF42000ED24B
:10282000B2F1FE4F0BD34FF09E03B3EB126209D40B
:102830004FEA002343F0004323FA02F070474FF0C1
:102840000000704712F1610F01D1420202D14FF036
:10285000FF3070474FF00000704700BF03685A0018
:102860004CBF43F0004323F000431844704700BFBF
:1028700061B32DE9F84F01F1FF3A90460646D14683
:10288000002707EB090404EBD4746410E500711908
:102890000846FFF7E3FFA245834605F108003044F0
:1028A00009D0FFF7DBFFC34500F1FF3005D84045F5
:1028B00009D2671CE5E7C34505D9A74202D004F158
:1028C000FF39DEE700210846BDE8F88F084670476B
:1028D000012807D0022807D0044B00280CBF184657
:1028E000002070470248704702487047E52F0008F3
:1028F000E92F0008ED2F000830B5254B83B00446C2
:102900008D1E7BB301A92846AFF3008020B3019947
:102910002A46FFF7ADFF0146F0B1FFF79FFF4B6876
:10292000A064012B12D0002B01F1040021DBFFF782
:1029300095FF0023E06423650368002B1DDBFFF790
:102940008DFF00232061184603B030BD00232361B2
:102950000523184603B030BD002323610923184620
:1029600003B030BD0B490C4B0846591AC9100191F0
:10297000CEE70123E0642365DEE7C3F30360FFF7DE
:10298000A7FF0028206114BF00230923DBE700BF55
:102990000000000080410008B0420008036810B544
:1029A000DA07044606D49B0700F1480009D500F079
:1029B0005BFC2368590709D51A070ED5DB0613D52A
:1029C00010BD00F049FC23685907F5D404F1D0008C
:1029D00000F052FC23681A07F0D404F5A87000F048
:1029E00053FC2368DB06EBD404F5E870BDE8104027
:1029F00000F08EBC03680BB118447047184670474E
:102A000009207047704700BF70B504460D4608E0C6
:102A10002A6C2369626121462A46012098470828CA
:102A200008D1296C2046FFF767FF06460028EFD043
:102A3000FFF754F80728FBD13046296CFFF7E2FF77
:102A4000281D00F0FDFB00BF2DE9F0470646ADF55F
:102A5000727D03AD0C1D17460FCC0FC50FCC0FC5F3
:102A60000FCC0FC594E80F0002ACD6F80C80D6F856
:102A7000189085E80F0000233046216C2360FFF793
:102A80003BFF0546002F14BF0A2709277DB1A36B22
:102A900047F010018DE8100232466364012033468E
:102AA000C04778BB28460DF5727DBDE8F087236CE2
:102AB0004FF4F072736121467AA800F041FE336949
:102AC0007AAA314638469847889B82468DE810029C
:102AD00039466364324633460120C04790B94FF40B
:102AE000F0727AA9204600F02BFEBAF1080F06D149
:102AF000216C3046FFF700FF09270546C6E7BAF10B
:102B0000070F04D009200DF5727DBDE8F087284637
:102B1000216CFFF777FF03A800F092FB406C704731
:102B2000F0B5CB6BF9B00B640E1D01AD0F4604463A
:102B30000FCE0FC50FCE0FC50FCE0FC596E80F00F5
:102B40004FF0FF3685E80F00009606E023696A46DD
:102B5000214698470828054608D110992046FFF7D6
:102B6000CBFE0028F2D0092079B0F0BD6846FFF70F
:102B700015FF062DF7D139462046FFF745FF00BF68
:102B800030B4DD6BC160826119461D64002230BC27
:102B90005AE700BF70B54369C6680B6426B10122CD
:102BA000FFF752FFFEF79AFF03690A4604460D46F7
:102BB000014602209847072807D0082803D1294654
:102BC0002046FFF721FFFEF789FF3046296CFFF70B
:102BD00019FF281D00F034FBC2682AB110B4CC6B79
:102BE00000220C6410BC2FE79AE700BF704700BFBB
:102BF000836813B1014601201847704700B50429C6
:102C000007D8DFE801F00309060909000BB90F2A0C
:102C100005D902205DF804FB01205DF804FB00EB00
:102C2000820252681846019B1A605DF804FB00BFDF
:102C300010B584B0002303AC0A4600941946FFF790
:102C4000DDFF039804B010BD00B5042907D8DFE804
:102C500001F00309060909000BB90F2A05D9022062
:102C60005DF804FB01205DF804FB019900EB820292
:102C70000968184651605DF804FB00BF10B584B0C8
:102C800004AC44F8042D00230A4600941946FFF7CB
:102C9000DBFF04B010BD00BFF0B5D36BADF50F7D09
:102CA0001364151D17AC07460E460FCD0FC40FCD8C
:102CB0000FC40FCD0FC495E80F004FF0FF3584E827
:102CC0000F00169511E016A86A46FFF7D7FF3146A8
:102CD00016A8B84780B9049B16AA694608209847E9
:102CE0000528044609D0092806D026996846FFF72A
:102CF00003FE0C210028E6D0092416A8FFF74EFE9B
:102D000020460DF50F7DF0BD2DE9F04FCC6C9146BE
:102D100022688BB004340D460792089400F0030B30
:102D20001E46002B64D11202032307928DF8256002
:102D30008DF824302B6DBBF1020F08BFAC6B13F084
:102D4000010343D100F00800C2B203920193276847
:102D5000002F3DD0022E47D02788B4F802800434DB
:102D6000AB6C28F0010A0F2148469A44FFF760FF38
:102D7000824537D827F001039A4450452CBF0020E4
:102D800001204FEA480808F0020807F0010748EA66
:102D90000708B8F1010F41D038D3B8F1020F1DD1A7
:102DA000236823F000420292BBF1000F79D130B1C9
:102DB0000399002900F08180002A00F0A880002BF0
:102DC00079DB029B013304EB8304C0E7002301930A
:102DD000022E40DDFFF714FE002842D009200BB080
:102DE000BDE8F08F0020CCE7D4F804800834B7E7C2
:102DF000022B9FDC130CD9B212048DF8253002236C
:102E000004EB810407928DF8243093E7BBF1000FA7
:102E100002D0002840F0B080043498E7BBF1000FE6
:102E200026D1B0B194E80C00991C4FEAD272D5D0EB
:102E300005F158010133069100F09480201DFFF741
:102E4000D9FD06AB01462846AFF30080002840F0CC
:102E5000B88008347BE707A9484600F0F3FA002859
:102E6000BCD1019B002B5CD108200BB0BDE8F08FDA
:102E70000D2148462F6AFFF7DBFE8742E9D1AB6A96
:102E80009C42E6D12046FFF7E9FC0F210246484666
:102E9000FFF7F4FE48462A460021FFF7EFFE072021
:102EA0009DE70D2148462F6AFFF7C2FE874248D0B2
:102EB0002368002B85DA043483E7029B3BB305F1DA
:102EC0005803271DCDF810B0DDF80C80A346DDF8BF
:102ED00008A01C46059602E0B245B04616D038461A
:102EE0000694FFF787FD06AB014600222846AFF3A4
:102EF000008008F1010604370028EDD0029B5C46F3
:102F00004345DDF810B0059ED2D100E05C4648464E
:102F10000D21FFF78DFE069B2862AC626B620620D6
:102F20005DE70F214846FFF783FE0E210246484623
:102F3000FFF7A4FE48462A4A0F21FFF79FFE07200D
:102F40004DE7AB6A9C42B3D1042202990027A31833
:102F5000A962EF622A636B632368BB421FDB012314
:102F600001932EE748460D21FFF762FE2862069B7B
:102F70006B62AC62062032E72046FFF76FFC043438
:102F80000646AC632846AFF3008000283FF426AF26
:102F9000484632460F21FFF771FE07201FE708461B
:102FA000013004EB8000FFF759FC0F210246484630
:102FB000FFF764FE48462A463946FFF75FFE0720C2
:102FC0000DE707460D214846FFF732FE022F286223
:102FD000CDD12B46069A43F82C2F6B62C9E700BF70
:102FE0000000000000238FE601238DE602238BE61C
:102FF000F0B50446C5B004290DD8DFE801F0570349
:103000000C310F00012B4FEA124695B266D17219AE
:10301000102A40F29F80022045B0F0BD002BFAD16B
:10302000102AF8D82368D80600F1C98022AE3046AD
:10303000019200F077F9A06B019A0023012505FAAF
:1030400003F1114203D00168043046F82310013324
:10305000042BF4D1A063304600F05AF90020DBE7DE
:10306000032BD8D1150C97B2EB19102BD3D82368AA
:103070001E0700F1B88022AE30467F0000F026F92E
:1030800006EBC5027B1EA56B57B12946043A51F8E1
:10309000040B013B42F8040F581CF8D105EB8705DF
:1030A0003046A56300F0F0F80020B5E7002BB2D160
:1030B000A56B97B2201D012606FA03F1394203F1F0
:1030C000010302D0296804350160102B00F10400CF
:1030D000F2D112F400503BD1A5639DE7052B9AD1A4
:1030E0007719202F97D80F2E65D92F46002D48D15C
:1030F0002A460027002AA06B71DD00EBC2020146C0
:1031000044A800EBC6008C3851F8045B914240F8AB
:10311000045FF9D1084697B13246102E44A938BF52
:10312000102201EBC202A2F5C4727900043A00EB4E
:10313000810150F8045B814242F8045FF9D1012B10
:1031400047D00F2EA16332D917B102A800F094F82E
:10315000002061E70F2E3FF65EAF00272268D107FF
:103160000DD522F00101052B21600193204652D09C
:1031700022F0030240F8482B00F072F8019B002F68
:1031800051D02268510736D4012B3ED00F2E06D8DD
:1031900022A8019300F06CF8019B002FA8D002A890
:1031A000019300F06DF8019BC6F11002A2E722A87E
:1031B00000F05AF8C8E7102FCFD9103FCEE723F020
:1031C0001003236004F5E870019200F0ABF8019A57
:1031D0002CE70431A16322A800F03EF8B8E7002FE5
:1031E0009AD10146ABE723F00803236004F5A870E9
:1031F00000F06CF83FE7204622F0040240F8D02BA4
:10320000019300F03DF8019BBEE722A8019300F076
:1032100027F8019BC8E741F0020140F8481B00F085
:1032200027F8019BABE7012B03D00F2E3FF660AFD1
:10323000AEE722A8019300F013F8019B58E700BF06
:1032400000F1340191E838009C46A6464CF8045D34
:1032500090E8FF0FE54600BD90EC210B704700BFE2
:1032600080EC210B704700BF90EC200B704700BF33
:1032700080EC200B704700BFD0EC200B704700BFE4
:10328000C0EC200B704700BFF0EC0201F0EC021123
:10329000F0EC0221F0EC0231F0EC0241F0EC0251D2
:1032A000F0EC0261F0EC0271F0EC0281F0EC0291C2
:1032B000F0EC02A1F0EC02B1F0EC02C1F0EC02D1B2
:1032C000F0EC02E1F0EC02F1704700BFE0EC02012B
:1032D000E0EC0211E0EC0221E0EC0231E0EC024112
:1032E000E0EC0251E0EC0261E0EC0271E0EC028102
:1032F000E0EC0291E0EC02A1E0EC02B1E0EC02C1F2
:10330000E0EC02D1E0EC02E1E0EC02F1704700BF3A
:10331000B0FC0181B0FC0191B0FC01A1B0FC01B195
:10332000704700BFA0FC0181A0FC0191A0FC01A19D
:10333000A0FC01B1704700BFEC4600B52DE900507C
:103340002DE9FF1F4FF000032DE90C0001A9FFF745
:10335000E7FBDDF840E012B0704700BFEC4600B577
:103360002DE900502DE9FF1F4FF000032DE90C005F
:1033700001A9FFF70FFCDDF840E012B0704700BF75
:10338000EC4600B52DE900502DE9FF1F4FF000037A
:103390002DE90C0001A9FFF71FFCDDF840E012B099
:1033A000704700BFEC4600B52DE900502DE9FF1F26
:1033B0004FF000032DE90C0001ABFFF7E1FBDDF856
:1033C00040E012B0704700BFEC4600B52DE9005058
:1033D0002DE9FF1F4FF000032DE90C0001AAFFF7B4
:1033E0005BFCDDF840E012B0704700BF037A1BB908
:1033F000437A43B9B02070475A1E036802721A021A
:103400000260180E70474268013B10B443721368A3
:103410000321141D01721A024460026010BC180ED0
:10342000704700BF00B585B003AA0023009219467B
:103430000C22FFF7E3FB039805B05DF804FB00BF27
:10344000F0E700BF2DE9F04306460D4685B04FF08A
:1034500000082846FFF7CAFFB028044600F0B480F1
:1034600020F07F0313F0FF0320D000F0F003802B47
:103470007AD0902B35D0A02B48D0B02B5CD0C02B6D
:1034800000F0898000F0F803D02B0BD100F0070288
:10349000013242F40022052301213046FFF7A8FD46
:1034A0000028D6D0092005B0BDE8F0830DF10C0945
:1034B00019468700CDF800900D223046FFF79EFB9D
:1034C000FFB2039B043760064CBFDF1BFF180023CD
:1034D000CDF8009019460D2230460397FFF7B4FB54
:1034E000B7E700F00D030D2BDCD003AF002300F095
:1034F0000F02194600973046FFF780FB0023009724
:1035000019460D223046FFF79FFBA2E7C2434FF456
:103510007F6302F0070243FA02F2010702EA0302A4
:103520004FF0000348BF42F4804219463046FFF78F
:103530005FFD0028B6D18CE7B1284AD0B22853D01D
:10354000B32800F0818000F0FC03B42BAAD000F077
:1035500007020132012342F4002219463046FFF7E8
:1035600047FD00289ED174E72846FFF73FFF24025D
:103570002043B0F5004F95D004010023A2B21946B4
:103580003046FFF735FD00288CD114F4004F18BFEA
:103590004FF001085DE7C62862D0C7286CD000F064
:1035A000F803C02B7BD0C82800F09180C9287FF495
:1035B00079AF2846FFF71AFF020300F00F0002F46C
:1035C00070220130024366E7B8F1000F6ED0002090
:1035D00069E72846FFF70AFF024600283FF462AF7A
:1035E00010F0F003B9D05DE700230DF10C090D22B6
:1035F0001946CDF800903046FFF700FB2846FFF74C
:10360000F5FE02064FF002040CD5039B00F07F008C
:10361000A040034428460393FFF7E8FE030604F1A5
:103620000704F2D4039B00F07F0000FA04F203F5D4
:10363000017400231444CDF8009019460D22304641
:103640000394FFF701FB04E72846FFF7CFFE0103D1
:1036500000F00F0001F47021421C01230A437CE7B3
:103660002846FFF7C3FE010300F00F0001F47021AC
:10367000421C03230A4370E72846FFF7B7FE0246C1
:1036800000283FF40FAF10F0F0037FF40BAF0421DC
:103690003046FFF7ADFC00287FF404AFD9E600F018
:1036A0000F020132032342F4202256E703AC4346C3
:1036B0000E22414600943046FFF7A0FA00943046AF
:1036C00043460F224146FFF7BFFA4046EBE6284645
:1036D000FFF78CFE00F0F00200F00F031032013310
:1036E00043EA0232D7E600BF10B5C36C84B00320B2
:1036F0005A688DF80C00DC7912020833084601A9DB
:1037000001928DF80D400293FFF79CFE04B010BDAE
:1037100008B5FFF795FE806C08BD00BF08B5FFF740
:103720008FFEC36CD87903EB8000083008BD00BF62
:1037300008B5FEF7D3F900BF08B5FFF7F9FF00BFE2
:1037400010B5431E0A44914204D011F8014B03F80E
:10375000014FF8E710BD03460244934202D003F83C
:10376000011BFAE7704700000EB400B54FF4027178
:103770009CB0ADF814106FF00041049107914FF622
:10378000FF711DAB02900690084853F8042BADF86A
:103790001610006802A9019300F086F8029B00222F
:1037A0001A701CB05DF804EB03B0704734010020C0
:1037B000034611F8012B03F8012B002AF9D17047B9
:1037C000034613F8012B002AFBD1181A0138704761
:1037D000034610B542B111F8014B013A03F8014B11
:1037E000002CF7D11A4400E010BD934202D003F838
:1037F000014BFAE710BD2DE9F0478E6882469E42E4
:103800000C46914698463ED88A8912F4906F3AD079
:103810002568096902236F1A656905EB450595FB63
:10382000F3F57B1C43449D4238BF1D4653050FD51D
:10383000294600F03FFB064698B13A462169FFF75A
:103840007FFFA38923F4906343F08003A38113E0F7
:103850002A4600F08DFB064670B92169504600F0FB
:10386000DDFA0C23CAF80030A3894FF0FF3043F093
:103870004003A381BDE8F08726613E4426604646AA
:103880006561ED1BA560464528BF46464946324660
:10389000206800F0A7FAA36800209B1BA3602368A0
:1038A0001E442660BDE8F0872DE9F04F9DB00393DC
:1038B0008B8980461C060D4616460DD50B695BB9F3
:1038C000402100F0F7FA2860286118B90C23C8F8E5
:1038D0000030CDE040236B610023099320238DF855
:1038E0002930DFF89CB130238DF82A3037463C462A
:1038F00014F8013B1BB9B7EB060910D003E0252BE8
:10390000F9D02746F3E74B46324629464046FFF7B3
:1039100072FF013000F0A780099B4B4409933B786C
:10392000002B00F0A08000234FF0FF320493079398
:10393000059206938DF853301A93012605222178BB
:103940004E4800F041FA671C049B38B14B4A3C4694
:10395000801A06FA00F018430490EFE7D90644BF36
:1039600020228DF853201A0744BF2B228DF85320B4
:1039700022782A2A03D0079A00210A200BE0039A12
:10398000111D12680391002A10DA524243F002001E
:10399000079204900BE027463B780134303B092B1B
:1039A00003D800FB02320121F5E701B107923B7811
:1039B0002E2B1ED17B782A2B0AD1039B02371A1D8E
:1039C0001B680392002BB8BF4FF0FF33059310E044
:1039D000002319460593781C0A2407463A780130DB
:1039E000303A092A03D804FB01210123F5E703B18A
:1039F000059103223978224800F0E6F940B14023CE
:103A0000CBEB000003FA00F0049B0137184304904D
:103A1000397806221B487E1C8DF8281000F0D4F956
:103A200088B1194B33B9039B073323F007030833DD
:103A3000039314E003AB00932A46144B04A94046B9
:103A4000AFF3008007E003AB00932A460F4B04A9B5
:103A5000404600F093F8B0F1FF3F824603D0099B47
:103A60005344099342E7AB895B0601D4099801E00E
:103A70004FF0FF301DB0BDE8F08F00BF34410008AB
:103A80003A4100083E41000800000000F7370008F6
:103A90002DE9F04791461F460A698B680646934216
:103AA000B8BF1346C9F8003091F843200C46DDF842
:103AB000208012B10133C9F800302368990642BF53
:103AC000D9F800300233C9F80030256815F0060532
:103AD00010D104F1190A07E0012352463946304655
:103AE000C04701301AD00135E368D9F800209B1A8D
:103AF0009D42F1DB94F843302268003318BF012364
:103B000092060FD5E118302081F843005A1C94F832
:103B100045102244023382F8431003E04FF0FF3097
:103B2000BDE8F08704F1430239463046C047013012
:103B3000F4D02268D9F80050E36802F00602042AA3
:103B400008BF5D1B2269A3680CBF25EAE575002547
:103B50009342C4BF9B1AED184FF000091A344D452B
:103B600009D00123224639463046C0470130D5D01E
:103B700009F10109F3E70020BDE8F0872DE9F043E2
:103B800017460A7E85B06E2A984606460C460C9B60
:103B900001F1430E00F0AE8011D8632A22D009D87B
:103BA000002A00F0BB80582A40F0CA8081F84520E6
:103BB000834955E0642A1ED0692A1CD0C0E0732ACC
:103BC00000F0B08009D86F2A2ED0702A40F0B8805B
:103BD0000A6842F020020A603EE0752A24D0782A62
:103BE0003AD0ADE01A6801F14205111D1960136861
:103BF00084F84230A8E021681A6811F0800F02D0E2
:103C0000111D196008E011F0400F02F10401196064
:103C100002D0B2F9003000E01368002B3CDA2D220C
:103C20005B4284F8432037E021681A6811F0800F66
:103C300002D0111D196007E011F0400F02F10401DC
:103C4000196001D0138800E01368227E5C496F2A56
:103C500014BF0A2208221BE078225A4984F8452022
:103C60002268186812F0800F00F104051D6003D16E
:103C7000550601D5038800E00368D00744BF42F031
:103C8000200222601BB9226822F02002226010224A
:103C9000002084F8430001E049490A226568002DAC
:103CA000A56008DB206820F0040020602BB9002DFF
:103CB0007DD175460CE0002B79D07546B3FBF2F050
:103CC00002FB1033CB5C05F8013D03460028F5D11B
:103CD000082A0BD12368DA0708D5236962689A425B
:103CE000DEBF302305F8013C05F1FF35C5EB0E03BF
:103CF00023612EE008681A6810F0800F496903D02C
:103D0000101D1860136808E010F0400F02F1040065
:103D10001860136801D0198000E019600023236146
:103D2000754616E01A68111D196015680021626851
:103D3000284600F049F808B1401B6060636804E061
:103D400004F1420584F8422001232361002384F812
:103D50004330CDF800803B4603AA21463046FFF7AA
:103D600097FE013002D14FF0FF3026E023692A464A
:103D700039463046C0470130F5D023689B0710D53F
:103D8000002504F1190907E001234A463946304667
:103D9000C0470130E7D00135E368039A9B1A9D4282
:103DA000F2DBE068039B9842B8BF184605E00B7849
:103DB00004F1420584F842308AE705B0BDE8F0839B
:103DC000454100085641000810B5C9B2024490426E
:103DD000034605D01C7801308C42F8D1184610BD3E
:103DE000002010BD884210B501EB020301D8421E2D
:103DF0000BE09842FBD28118D21AD34204D013F8B8
:103E0000014D01F8014DF8E710BD994204D011F8B9
:103E1000014B02F8014FF8E710BD000038B5054628
:103E2000002944D051F8043C0C1F002BB8BFE41803
:103E300000F0D4F81E4A1368114613B96360146089
:103E400030E0A3420DD92268A018834201BF186850
:103E50005B681218226063600C6023E0A24203D802
:103E600013465A68002AF9D118681918A1420BD1D3
:103E70002168014458188242196013D110685268B1
:103E8000014419605A600DE002D90C232B6009E04F
:103E900021686018824201BF1068526809182160C9
:103EA00062605C602846BDE8384000F098B838BDD4
:103EB0005003002070B5CD1C25F0030508350C2DEE
:103EC00038BF0C25002D064601DBA94202D90C2380
:103ED000336046E000F082F8234B1C681A46214606
:103EE000A1B10B685B1B0ED40B2B03D90B60CC1854
:103EF000CD501EE08C420BBF63684B68136063605B
:103F000018BF0C4615E00C464968E9E7174C2368D2
:103F10001BB9304600F052F820602946304600F0C8
:103F20004DF8431C18D0C41C24F00304A0420DD14A
:103F30002560304600F053F804F10B00231D20F0FB
:103F40000700C31A0ED05A42E25070BD211A304603
:103F500000F034F80130EBD10C233360304600F030
:103F60003EF8002070BD00BF500300204C0300202D
:103F7000F8B5074615460E4621B91146BDE8F8408A
:103F8000FFF798BF1AB9FFF749FF2846F8BD00F0C0
:103F900027F885420ED929463846FFF78BFF04469D
:103FA00050B131462A46FFF7CBFB31463846FFF782
:103FB00035FF01E03046F8BD2046F8BD38B5064C67
:103FC0000023054608462360FDF77AFD431C02D115
:103FD000236803B12B6038BDB404002070477047DC
:103FE00051F8040C0028BEBF091851F8043CC01851
:103FF000043870474150525320696E69740A0D00AD
:1040000000000000696E6974204F4E0A0D00000028
:10401000743D253032753A253032752E2530327593
:104020003A627574743A253034753A73656E64413A
:104030005052533A253031753A73656E6443573A9E
:10404000253031750A0D000041505253204F4E0A61
:104050000D00000041505253204F46460A0D00000B
:104060002D0000002424242425732C25642C2530C5
:10407000327525303275253032752C257325642E26
:104080002530356C642C257325642E2530356C6401
:104090002C256C642C25642C25642C25642C25642B
:1040A0002C25642C253032780000000025732A2549
:1040B0003034580A00000000535137464A422D312F
:1040C0003100000057494445312D312C57494445B2
:1040D000322D310041505A51415000003A5445535D
:1040E00054313233343536373839300021253032C7
:1040F00064253032642E25303275256325632530E2
:104100003364253032752E25303275256325632FB3
:10411000413D2530366C642F502564532564542569
:1041200064562564257300004E304C4943205445A5
:10413000414D0000232D302B2000686C4C0065663B
:1041400067454647003031323334353637383941E8
:1041500042434445460030313233343536373839FE
:074160006162636465660003
:1041680008B10181B0B000840000000008B10181ED
:08417800B0B00084000000005B
:104180007CD0FF7F00840480A8D0FF7F0100000066
:10419000B8D0FF7F03AF2E80CCD2FF7F010000009C
:1041A00080DCFF7FAD08B18048DDFF7FB0B0A88024
:1041B0008CDDFF7FA908B180E8DDFF7F01000000F2
:1041C0007CDEFF7FB0B0AE80F8DEFF7F0100000034
:1041D0001CDFFF7FB0B0A88044DFFF7FA908B1805B
:1041E00070DFFF7FB0B0AA8090DFFF7F010000008A
:1041F00050E0FF7FB0A904807CE0FF7F0100000059
:10420000F8E6FF7FB0A9028094E7FF7FB0B0A880F6
:10421000E4E7FF7F01000000F0E7FF7FB0B0AA8075
:1042200028E8FF7FAE71B280F4E8FF7F0100000054
:10423000F0E8FF7FAB3F388048E9FF7F01000000D6
:1042400054E9FF7FB0B0AA8090E9FF7F0100000031
:1042500048EAFF7FAB0EB280B0EAFF7FB0AF0A80C2
:1042600084EDFF7F0100000088EDFF7FAB3F0480FD
:10427000D0EFFF7F01000000ACF1FF7F00840480DD
:10428000C0F1FF7F01000000BCF1FF7FB0AD0480F2
:1042900058F4FF7FB0A8038078F4FF7FCCFEFF7F47
:1042A0007CF4FF7FD0FEFF7F88F4FF7F01000000D9
:1042B00004000020FF55FF55FF55FF555555FF558C
:1042C000FFFFFFFF55FFFFFF55FFFFFF55FFFFFFFC
:1042D00055555555555500000006070809010A0BAC
:1042E0000C0D020E0F10110306070809040A0B0C2F
:1042F0000D050E0F101100004E4F314C49432D316A
:104300000000000000000000AB123B010A000000AA
:104310000A0D506F776572696E672075702054586A
:104320000A0D000024242424242453544D33322025
:104330005254545920747261636B65722062792003
:10434000426C617369752C20656E6A6F7920616EAD
:10435000642073656520796F75206F6E20746865C1
:10436000204855422E2E2E200A0D00004E0000003F
:10437000000000000102030401020304060708090B
:104380000204060800000000000000000000000019
:10439000000000000000000000000000000000001D
:1043A000000000000000000000000000000000000D
:1043B00000000000000000000000000000000000FD
:1043C00000000000000000000000000000000000ED
:1043D00000000000000000000000000000000000DD
:0843E00000000000D4000020E1
:0400000508000000EF
:00000001FF
